:100000000C943E000C945B000C945B000C945B0021
:100010000C945B000C945B000C945B000C945B00F4
:100020000C945B000C945B000C945B000C945B00E4
:100030000C94D6060C9477030C945B000C9479070F
:100040000C949F040C9495040C945B000C945B003E
:100050000C94FE050C945B000C94B4050C945B00AE
:100060000C94A9040C945B000C945B000C945B0052
:100070000C948F060C945B000C94450611241FBE53
:10008000CFEFD0E1DEBFCDBF12E0A0E0B1E0EEE8FF
:10009000F2E102C005900D92A830B107D9F713E044
:1000A000A8E0B2E001C01D92A233B107E1F70E94BF
:1000B00035030C9445090C940000A8E1B0E0E3E698
:1000C000F0E00C94BD0869837A838B839C832D8335
:1000D0003E834F835887B9E0EB2EF12CEC0EFD1ECA
:1000E000CE010196B7010E94A6028E010F5E1F4F3E
:1000F000CE010596B8010E94A6022985223008F497
:100100007EC03989323010F4B8017CC08A859A8962
:1001100089278A87243011F0223031F4231709F01F
:100120006EC060E071E06EC0343039F41D861E860A
:100130001F86188A1C861B8604C0323021F484E096
:100140008987B7015FC02B853C858B899C89281BDB
:10015000390B3C872B87ED84FE840F851889AD8889
:10016000BE88CF88D88CEA14FB040C051D0540F42A
:10017000EE0CFF1C001F111F215030403C872B87C5
:1001800020E030E040E050E080E090E0A0E0B0E42B
:1001900060E070E0EA14FB040C051D0540F0282B1C
:1001A000392B4A2B5B2BEA18FB080C091D09B69565
:1001B000A79597958795EE0CFF1C001F111F6F5F89
:1001C0007F4F6F31710531F7DA01C9018F77907078
:1001D000A070B07080349105A105B10561F427FDD0
:1001E0000AC0E114F1040105110529F0205C3F4F1C
:1001F0004F4F5F4F20782D873E874F87588BBE012A
:10020000675F7F4FCB010E94D1016896EAE00C94B2
:10021000D908A8E0B0E0EFE0F1E00C94BD087B0164
:100220008C01611571058105910519F482E08983BE
:1002300060C083E089838EE1C82ED12CDC82CB8222
:10024000ED82FE820F831887C801B7010E948201E8
:10025000FC013197F7FF3BC0222733272E1B3F0BB2
:1002600057016801022E04C0D694C794B794A7948E
:100270000A94D2F740E050E060E070E081E090E066
:10028000A0E0B0E004C0880F991FAA1FBB1F2A95E9
:10029000D2F70197A109B1098E219F21A023B12393
:1002A0000097A105B10521F041E050E060E070E069
:1002B0004A295B296C297D294D835E836F8378876A
:1002C0008EE190E08E1B9F0B9C838B8312C0309736
:1002D00081F00E2E04C0EE0CFF1C001F111F0A94AB
:1002E000D2F7ED82FE820F831887CE1ADF0ADC82F6
:1002F000CB821A82CE0101960E94D1012896EAE0B3
:100300000C94D908EF92FF920F931F937B018C01FD
:1003100080E0E81680E0F80681E0080780E0180732
:1003200088F48FEFE816F1040105110531F028F08B
:1003300088E090E0A0E0B0E017C080E090E0A0E0AE
:10034000B0E012C080E0E81680E0F80680E0080720
:1003500081E0180728F088E190E0A0E0B0E004C058
:1003600080E190E0A0E0B0E020E230E040E050E04A
:10037000281B390B4A0B5B0B04C016950795F794A5
:10038000E7948A95D2F7F701E85FFE4F8081281B3A
:10039000310941095109C9011F910F91FF90EF9057
:1003A0000895DF92EF92FF920F931F93FC01E48078
:1003B000F58006811781D1808081823048F480E009
:1003C00090E0A0E1B0E0E82AF92A0A2B1B2BA5C097
:1003D000843009F49FC0823021F4EE24FF24870189
:1003E00005C0E114F1040105110519F4E0E0F0E0A5
:1003F00096C0628173819FEF623879070CF05BC011
:1004000022E83FEF261B370B2A3131052CF020E084
:1004100030E040E050E02AC0B801A701022E04C03D
:1004200076956795579547950A94D2F781E090E0C5
:10043000A0E0B0E004C0880F991FAA1FBB1F2A9537
:10044000D2F70197A109B1098E219F21A023B123E1
:100450000097A105B10521F081E090E0A0E0B0E0B7
:100460009A01AB01282B392B4A2B5B2BDA01C901EE
:100470008F779070A070B07080349105A105B105A0
:1004800039F427FF09C0205C3F4F4F4F5F4F04C036
:10049000215C3F4F4F4F5F4FE0E0F0E02030A0E0A5
:1004A0003A07A0E04A07A0E45A0710F0E1E0F0E0C4
:1004B00079018A0127C06038710564F5FB01E158B4
:1004C000FF4FD801C7018F779070A070B070803453
:1004D0009105A105B10539F4E7FE0DC080E490E077
:1004E000A0E0B0E004C08FE390E0A0E0B0E0E80E50
:1004F000F91E0A1F1B1F17FF05C016950795F794D5
:10050000E794319687E016950795F794E7948A95D6
:10051000D1F705C0EE24FF248701EFEFF0E06E2F46
:10052000679566276795902F9F77D794DD24D7949A
:100530008E2F8695492F462B582F5D29B701CA016A
:100540001F910F91FF90EF90DF900895FC01DB0168
:10055000408151812281622F6F7770E0221F222714
:10056000221F9381892F880F822B282F30E0991F1B
:100570009927991F11969C93119721153105A9F57B
:10058000411551056105710511F482E037C082E81B
:100590009FEF13969C938E9312979A01AB0167E09D
:1005A000220F331F441F551F6A95D1F783E08C93A8
:1005B0000DC0220F331F441F551F12968D919C9121
:1005C0001397019713969C938E931297203080E097
:1005D000380780E0480780E4580758F314962D93B5
:1005E0003D934D935C93179708952F3F310579F410
:1005F000411551056105710519F484E08C93089546
:1006000064FF03C081E08C9312C01C9210C02F576E
:10061000304013963C932E93129783E08C9387E09F
:10062000440F551F661F771F8A95D1F77064149683
:100630004D935D936D937C9317970895469A479ACF
:100640003E9A3F9A2C9A24982B9A2A9A299A289A69
:10065000239822982198209808950E941E0388E0EC
:1006600092E00E94F904789408950E943A030E944F
:100670002D03FFCF0F93DF93CF9300D0CDB7DEB71D
:100680000E941E034698479A0E945A040E946808D6
:1006900078948AE00E94BC071B9909C08FEF0E94E2
:1006A0009307882321F04798469A80E003C0469834
:1006B000479A81E00E9441040E943E04882361F32E
:1006C00000E0802F0E949B079A838983802F0E94DD
:1006D000B20729813A81280F391F802FB9010E9462
:1006E00044040F5F063069F70E942504D5CF1F929E
:1006F0000F920FB60F9211242F933F934F935F9356
:100700008F939F93AF93BF93EF93FF93809182005A
:100710008068809382002091880030918900E09168
:10072000B802F0E0EE0FFF1FE855FD4F8081918188
:10073000820F931F90938900809388002091B902C3
:100740003091BA024091BB025091BC02E091B802D4
:10075000F0E0EE0FFF1FE855FD4F80819181A0E092
:10076000B0E0820F931FA41FB51F8093B90290932E
:10077000BA02A093BB02B093BC028091B8028F5F13
:100780008093B8022091B8028091BF0230E090E0DF
:10079000049628173907B1F48091B9029091BA02F2
:1007A000A091BB02B091BC0281549D40A340B040D7
:1007B00020F081E08093BD0205C08091B802815095
:1007C0008093B802FF91EF91BF91AF919F918F916C
:1007D0005F914F913F912F910F900FBE0F901F90FF
:1007E00018955C9800000000000000000000000068
:1007F00000000000000000000000000000000000F9
:10080000000000008091BE02882309F45C9A5D9884
:100810005F9A8091820080688093820000000000CF
:1008200000000000000000000000000000000000C8
:100830000000000000000000000000008091820025
:100840008068809382005F980895809184009091E1
:10085000850080589F4F9093890080938800109264
:10086000B8021092BD021092B9021092BA02109210
:10087000BB021092BC020E94F10308958091BD0258
:1008800008958093BE0208959EE46032790718F4BB
:1008900060E27EE406C09CE96134790710F060E410
:1008A0007CE9E82FF0E0EE0FFF1FE855FD4F718364
:1008B0006083089580E090E020E137E2FC01EE0FD4
:1008C000FF1FE855FD4F3183208301968830910545
:1008D000A9F781E08093BE025C985D985F98549A76
:1008E000559A579A0E9425040E94810480918000A5
:1008F00080648093800080916F00826080936F009D
:1009000008958091840090918500A0E0B0E08093EC
:10091000C0029093C102A093C202B093C302E1E867
:10092000F0E080818160808308951F920F920FB65E
:100930000F9211240F900FBE0F901F9018951F92C9
:100940000F920FB60F9211240F900FBE0F901F90B1
:1009500018951F920F920FB60F9211246F937F93E9
:100960008F939F93AF93BF93EF93FF93E091E40234
:10097000F0E08091780090917900EE0FFF1FEC532A
:10098000FD4F918380838091E4028F5F8093E40226
:100990008091E40266E00E9495089093E4028091C1
:1009A0007C009091E402807E892B80937C008FEC08
:1009B00080937A008091E402882371F4A4EDB2E080
:1009C000E4ECF2E080E101900D928150E1F780913A
:1009D000E5028F5F8093E502FF91EF91BF91AF91A8
:1009E0009F918F917F916F910F900FBE0F901F90ED
:1009F0001895FC0180E29EE4A0E0B0E08083918342
:100A0000A283B38384839583A683B78380879187EA
:100A1000A287B38784879587A687B78728EE33E0B8
:100A200040E050E0208B318B428B538B248B358BF5
:100A3000468B578B208F318F428F538F248F358F6A
:100A4000468F578F80E092E0A0E0B0E080A391A3B2
:100A5000A2A3B3A384A395A3A6A3B7A380A791A79A
:100A6000A2A7B3A724A735A746A757A710AA11AADC
:100A700012AA13AA14AA15AA16AA17AA80E094E02B
:100A8000A0E0B0E080AF91AFA2AFB3AF84AF95AFBD
:100A9000A6AFB7AFE05CFF4F80E395E7A0E0B0E022
:100AA00081939193A193B19381939193A193B193E6
:100AB00081939193A193B19381939193A193B193D6
:100AC00021933193419351932193319341935193C6
:100AD00021933193419351932193319341935193B6
:100AE0002193319341935193108211821282138288
:100AF000389621933193419351931192119211920F
:100B0000119211921192119211922193319341936A
:100B10005193108211821282138274971082118273
:100B2000128213827C9621933193419351931192B7
:100B3000119211921192119211921192119221938C
:100B400031934193519311921192119211921192FA
:100B500011921192119284EF91E0A0E0B0E08083B5
:100B60009183A283B38308951F920F920FB60F92C1
:100B700011242F933F935F936F937F938F939F9352
:100B8000AF93BF93EF93FF932091E8023091E90276
:100B90008091EA029091EB0228173907E9F0E09181
:100BA000E602F091E7028091E8029091E902E80FF5
:100BB000F91F80818093C6008091E8029091E9023C
:100BC0006091EC027091ED0201960E94A108909351
:100BD000E9028093E80202C01092EE02FF91EF91C9
:100BE000BF91AF919F918F917F916F915F913F9155
:100BF0002F910F900FBE0F901F9018951F920F927C
:100C00000FB60F9211242F933F934F935F936F93DF
:100C10007F938F939F93AF93BF93EF93FF934091F5
:100C2000C6008091FA029091FB026091FE027091E1
:100C3000FF0201960E94A108282F30E08091FC025B
:100C40009091FD022817390779F0E091F802F091B0
:100C5000F9028091FA029091FB02E80FF91F40839C
:100C60003093FB022093FA02FF91EF91BF91AF9175
:100C70009F918F917F916F915F914F913F912F91B4
:100C80000F900FBE0F901F9018951F920F920FB6E6
:100C90000F9211242F933F935F936F937F938F93C2
:100CA0009F93AF93BF93EF93FF932091F102309105
:100CB000F2028091F3029091F40228173907E9F0CB
:100CC000E091EF02F091F0028091F1029091F20236
:100CD000E80FF91F80818093CE008091F1029091FE
:100CE000F2026091F5027091F60201960E94A1084D
:100CF0009093F2028093F10202C01092F702FF91EA
:100D0000EF91BF91AF919F918F917F916F915F9183
:100D10003F912F910F900FBE0F901F9018951F922B
:100D20000F920FB60F9211242F933F934F935F931F
:100D30006F937F938F939F93AF93BF93EF93FF93A3
:100D40004091CE00809103039091040360910703CA
:100D50007091080301960E94A108282F30E080912D
:100D60000503909106032817390779F0E0910103F4
:100D7000F09102038091030390910403E80FF91F9F
:100D800040833093040320930303FF91EF91BF91BD
:100D9000AF919F918F917F916F915F914F913F9113
:100DA0002F910F900FBE0F901F9018951F920F92CA
:100DB0000FB60F921124EF92FF920F931F932F9370
:100DC0003F934F935F936F938F939F93AF93BF9393
:100DD000CF93DF93EF93FF9360912E0310922E0336
:100DE000C0918600D09187009E0140E050E0E091E4
:100DF0002C03F0912D0380912C0390912D03A0E002
:100E0000B0E0281739074A075B0708F461504160D2
:100E1000CF01A0E0B0E0281B390B4A0B5B0B407000
:100E20005070862F90E0A0E0B0E08C01FF24EE240B
:100E3000E20EF31E041F151FD0932D03C0932C0345
:100E400081E6E8168AEEF80680E0080780E01807D9
:100E500070F080912A0380932B0310922A038091D3
:100E60003003882381F581E0809330032CC02091EA
:100E70002A038091310330E090E001972817390769
:100E800049F0E0912A03F0E0EE0FFF1FE65FFC4F10
:100E9000F182E08280912A038F5F80932A03809100
:100EA0002A03843080F080913003882361F082E04F
:100EB0008093300390912A0380912B03981719F4A3
:100EC00081E080932F03FF91EF91DF91CF91BF914C
:100ED000AF919F918F916F915F914F913F912F9122
:100EE0001F910F91FF90EF900F900FBE0F901F90EA
:100EF00018951F920F920FB60F9211248F93809125
:100F00002E038F5F80932E0380912E038B3028F069
:100F10008AE080932E03109230038F910F900FBEC2
:100F20000F901F9018959091300398239093300361
:100F3000809130030895E82FEF5FE0933103E15093
:100F4000F0E0EE0FFF1FDF01A65FBC4F2D913C913B
:100F5000E65EFC4F8081918110923103281B390B92
:100F6000C9010895E82FF0E0EE0FFF1FE65EFC4F89
:100F700020813181C90108956F927F928F929F9253
:100F8000AF92BF92CF92DF92EF92FF920F931F9397
:100F9000DF93CF93CDB7DEB7A0970FB6F894DEBF3F
:100FA0000FBECDBFA82E80E090E0FC01EE0FFF1F2A
:100FB000E65EFC4F11821082019688309105A9F7F8
:100FC000FE01319680E2DF011D928A95E9F7DD246A
:100FD000BE2ECF2E38C010922F0380912F0388236E
:100FE000E1F38B2D9C2D7C0100E010E0F7014081A6
:100FF000518162817381802F8F5F80933103F8016B
:10100000EE0FFF1FDF01A65FBC4F8D919C91E65E46
:10101000FC4F2081318110923103821B930BAA2750
:1010200097FDA095BA2F840F951FA61FB71FF70134
:1010300081939193A193B1937F010F5F1F4F08306C
:101040001105A1F6D394DA1430F23E010894611C24
:10105000711CCC24DD248A2C9924AA24BB24D3011E
:101060006D917D918D919D913D010E9409017B01C2
:101070008C01C501B4010E9409019B01AC01C801AA
:10108000B7010E945D000E94EC08F601EE0FFF1F01
:10109000E65EFC4F718360830894C11CD11CB8E0EC
:1010A000CB16D104E1F6A0960FB6F894DEBF0FBEC2
:1010B000CDBFCF91DF911F910F91FF90EF90DF9007
:1010C000CF90BF90AF909F908F907F906F9008953A
:1010D00080E090E020E335E7FC01EE0FFF1FE65FC4
:1010E000FC4F31832083019688309105A9F7109237
:1010F000300310922F0310922A0310922E031092A5
:101100002D0310922C0386E080932B035E98569853
:101110000E94810480918100806C80938100809185
:101120006F00816280936F000895991B79E004C07D
:10113000991F961708F0961B881F7A95C9F7809516
:101140000895AA1BBB1B51E107C0AA1FBB1FA6170E
:10115000B70710F0A61BB70B881F991F5A95A9F760
:1011600080959095BC01CD0108952F923F924F92AA
:101170005F926F927F928F929F92AF92BF92CF9227
:10118000DF92EF92FF920F931F93CF93DF93CDB730
:10119000DEB7CA1BDB0B0FB6F894DEBF0FBECDBFA8
:1011A00009942A88398848885F846E847D848C8479
:1011B0009B84AA84B984C884DF80EE80FD800C8182
:1011C0001B81AA81B981CE0FD11D0FB6F894DEBF65
:1011D0000FBECDBFED01089537D058F19E5758F19D
:1011E0009851A0F0E9F0983020F5092E9927660F64
:1011F000771F881F991F0A94D1F712C0062E672FF8
:10120000782F8827985F11F4000C07C0993FB4F33A
:101210008695779567959395D9F7611D711D811D09
:101220003EF490958095709561957F4F8F4F9F4FBD
:101230000895689424C022C057FD9058440F551F4C
:1012400059F05F3F71F04795880F97FB991F61F048
:101250009F3F79F087950895121613061406551FBF
:10126000F2CF4695F1DF08C0161617061806991F2B
:10127000F1CF86957105610508940895E894BB2720
:0E12800066277727CB0197F90895F894FFCFE2
:10128E00000000000000000000010202030303033F
:10129E0004040404040404040505050505050505F8
:1012AE0005050505050505050606060606060606D8
:1012BE0006060606060606060606060606060606C0
:1012CE0006060606060606060707070707070707A8
:1012DE000707070707070707070707070707070790
:1012EE000707070707070707070707070707070780
:1012FE000707070707070707070707070707070770
:10130E000707070707070707080808080808080857
:10131E00080808080808080808080808080808083F
:10132E00080808080808080808080808080808082F
:10133E00080808080808080808080808080808081F
:10134E00080808080808080808080808080808080F
:10135E0008080808080808080808080808080808FF
:10136E0008080808080808080808080808080808EF
:10137E0008080808080808080808080808080808DF
:08138E00080808080808080817
:00000001FF
