:10F000000C943E780C9450780C9450780C94507872
:10F010000C9450780C9450780C9450780C94507850
:10F020000C9450780C9450780C9450780C94507840
:10F030000C9450780C9450780C9450780C94507830
:10F040000C9450780C9450780C9450780C94507820
:10F050000C9450780C9450780C9450780C94507810
:10F060000C9450780C9450780C9450780C94507800
:10F070000C9450780C9450780C94507811241FBE46
:10F08000CFEFD0E1DEBFCDBF12E0A0E0B1E001C024
:10F090001D92A930B107E1F70E94AA790C94757C02
:10F0A0000C940078089528988091C00087FFFCCFC9
:10F0B000289A3091C600832F9091C00095FFFCCF15
:10F0C0003093C60028989091C00097FFFCCF289AF3
:10F0D0002091C600422F9091C00095FFFCCF209355
:10F0E000C600313664F0832F8755213674F42033FF
:10F0F00014F0422F40538295807F840F089530335F
:10F10000A4F3832F8053213694F3422F47558295E1
:10F11000807F840F0895282F332727FD3095207F87
:10F1200030703595279535952795359527953595E3
:10F1300027952A30A4F0295A8F708A3074F0895AA2
:10F140009091C00095FFFCCF2093C6009091C00025
:10F1500095FFFCCF8093C6000895805DF1CF205DC0
:10F16000EBCF9091C00095FFFCCF8093C60008952F
:10F1700028988091C00087FFFCCF289A8091C60014
:10F180000895882351F020E09091C00097FFFCCFB4
:10F190009091C6002F5F2817B8F308952898909192
:10F1A000C00097FFFCCF289A9091C600903231F0B2
:10F1B000809100018F5F8093000108959091C000BD
:10F1C00095FFFCCF94E19093C6009091C00095FF0D
:10F1D000FCCF8093C6008091C00085FFFCCF80E10A
:10F1E0008093C600089528988091C00087FFFCCFC7
:10F1F000289A8091C600803231F0809100018F5FA3
:10F200008093000108958091C00085FFFCCF84E1C8
:10F210008093C6008091C00085FFFCCF80E1809381
:10F22000C6000895DF93CF9300D000D0CDB7DEB7EE
:10F23000882309F088C041E050E020E030E0289ABF
:10F2400019821A821B821C8289819A81AB81BC81BE
:10F2500080386EE3960760E0A60760E0B607B8F472
:10F2600089819A81AB81BC810196A11DB11D8983E1
:10F270009A83AB83BC8389819A81AB81BC818038BE
:10F280006EE3960760E0A60760E0B60748F32898AB
:10F2900019821A821B821C8289819A81AB81BC816E
:10F2A00080306AEF960760E0A60760E0B607B8F422
:10F2B00089819A81AB81BC810196A11DB11D898391
:10F2C0009A83AB83BC8389819A81AB81BC81803076
:10F2D0006AEF960760E0A60760E0B60748F32F5F85
:10F2E0003F4F241735070CF4AACF19821A821B82CC
:10F2F0001C8289819A81AB81BC81803021E7920791
:10F3000022E0A20720E0B207B8F489819A81AB819C
:10F31000BC810196A11DB11D89839A83AB83BC83F7
:10F3200089819A81AB81BC81803061E7960762E078
:10F33000A60760E0B60748F30F900F900F900F906C
:10F34000CF91DF910895482F50E0141615060CF464
:10F3500074CFCBCFEF92FF920F931F93CF93DF9396
:10F36000000094B714BE80916000886180936000B3
:10F370001092600091FF54C284B1807484B92E9AB7
:10F380001E9947C28CE08093C4001092C50088E1AA
:10F390008093C10086E08093C2005098589A209ACA
:10F3A00083E00E94127981E00E94127964E1E62EE6
:10F3B00050E1F52E28988091C00087FFFCCF289A55
:10F3C0008091C600803309F441C0813309F441C003
:10F3D000803409F486C0813409F499C0823409F478
:10F3E000AEC0853409F4B8C0803581F1813509F4A7
:10F3F0000AC2823559F18535A9F0863509F4B8C0BD
:10F40000843609F4BFC0843709F44AC1853709F44A
:10F41000CFC1863709F48FC0809100018F5F809340
:10F420000001C8CF28988091C00087FFFCCF289AA0
:10F430008091C6008093030128988091C00087FFC7
:10F44000FCCF289A8091C600809304010E94F37833
:10F45000B1CF28988091C00087FFFCCF289A809177
:10F46000C6008032C9F68091C00085FFFCCFE092D3
:10F47000C6008091C00085FFFCCF81E48093C60068
:10F480008091C00085FFFCCF86E58093C600809107
:10F49000C00085FFFCCF82E58093C6008091C0004C
:10F4A00085FFFCCF80E28093C6008091C00085FF7D
:10F4B000FCCF89E48093C6008091C00085FFFCCF1B
:10F4C00083E58093C6008091C00085FFFCCF80E576
:10F4D0008093C6008091C00085FFFCCFF092C600EB
:10F4E00069CF28988091C00087FFFCCF289A80912F
:10F4F000C600863808F4AACF28988091C00087FFFC
:10F50000FCCF289A8091C6000E94F37853CF2898A8
:10F510008091C00087FFFCCF289A8091C600803878
:10F5200009F4B2C0813809F4B7C0823809F4B0C018
:10F53000883909F4A5C080E00E94CE783BCF90E0E6
:10F540008091C00087FFFCCF8091C6009F5F9431FF
:10F55000B9F70E94F3782ECF95E08091C00087FF25
:10F56000FCCF8091C6009150C1F70E94F37822CF62
:10F5700094E08091C00087FFFCCF8091C60091503D
:10F58000C1F7D9CF28988091C00087FFFCCF289A77
:10F590008091C6008093060228988091C00087FF62
:10F5A000FCCF289A8091C6008093050280910802C2
:10F5B0008E7F482F8093080228989091C00097FF73
:10F5C000FCCF289A9091C600953421F4482F4160D1
:10F5D00040930802A5E0B1E0FD01119281E0E53819
:10F5E000F807D9F78091050290910602009791F0F3
:10F5F000E5E0F1E020E030E028985091C00057FFAE
:10F60000FCCF289A5091C60051932F5F3F4F281787
:10F61000390790F328982091C00027FFFCCF289A43
:10F620002091C600203209F0F7CE40FFFFC00097BE
:10F63000E1F0E0910301F09104019F0140E050E00E
:10F64000F999FECF32BD21BD2D9120BDFA9AF99ACC
:10F650009F012F5F3F4FF901309304012093030175
:10F660004F5F5F4F4817590758F38091C00085FFDF
:10F67000FCCFE092C6008091C00085FFFCCF2ECF6A
:10F6800083E00E94CE7896CE82E00E94CE7892CE21
:10F6900080E10E94CE788ECE81E00E94CE788ACE24
:10F6A00028988091C00087FFFCCF289A8091C600DF
:10F6B0008093060228988091C00087FFFCCF289A8B
:10F6C0008091C6008093050228988091C00087FF32
:10F6D000FCCF289A8091C600853409F463C040911C
:10F6E00008024E7F4093080280910301909104012B
:10F6F000880F991F909304018093030128988091AB
:10F70000C00087FFFCCF289A8091C600803209F0A4
:10F7100051CE8091C00085FFFCCFE092C60020E072
:10F7200030E08091050290910602542F5170427092
:10F730002817390768F5552399F4442371F5E091AA
:10F740000301F091040164917091C00075FFFCCF3A
:10F750006093C6003196F0930401E093030115C055
:10F76000F999FECFE0910301F0910401F2BDE1BDF2
:10F77000F89A60B57091C00075FFFCCF6093C60029
:10F780003196F0930401E09303012F5F3F4FD0CFF8
:10F790008091C00085FFFCCFA1CEE0910301F091E4
:10F7A0000401D8CF40910802416040930802A6CFDF
:10F7B00028988091C00087FFFCCF289A8091C600CE
:10F7C000803209F029CE8091C00085FFFCCFE09205
:10F7D000C6008091C00085FFFCCF8EE18093C600FB
:10F7E0008091C00085FFFCCF86E98093C6008091A0
:10F7F000C00085FFFCCF8AE08093C6008091C000E6
:10F8000085FFFCCF6BCE0E94F37888E08093600088
:10F81000FFCF15B8E0910101F09102010995B2CD39
:10F82000E0910101F09102010995A6CD209103011B
:10F8300030910401220F331F309304012093030100
:10F840002091050220FF05C0019690930602809347
:10F850000502F999FECF1127E0910301F09104010F
:10F86000C5E0D1E08091050290910602103091F43C
:10F870000091570001700130D9F303E00093570065
:10F88000E8950091570001700130D9F301E1009330
:10F890005700E895099019900091570001700130C8
:10F8A000D9F301E000935700E8951395103898F0CC
:10F8B00011270091570001700130D9F305E0009342
:10F8C0005700E8950091570001700130D9F301E12C
:10F8D00000935700E8953296029709F0C7CF103091
:0EF8E00011F00296E5CF1124C0CEF894FFCFB0
:040000030000F00009
:00000001FF
