:10F000000C9467780C949F780C9484780C94847892
:10F010000C9484780C9484780C9484780C94847880
:10F020000C9484780C9484780C9484780C94847870
:10F030000C9484780C9484780C9484780C94847860
:10F040000C9484780C9484780C9484780C94847850
:10F050000C9484780C9484780C9484780C94847840
:10F060000C9484780C9484780C9484780C94847830
:10F070000C9484780C9484780C94847804030904A8
:10F080001C037700770077002E006600690073008C
:10F09000630068006C002E00640065000E035500DC
:10F0A0005300420061007300700012011001FF0064
:10F0B0000008C016DC05020101020001090212006D
:10F0C00001010080FA090400000000000000112482
:10F0D0001FBECFEFD0E1DEBFCDBF11E0A0E0B1E0B9
:10F0E000E4E0F8EF02C005900D92A630B107D9F721
:10F0F00011E0A6E0B1E001C01D92AD33B107E1F728
:10F100000E94C0790C94007C0C940078A82FB92F31
:10F1100080E090E041E050EA609530E009C02D9138
:10F1200082279795879510F084279527305EC8F33E
:10F130006F5FA8F30895EADF8D939D930895CF93B1
:10F14000CFB7CF93DF93C395199BE9F7199B0BC0FA
:10F15000199B09C0199B07C0199B05C0199B03C0C7
:10F16000199B01C089C06F93C0912001DD27C95D43
:10F17000DE4F2F9365E5199B03C02F916F91E6CF6A
:10F180000F931F934F9320E040E15F9303B106700C
:10F1900001FB27F93F9350E03BE039C01670406413
:10F1A0002F77012F5F5F1EC0406813B116702F7755
:10F1B00052501FC0406403B12F770670D1F15F5FDA
:10F1C00000C023C0406213B12F77167091F15F5FCA
:10F1D00000C025C006701027515012F45D5F00007A
:10F1E000115027952C3F13B1C8F616700127015016
:10F1F00027952C3FC8F64227499303B10670102784
:10F200004F73115027952C3FA8F64695469513B19C
:10F21000167079F00127015027952C3F98F66B5A0C
:10F2200060F3315003B1B0F600C014E01CBB0027FE
:10F2300017C03B503195C31BD04014E01CBB088164
:10F24000033CF9F00B34E9F020911E011981110FF4
:10F250001213EDCF093651F10D3211F0013E39F79D
:10F26000009325013F915F914F911F910F912F9135
:10F270006F91CCB3C2FD67CFDF91CF91CFBFCF915C
:10F28000189520912501222369F310912301112360
:10F2900039F534303AF13093230120931F01109156
:10F2A00020013BE0311B309320011CC00091230161
:10F2B0000130B4F40AE53091000134FD14C000932C
:10F2C0000001C3E1D1E013C0052710E000C0000039
:10F2D00005B91AC0052710E0221F1DC010E021C08B
:10F2E0004AE502C032ED432FC4E1D0E032E014B170
:10F2F0001660299A05B114B956E020E865E320FFAD
:10F30000052705B9279517951C3FF0F66695B8F7C0
:10F31000B1F720FF052705B9279517951C3FD0F6B3
:10F320002795179517FF052700001C3F05B9B0F674
:10F3300029913A9519F7097F10912401110FC651AF
:10F34000D04005B911F010931E0114E01CBB0260FF
:10F3500014B1197F402F497F54E05A95F1F705B950
:10F3600014B945B97FCF15B8F8941DBA1092690049
:10F3700081E085BF15BEE0911101F0911201099560
:10F380002F923F924F925F926F927F928F929F92B5
:10F39000AF92BF92CF92DF92EF92FF920F931F93A3
:10F3A000CF93DF9314BE88E10FB6F894809360008A
:10F3B000109260000FBE2E9A04B601FE09C214BE60
:10F3C00081E085BF82E085BF1E9902C280916900FD
:10F3D000806380936900EA9A1E9BFECF21987894FF
:10F3E0005CE0E52EF12C4CE9A42E40EFB42E30E881
:10F3F000832E30EF932E2CE7622E20EF722E9CEBA3
:10F40000492E90EF592E8AEA282E80EF382E00914F
:10F410002301035007FD47C180912001E701C81B6C
:10F42000D109C95DDE4F80911F018D3209F0C1C045
:10F43000083009F036C123EC209313013AE53093EC
:10F440000001109207014881842F8076398188233A
:10F4500009F448C08DE091E090932201809321014E
:10F460003330D9F49B818C812A81203339F4837025
:10F47000E82FF0E0EE5FFE4F80810BC0203A19F4D8
:10F480000E94EA7B06C0203C19F46D810E94F27B49
:10F4900080E08093100124E082C03530F9F0832FA2
:10F4A00084508630A8F48A819B81909309018093CF
:10F4B00008013930A9F02E8120930A018D818270D4
:10F4C00080930B0130930C0147FD65C02FEF63C0A3
:10F4D000323031F491E09093060102C021E05FC028
:10F4E00020E05DC08A8110921C01332331F4109218
:10F4F0001D018CE191E022E049C0353019F4809380
:10F5000024013AC0363079F59B81913029F430924C
:10F5100022012092210106C0923031F45092220142
:10F520004092210122E11BC09330C1F4882331F4C1
:10F53000709222016092210124E011C0813031F4E7
:10F5400090922201809221012CE109C0823031F495
:10F55000B0922201A09221012EE001C020E0E0E45F
:10F56000E09307011CC0383059F0393019F480930A
:10F57000260102C03A3039F08CE191E020E006C06B
:10F5800086E291E002C08CE191E021E090932201BB
:10F590008093210104C080E88093070107C08F8118
:10F5A000882321F48E81821708F4282F20930101EB
:10F5B00078C08091070187FF74C080910A0180178D
:10F5C00008F4082F801B80930A0111E0811110E0DC
:10F5D00080910C01873010F420E05CC06E010EC0F9
:10F5E0002091080130910901C90101969093090108
:10F5F000809308016991C9010E94F27B9E012C1938
:10F60000201770F34AC080910801882369F4F894A8
:10F61000E0910801F091090133E030935700E8953B
:10F62000789407B600FCFDCF2E5FF894E0910801B6
:10F63000F09109018991999131E00C0130935700C3
:10F64000E89511247894809108019091090102961F
:10F650009093090180930801882341F01123D1F090
:10F660002017C0F080910B018823A1F0F894E0915D
:10F670000801F0910901329785E080935700E895E1
:10F68000789407B600FCFDCFF89491E19093570071
:10F69000E8957894201708F4B6CF112311F0109252
:10F6A0000101109223018091000184FF82C08091AA
:10F6B00001018F3F09F47DC0082F893008F008E070
:10F6C000801B809301018091130198E88927809322
:10F6D0001301002309F45BC09091070197FF2CC030
:10F6E00080910A01801708F4082F801B80930A017B
:10F6F000C02EDD24E4E1F1E0CE0EDF1EEF0118C0E4
:10F7000020910C018091080190910901273018F097
:10F710000E94EA7B02C0FC0184918883219680913B
:10F7200008019091090101969093090180930801C5
:10F73000CC15DD0529F729C0209121013091220146
:10F74000802F815096FF0EC090E0AC014B5E5E4F63
:10F75000F901A4E1B1E064916D933196A417B50766
:10F76000D1F70CC0D90190E0AC014B5E5E4FE4E1F3
:10F77000F1E06D916193E417F507D9F70196820FD7
:10F78000931F9093220180932101093060F484E15A
:10F7900091E0602F0E949B780C5F0C3041F08FEF5E
:10F7A0008093010104C08FEF809301010EE100936B
:10F7B000000184E193B1967031F48150D9F7109231
:10F7C000240110921E0180910601882309F41FCEA6
:10F7D0000E94B379F999FECF92BD81BDF89A99271D
:10F7E00080B50895262FF999FECF1FBA92BD81BD2D
:10F7F00020BD0FB6F894FA9AF99A0FBE01960895B3
:04F80000F894FFCFAA
:06F804005AFF1E960A00E7
:040000030000F00009
:00000001FF
