:10F000000C943E780C9450780C9450780C94507872
:10F010000C9450780C9450780C9450780C94507850
:10F020000C9450780C9450780C9450780C94507840
:10F030000C9450780C9450780C9450780C94507830
:10F040000C9450780C9450780C9450780C94507820
:10F050000C9450780C9450780C9450780C94507810
:10F060000C9450780C9450780C9450780C94507800
:10F070000C9450780C9450780C94507811241FBE46
:10F08000CFEFD0E1DEBFCDBF12E0A0E0B1E001C024
:10F090001D92A930B107E1F70E94D5790C94637CE9
:10F0A0000C9400781092000185B191E0892785B910
:10F0B0000895282F332727FD3095207F3070359510
:10F0C00027953595279535952795359527952A3098
:10F0D000A4F0295A8F708A3074F0895A9091C00038
:10F0E00095FFFCCF2093C6009091C00095FFFCCF08
:10F0F0008093C6000895805DF1CF205DEBCF9091A5
:10F10000C00095FFFCCF8093C6000895289880E04A
:10F1100090E0A0E0B0E031E02091C00027FD18C0F1
:10F120000196A11DB11D813029E092072DE3A207B0
:10F1300020E0B20788F31092000185B1832785B9DA
:10F1400080E090E0A0E0B0E02091C00027FFE8CF91
:10F15000289A8091C60008950F931F930E94867885
:10F16000182F8091C00085FFFCCF012F1093C6009F
:10F170000E9486789091C00095FFFCCF982F8093D5
:10F18000C60011367CF0012F075581368CF4803390
:10F1900014F0982F9053802F8295807F890F1F91B4
:10F1A0000F91089510338CF3012F005381367CF3B7
:10F1B000982F9755802F8295807F890F1F910F91EF
:10F1C0000895882351F020E09091C00097FFFCCF74
:10F1D0009091C6002F5F2817B8F308951F93182F3A
:10F1E0000E948678803249F0809100018F5F809381
:10F1F00000018530C1F01F9108958091C00085FF06
:10F20000FCCF84E18093C6008091C00085FFFCCFD5
:10F210001093C6008091C00085FFFCCF80E18093F1
:10F22000C6001F9108951092000185B191E08927D1
:10F2300085B91F9108950E948678803241F08091AF
:10F2400000018F5F80930001853081F008958091E7
:10F25000C00085FFFCCF84E18093C6008091C00090
:10F2600085FFFCCF80E18093C600089510920001D5
:10F2700085B191E0892785B90895DF93CF9300D0B8
:10F2800000D0CDB7DEB7882309F088C041E050E058
:10F2900020E030E0289A19821A821B821C82898120
:10F2A0009A81AB81BC8180386EE3960760E0A60747
:10F2B00060E0B607B8F489819A81AB81BC81019680
:10F2C000A11DB11D89839A83AB83BC8389819A81F7
:10F2D000AB81BC8180386EE3960760E0A60760E0F2
:10F2E000B60748F3289819821A821B821C828981EA
:10F2F0009A81AB81BC8180306AEF960760E0A607F7
:10F3000060E0B607B8F489819A81AB81BC8101962F
:10F31000A11DB11D89839A83AB83BC8389819A81A6
:10F32000AB81BC8180306AEF960760E0A60760E0A1
:10F33000B60748F32F5F3F4F241735070CF4AACFC9
:10F3400019821A821B821C8289819A81AB81BC81BD
:10F35000803021E7920722E0A20720E0B207B8F44C
:10F3600089819A81AB81BC810196A11DB11D8983E0
:10F370009A83AB83BC8389819A81AB81BC818030C5
:10F3800061E7960762E0A60760E0B60748F30F90D2
:10F390000F900F900F90CF91DF910895482F50E07C
:10F3A000141615060CF474CFCBCF9F92AF92BF9278
:10F3B000CF92DF92EF92FF920F931F93CF93DF9341
:10F3C000000094B714BE8091600088618093600053
:10F3D0001092600091FF71C226982E9A2E9A2E9A52
:10F3E0002E9A2E9A2E9A2E9A2E9A2E9A2E9A2E9ADD
:10F3F0001E9956C280E18093C4001092C50088E136
:10F400008093C10086E08093C2005098589A209A59
:10F4100083E00E943D7981E00E943D799924939494
:10F4200074E1A72E60E1B62E0E9486788033D9F170
:10F43000813309F448C0803409F4A4C0813409F44C
:10F4400090C0823499F1853409F47FC0803559F138
:10F45000813509F41CC1823531F18535E1F08635FD
:10F4600009F49CC0843609F4A4C0843709F43AC175
:10F47000853709F412C1863709F480C080910001F4
:10F480008F5F80930001853079F61092000185B17D
:10F49000892585B9C9CF0E948678809303010E948F
:10F4A0008678809304010E941B79BECF90E0809102
:10F4B000C00087FFFCCF8091C6009F5F9431B9F7F1
:10F4C0000E941B79B1CF0E9486788032B9F6809174
:10F4D000C00085FFFCCFA092C6008091C00085FFD0
:10F4E000FCCF81E48093C6008091C00085FFFCCFF3
:10F4F000A6E5A093C6008091C00085FFFCCFB2E5D1
:10F50000B093C6008091C00085FFFCCFE0E2E0939D
:10F51000C6008091C00085FFFCCFF9E4F093C600DF
:10F520008091C00085FFFCCF83E58093C600809169
:10F53000C00085FFFCCFA0E5A093C6008091C0006D
:10F5400085FFFCCFB092C6006FCF95E08091C000E0
:10F5500087FFFCCF8091C6009150C1F70E941B79B4
:10F5600063CF0E948678803809F41CC1813809F481
:10F5700011C1823809F412C1883961F080E00E941B
:10F58000EE7852CF0E948678863808F48CCF0E949D
:10F59000867889CF83E00E94EE7846CF90E0809114
:10F5A000C00087FFFCCF8091C6009F5F9430B9F701
:10F5B000E5CF0E948678809306020E948678809329
:10F5C0000502809108028E7F809308020E9486784F
:10F5D000853409F46CC155E0C52E51E0D52EF601F5
:10F5E0001192B1E0E538FB07D9F7809105029091BF
:10F5F00006020097A1F045E0E42E41E0F42E00E081
:10F6000010E00E948678F70181937F010F5F1F4F02
:10F6100080910502909106020817190790F30E9445
:10F620008678803209F02ACF8091080280FFD5C009
:10F6300080910502909106020097F1F0E09103019C
:10F64000F09104019F0140E050E0F999FECF32BDF6
:10F6500021BDD6012D916D0120BDFA9AF99A9F0125
:10F660002F5F3F4FF90130930401209303014F5F57
:10F670005F4F4817590748F38091C00085FFFCCFC2
:10F68000A092C6008091C00085FFFCCF5BCF0E9496
:10F690001B7988E080936000FFCF0E9486788032DB
:10F6A00009F0ECCE8091C00085FFFCCFA092C6008F
:10F6B0008091C00085FFFCCFBEE1B093C600809171
:10F6C000C00085FFFCCFE6E9E093C6008091C00052
:10F6D00085FFFCCFFAE0F093C6008091C00085FF63
:10F6E000FCCF30CF0E948678809306020E948678F5
:10F6F000809305020E948678853409F468C0809161
:10F7000008028E7F8093080280910301909104018A
:10F71000880F991F90930401809303010E948678BB
:10F72000803209F081CE8091C00085FFFCCFA0928D
:10F73000C60020E030E080910502909106020DC0E5
:10F7400041FF39C0E0910301F09104013196F0933B
:10F750000401E09303012F5F3F4F2817390730F56D
:10F760004091080240FFECCFF999FECFE0910301F0
:10F77000F0910401F2BDE1BDF89A40B55091C0008E
:10F7800055FFFCCF4093C6003196F0930401E093FF
:10F790000301E1CF81E00E94EE7846CE80E10E9435
:10F7A000EE7842CE82E00E94EE783ECE8091C0009C
:10F7B00085FFFCCFC7CEE0910301F0910401449195
:10F7C0005091C00055FFFCCF4093C600BFCF809141
:10F7D0000802816080930802A1CF8091030190917B
:10F7E0000401880F991F9093040180930301809175
:10F7F000050280FF09C080910502909106020196E2
:10F800009093060280930502F999FECF1127E091AB
:10F810000301F0910401C5E0D1E0809105029091CF
:10F820000602103091F40091570001700130D9F3B5
:10F8300003E000935700E8950091570001700130F4
:10F84000D9F301E100935700E895099019900091D0
:10F85000570001700130D9F301E000935700E8959B
:10F860001395103898F0112700915700017001305E
:10F87000D9F305E000935700E89500915700017017
:10F880000130D9F301E100935700E89532960297D1
:10F8900009F0C7CF103011F00296E5CF1124ECCE5D
:10F8A00015B8E0910101F09102010995A3CD809175
:10F8B00008028160809308028ECEE0910101F091F0
:0AF8C0000201099589CDF894FFCFED
:040000030000F00009
:00000001FF
