:10F000000C943E780C9450780C9450780C94507872
:10F010000C9450780C9450780C9450780C94507850
:10F020000C9450780C9450780C9450780C94507840
:10F030000C9450780C9450780C9450780C94507830
:10F040000C9450780C9450780C9450780C94507820
:10F050000C9450780C9450780C9450780C94507810
:10F060000C9450780C9450780C9450780C94507800
:10F070000C9450780C9450780C94507811241FBE46
:10F08000CFEFD0E1DEBFCDBF12E0A0E0B1E001C024
:10F090001D92AB30B107E1F70E94D1790C94487C06
:10F0A0000C940078282F332727FD3095207F30706F
:10F0B0003595279535952795359527953595279538
:10F0C0002A30A4F0295A8F708A3074F0895A9091AE
:10F0D000C00095FFFCCF2093C6009091C00095FF23
:10F0E000FCCF8093C6000895805DF1CF205DEBCF0B
:10F0F0009091C00095FFFCCF8093C6000895EF92D9
:10F10000FF920F931F932898EE24FF24870180918C
:10F11000C00087FD17C00894E11CF11C011D111DE2
:10F1200081E0E81689E0F8068DE3080780E018071B
:10F1300070F3E0910101F091020109958091C00006
:10F1400087FFE9CF289A8091C6001F910F91FF9009
:10F15000EF9008950F931F930E947F78182F80914E
:10F16000C00085FFFCCF012F1093C6000E947F785E
:10F170009091C00095FFFCCF982F8093C600113668
:10F180007CF0012F075581368CF4803314F0982FD2
:10F190009053802F8295807F890F1F910F91089542
:10F1A00010338CF3012F005381367CF3982F975541
:10F1B000802F8295807F890F1F910F91089588235A
:10F1C00051F020E09091C00097FFFCCF9091C600D5
:10F1D0002F5F2817B8F308951F93182F0E947F7888
:10F1E000803249F0809100018F5F8093000185306B
:10F1F000C1F01F9108958091C00085FFFCCF84E18C
:10F200008093C6008091C00085FFFCCF1093C6009C
:10F210008091C00085FFFCCF80E18093C6001F91E4
:10F220000895E0910101F091020109951F9108955F
:10F230000E947F78803241F0809100018F5F80933F
:10F240000001853081F008958091C00085FFFCCFDA
:10F2500084E18093C6008091C00085FFFCCF80E1EF
:10F260008093C6000895E0910101F0910201099593
:10F270000895DF93CF9300D000D0CDB7DEB78823B9
:10F2800009F088C041E050E020E030E0289A19827F
:10F290001A821B821C8289819A81AB81BC81803851
:10F2A0006EE3960760E0A60760E0B607B8F48981D0
:10F2B0009A81AB81BC810196A11DB11D89839A837E
:10F2C000AB83BC8389819A81AB81BC8180386EE33A
:10F2D000960760E0A60760E0B60748F32898198211
:10F2E0001A821B821C8289819A81AB81BC81803009
:10F2F0006AEF960760E0A60760E0B607B8F4898178
:10F300009A81AB81BC810196A11DB11D89839A832D
:10F31000AB83BC8389819A81AB81BC8180306AEFE9
:10F32000960760E0A60760E0B60748F32F5F3F4FFF
:10F33000241735070CF4AACF19821A821B821C826B
:10F3400089819A81AB81BC81803021E7920722E0DC
:10F35000A20720E0B207B8F489819A81AB81BC8111
:10F360000196A11DB11D89839A83AB83BC838981DA
:10F370009A81AB81BC81803061E7960762E0A60785
:10F3800060E0B60748F30F900F900F900F90CF9169
:10F39000DF910895482F50E0141615060CF474CF31
:10F3A000CBCFAF92BF92CF92DF92EF92FF920F93AB
:10F3B0001F93CF93DF93000094B714BE8091600039
:10F3C0008861809360001092600091FFDBC18CE047
:10F3D0008093C4001092C50088E18093C10086E04C
:10F3E0008093C2005098589A209A83E00E943979FD
:10F3F00081E00E94397974E1A72E60E1B62E0E9467
:10F400007F788033D9F1813309F448C0803409F41E
:10F41000A4C0813409F490C0823499F1853409F490
:10F420007FC0803559F1813509F4A6C1823531F1AB
:10F430008535E1F0863509F49CC0843609F4A4C012
:10F44000843709F40FC1853709F471C1863709F48F
:10F4500080C0809100018F5F80930001853079F634
:10F46000E0910101F09102010995C9CF0E947F78D6
:10F47000809305010E947F78809306010E9418798D
:10F48000BECF90E08091C00087FFFCCF8091C60086
:10F490009F5F9431B9F70E941879B1CF0E947F78AD
:10F4A0008032B9F68091C00085FFFCCFA092C600E3
:10F4B0008091C00085FFFCCF81E48093C6008091DD
:10F4C000C00085FFFCCFA6E5A093C6008091C000D8
:10F4D00085FFFCCFB2E5B093C6008091C00085FFE8
:10F4E000FCCFE0E2E093C6008091C00085FFFCCF36
:10F4F000F9E4F093C6008091C00085FFFCCF83E55E
:10F500008093C6008091C00085FFFCCFA0E5A0934A
:10F51000C6008091C00085FFFCCFB092C6006FCFBF
:10F5200095E08091C00087FFFCCF8091C60091508C
:10F53000C1F70E94187963CF0E947F78803809F460
:10F54000EAC0813809F4EFC0823809F4E8C088398C
:10F5500061F080E00E94EC7852CF0E947F7886387C
:10F5600008F48CCF0E947F7889CF83E00E94EC78EA
:10F5700046CF90E08091C00087FFFCCF8091C6000D
:10F580009F5F9430B9F7E5CF0E947F78809308029F
:10F590000E947F788093070280910A028E7F809379
:10F5A0000A020E947F78853409F409C157E0C52E0C
:10F5B00051E0D52EF6011192B1E0E738FB07D9F7FB
:10F5C00080910702909108020097A1F047E0E42E95
:10F5D00041E0F42E00E010E00E947F78F701819373
:10F5E0007F010F5F1F4F809107029091080208175B
:10F5F000190790F30E947F78803209F02ACF80911A
:10F600000A0280FFE2C080910702909108020097F1
:10F61000F1F0E0910501F09106019F0140E050E01A
:10F62000F999FECF32BD21BDD6012D916D0120BDCE
:10F63000FA9AF99A9F012F5F3F4FF9013093060123
:10F64000209305014F5F5F4F4817590748F380919A
:10F65000C00085FFFCCFA092C6008091C00085FF4E
:10F66000FCCF5BCF0E947F78809308020E947F7856
:10F67000809307020E947F78853409F49AC08091B4
:10F680000A028E7F80930A02809105019091060103
:10F69000880F991F90930601809305010E947F783F
:10F6A000803209F0ACCE8091C00085FFFCCFA092E3
:10F6B000C60020E030E080910702909108020DC062
:10F6C00041FF6BC0E0910501F09106013196F09386
:10F6D0000601E09305012F5F3F4F2817390708F017
:10F6E00057C040910A0240FFEBCFF999FECFE0915D
:10F6F0000501F0910601F2BDE1BDF89A40B55091C7
:10F70000C00055FFFCCF4093C6003196F093060130
:10F71000E0930501E0CF82E00E94EC7870CE80E1BA
:10F720000E94EC786CCE81E00E94EC7868CE0E945A
:10F730007F78803209F08DCE8091C00085FFFCCFAC
:10F74000A092C6008091C00085FFFCCFBEE1B093BF
:10F75000C6008091C00085FFFCCFE6E9E093C600BB
:10F760008091C00085FFFCCFFAE0F093C600809145
:10F77000C00085FFFCCFD1CE0E94187988E080932D
:10F780006000FFCFE0910301F091040109951FCEC5
:10F790008091C00085FFFCCFC0CEE0910501F091C3
:10F7A000060144915091C00055FFFCCF4093C60024
:10F7B0008DCF80910A02816080930A026FCF809181
:10F7C0000A02816080930A02F1CE80910501909136
:10F7D0000601880F991F909306018093050180917F
:10F7E000070280FF09C080910702909108020196EC
:10F7F0009093080280930702F999FECF1127E091B8
:10F800000501F0910601C7E0D1E0809107029091D7
:10F810000802103091F40091570001700130D9F3C3
:10F8200003E000935700E895009157000170013004
:10F83000D9F301E100935700E895099019900091E0
:10F84000570001700130D9F301E000935700E895AB
:10F850001395103898F0112700915700017001306E
:10F86000D9F305E000935700E89500915700017027
:10F870000130D9F301E100935700E89532960297E1
:10F8800009F0C7CF103011F00296E5CF1124DFCE7A
:04F89000F894FFCF1A
:040000030000F00009
:00000001FF
