:100000000C94E2030C94FF030C94FF030C94FF0385
:100010000C94FF030C94FF030C94FF030C94FF0358
:100020000C94FF030C94FF030C94FF030C94FF0348
:100030000C94C5180C94CF0D0C94FF030C946C1900
:100040000C94FB0E0C94F10E0C94FF030C94FF0324
:100050000C944A170C94FF030C94F8160C94FF03AD
:100060000C945C110C94FF030C94FF030C94FF039D
:100070000C94E3170C94FF030C949117E114EB1408
:10008000F71403150F151B15271533153F154B15C1
:10009000571563156F157B15871593159F15A315B8
:1000A000A715AB15AF15B315B715BB15BF15C31500
:1000B000C715CB15CF15D315D615D915DC15DF15FA
:1000C000E215E615EA1507634236B79BD8A71A3939
:1000D000685618AEBAAB558C1D3CB7CC5763BD6D96
:1000E000EDFD753EF6177231BF000000803F08003D
:1000F0000000BE922449123EABAAAA2ABECDCCCCA7
:100100004C3E00000080BEABAAAAAA3E0000000040
:10011000BF000000803F0000000000084178D3BB12
:100120004387D1133D190E3CC3BD4282AD2B3E68BF
:10013000EC8276BED98FE1A93E4C80EFFFBE01C4B0
:10014000FF7F3F00000000000D0A002C20723D20C0
:10015000002C206C3D20002C20623D20006D6F742F
:100160006F722073706565643A20663D20000D0A49
:10017000007468726F74746C655F636D643A20001C
:100180000D0A007961775F6D6F743A20000D0A00E7
:10019000202B20007961775F6779726F5F76616CE1
:1001A0003A20000D0A0070697463685F6D6F743ADD
:1001B00020000D0A00726F6C6C5F6D6F743A200046
:1001C0000D0A00202B20007468726F74746C655FD8
:1001D00070706D3A20000D0A00202B2000796177A5
:1001E0005F70706D3A20000D0A00202B20007069AE
:1001F0007463685F70706D3A20000D0A00202B2038
:1002000000726F6C6C5F70706D3A20000D0A0020F8
:100210002B20003A200070706D20000D0A00202D68
:1002200020003A200073656E736F72200033362C05
:100230002075696E7433325F7420282564292C2060
:10024000627574746F6E5F686F6C645F646F776EF5
:100250003A2025640D0A0033352C20696E74333240
:100260005F7420282564292C2066696C7465725F90
:10027000773A2025640D0A0033342C2075696E749A
:10028000385F7420282564292C206779726F5F6D90
:10029000697363616C6962726174655F74687265C9
:1002A00073686F6C643A2025640D0A0033332C2088
:1002B00075696E74385F7420282564292C20756E4A
:1002C0006C6F636B5F70706D5F6368616E3A202561
:1002D000640D0A0033322C2075696E74385F742007
:1002E000282564292C20726F6C6C5F70706D5F63C1
:1002F00068616E3A2025640D0A0033312C2075693F
:100300006E74385F7420282564292C20706974630A
:10031000685F70706D5F6368616E3A2025640D0AD6
:100320000033302C2075696E74385F742028256482
:10033000292C207468726F74746C655F70706D5FC7
:100340006368616E3A2025640D0A0032392C2075ED
:10035000696E74385F7420282564292C20796177B0
:100360005F70706D5F6368616E3A2025640D0A00EE
:1003700032382C20696E7433325F7420282564294A
:100380002C207961775F6B643A2025640D0A003276
:10039000372C20696E7433325F7420282564292C31
:1003A000207961775F6B693A2025640D0A00323647
:1003B0002C20696E7433325F7420282564292C2028
:1003C0007961775F6B703A2025640D0A0032352C15
:1003D00020696E7433325F7420282564292C2070C4
:1003E000697463685F726174655F6B643A20256449
:1003F0000D0A0032342C20696E7433325F74202869
:100400002564292C2070697463685F726174655F6C
:100410006B693A2025640D0A0032332C20696E7412
:1004200033325F7420282564292C20706974636836
:100430005F726174655F6B703A2025640D0A00324B
:10044000322C20696E7433325F7420282564292C85
:1004500020726F6C6C5F726174655F6B643A20250B
:10046000640D0A0032312C20696E7433325F7420BF
:10047000282564292C20726F6C6C5F726174655F33
:100480006B693A2025640D0A0032302C20696E74A5
:1004900033325F7420282564292C20726F6C6C5FC6
:1004A000726174655F6B703A2025640D0A00313902
:1004B0002C20696E7433325F7420282564292C2027
:1004C0007468726F74746C655F686F7665723A20D9
:1004D00025640D0A0031382C20696E7433325F7444
:1004E00020282564292C207468726F74746C655FF1
:1004F00070706D5F7363616C653A2025640D0A004E
:1005000031372C20696E7433325F742028256429BA
:100510002C207961775F6779726F5F7363616C65B7
:100520003A2025640D0A0031362C20696E7433326E
:100530005F7420282564292C2070697463685F67C4
:1005400079726F5F7363616C653A2025640D0A00F0
:1005500031352C20696E7433325F7420282564296C
:100560002C20726F6C6C5F6779726F5F7363616C64
:10057000653A2025640D0A0031342C20696E7433ED
:10058000325F7420282564292C207468726F74747B
:100590006C655F70706D5F63656E7465723A20257F
:1005A000640D0A0031332C20696E7433325F74207D
:1005B000282564292C207961775F70706D5F6365F1
:1005C0006E7465723A2025640D0A0031322C206960
:1005D0006E7433325F7420282564292C207069746E
:1005E00063685F70706D5F63656E7465723A202535
:1005F000640D0A0031312C20696E7433325F74202F
:10060000282564292C20726F6C6C5F70706D5F639D
:10061000656E7465723A2025640D0A0031302C2015
:10062000696E7433325F7420282564292C20796127
:10063000775F6779726F5F63656E7465723A2025C4
:10064000640D0A00392C20696E7433325F742028DF
:100650002564292C2070697463685F6779726F5F05
:1006600063656E7465723A2025640D0A00382C208B
:10067000696E7433325F7420282564292C20726FD0
:100680006C6C5F6779726F5F63656E7465723A2038
:1006900025640D0A00372C20696E7433325F742094
:1006A000282564292C20725F6D6F745F7363616C01
:1006B000653A2025640D0A00362C20696E743332A9
:1006C0005F7420282564292C206C5F6D6F745F7324
:1006D00063616C653A2025640D0A00352C20696E33
:1006E0007433325F7420282564292C20625F6D6F7B
:1006F000745F7363616C653A2025640D0A00342CC5
:1007000020696E7433325F7420282564292C20669A
:100710005F6D6F745F7363616C653A2025640D0AC9
:1007200000332C20696E7433325F742028256429CD
:100730002C20725F6D6F745F626F743A2025640DB8
:100740000A00322C20696E7433325F7420282564CD
:10075000292C206C5F6D6F745F626F743A20256482
:100760000D0A00312C20696E7433325F7420282505
:1007700064292C20625F6D6F745F626F743A20256C
:10078000640D0A00302C20696E7433325F742028A7
:100790002564292C20665F6D6F745F626F743A2048
:1007A00025640D0A000D0A646F6E650D0A00203D78
:1007B0002000616464723A200073657474696E6726
:1007C0000D0A000011241FBECFEFD0E1DEBFCDBF68
:1007D00011E0A0E0B1E0EEEAF3E502C005900D9271
:1007E000AA33B107D9F712E0AAE3B1E001C01D9224
:1007F000AD3BB107E1F70E9499060C94D5290C9402
:100800000000A0E3B0E0E7E0F4E00C948C24A8E062
:100810004E010894811C911CF401BA2F1192BA95D3
:10082000E9F729833A834B835C836D837E838F83CF
:100830009887CE010996FC011192AA95E9F7A9863D
:10084000BA86CB86DC86ED86FE860F87188B2981DB
:100850003A814B815C812DA73EA74FA758AB790108
:100860008A018FEF9FEFA0E0B0E0E822F9220A238F
:100870001B231A014424552429853A854B855C8520
:1008800029A73AA74BA75CA759016A01A822B92258
:10089000CA22DB223A0188249924C601B501A801A5
:1008A00097010E94FD236DA37EA38FA398A7C40187
:1008B000B3010E94FD2369A37AA38BA39CA3C60165
:1008C000B501A20191010E94FD237B018C01C401AD
:1008D000B3010E94FD235B016C0189A19AA1ABA128
:1008E000BCA18E0D9F1DA01FB11F89A39AA3ABA30E
:1008F000BCA32DA13EA14FA158A5CA01AA27BB2781
:1009000029A13AA14BA15CA1280F391F4A1F5B1FE7
:1009100029A33AA34BA35CA32E153F05400751071B
:1009200040F480E090E0A1E0B0E0A80EB91ECA1E3D
:10093000DB1E89A19AA1ABA1BCA19D01442755272B
:100940002A0D3B1D4C1D5D1D2D8F3E8F4F8F58A3D3
:100950006C01BB24AA248DA19EA1AFA1B8A5A07053
:10096000B070A80EB91ECA1EDB1EA98EBA8ECB8E21
:10097000DC8E9A8C8B8C7C8C9E8D6F8D78A1FE0189
:10098000719688E0DF011D928A95E9F72D8B9E8B89
:100990006F8B788F2D853E854F8558896DA57EA5F7
:1009A0008FA598A90E94FD237B018C012D813E819A
:1009B0004F81588569A57AA58BA59CA50E94FD232A
:1009C000E60EF71E081F191F6D897E898F89988D85
:1009D0006E0D7F1D801F911F6D8B7E8B8F8B988F6F
:1009E000EE892A2D392D482D572D7E2F8F89988DF0
:1009F000E096E2E10C94A824469A479A3E9A3F9AE0
:100A00002C9A24982B9A2A9A299A289A23982298E1
:100A100021982098439A3B9842983A9A45983D9A53
:100A200008954698479A80E060E27EE40E949C0E1A
:100A300081E060E27EE40E949C0E82E060E27EE45F
:100A40000E949C0E83E060E27EE40E949C0E84E0A3
:100A500060E27EE40E949C0E85E060E27EE40E94FB
:100A60009C0E87E491E00E94011F0E94960E88234D
:100A7000C1F30E947D0EF5CF81E00E94410F2091CD
:100A80006F01309170014091710150917201E091BC
:100A9000C0012E0F311D411D511D26173707480774
:100AA00059070CF470C081E00E94410F20916F0142
:100AB000309170014091710150917201E091C0013B
:100AC0002E1B3109410951096217730784079507E5
:100AD0000CF459C082E00E94410F209167013091CF
:100AE00068014091690150916A01E091C0012E0FA7
:100AF000311D411D511D26173707480759070CF4B2
:100B000042C082E00E94410F20916701309168014C
:100B10004091690150916A01E091C0012E1B310999
:100B200041095109621773078407950764F180E052
:100B30000E94410F20916B0130916C0140916D0139
:100B400050916E01E091C0012E0F311D411D511DCC
:100B50002617370748075907B4F080E00E94410F75
:100B600020916B0130916C0140916D0150916E01AB
:100B7000E091C0012E1B3109410951096217730729
:100B800084079507A4F4479A24EF31E0469880E162
:100B900097E2F9013197F1F70197D9F7469A88E87A
:100BA00093E1F9013197F1F70197D9F7EFCF089564
:100BB000CF92DF92EF92FF920F931F93CF93DF9329
:100BC00080E00E94990E80E060E27EE40E949C0E2C
:100BD00081E060E27EE40E949C0E82E060E27EE4BE
:100BE0000E949C0E83E060E27EE40E949C0E84E002
:100BF00060E27EE40E949C0E85E060E27EE40E945A
:100C00009C0E80E00E9486198FEF0E94861988232F
:100C1000D9F3CC24DD24C0E0D0E087E491E00E9449
:100C2000011F89E1C816D1041CF44798469802C0F8
:100C3000479A469A8FEF0E948E198823C1F18FEF51
:100C40000E948619882301F18091BF010E949619A4
:100C50007B018C018091BF010E94D719E60EF71E1F
:100C6000081F191F88EAE81681E6F80680E00807E1
:100C700080E0180728F01C9B03C0C0E0D0E001C052
:100C8000219680E00E9486192091C5013091C6010D
:100C90004091C7015091C801CE01AA2797FDA095A8
:100CA000BA2F82179307A407B50720F012C0469801
:100CB000C0E0D0E00E94960E882309F4AECFC601B2
:100CC000019662E370E00E943C246C010E947D0E5C
:100CD000A4CFDF91CF911F910F91FF90EF90DF9004
:100CE000CF9008951F9310E0812F0E94C81960567D
:100CF0007D4680409040615A7F4080409040A0F007
:100D0000479A24EF31E0469880E197E2F901319764
:100D1000F1F70197D9F7469A88E893E1F9013197FD
:100D2000F1F70197D9F7EFCF1F5F1630E9F61F9162
:100D300008952F923F924F925F926F927F928F927F
:100D40009F92AF92BF92CF92DF92EF92FF920F935A
:100D50001F93DF93CF93CDB7DEB7CD55D0400FB6FD
:100D6000F894DEBF0FBECDBF0E94FC0487E491E083
:100D70000E9415141A9904C087E491E00E94641639
:100D800078940E9434200E94050F0E94171B0E9435
:100D9000B20E0E94D90E4698479880E00E948E19A4
:100DA0008FEF0E948E198823D9F380E197E224EF18
:100DB00031E0F9013197F1F70197D9F782E30E9409
:100DC000E6190E9472061B9B03C00E94D8052FC023
:100DD00080E00E94990E80E060E27EE40E949C0E1A
:100DE00081E060E27EE40E949C0E82E060E27EE4AC
:100DF0000E949C0E83E060E27EE40E949C0E84E0F0
:100E000060E27EE40E949C0E85E060E27EE40E9447
:100E10009C0E00E010E00E94960E882311F00E94C4
:100E20007D0E0F5F1F4F21E0043F1207A1F780E006
:100E30000E9486198FEF0E9486198823D9F388E2D1
:100E40000E94580F0E943C05CE0186960E94821394
:100E5000CE01C2960E948213CE01CE960E948213CA
:100E6000469AA6E02A2EA1E03A2E87E491E00E945D
:100E7000011F89838981833009F019C1EE24FF2481
:100E8000870100D000D000D0EDB7FEB73196ADB7E6
:100E9000BEB712963C922E92119725E232E0338330
:100EA0002283F582E4820E9422278DB79EB70696A0
:100EB0000FB6F8949EBF0FBE8DBF81E0B801A701A9
:100EC0000E942A188E2D0E94320FADB7BEB7189718
:100ED0000FB6F894BEBF0FBEADBFEDB7FEB73196EB
:100EE00012963C922E92119722E232E033832283B3
:100EF00064837583868397830E9422278DB79EB76C
:100F000008960FB6F8949EBF0FBE8DBF8E2D0E941F
:100F1000320FAB01BC0181E00E942A1800D000D042
:100F2000ADB7BEB712963C922E921197EEE1F2E069
:100F30001496FC93EE9313970E9422270F900F9024
:100F40000F900F908E2D0E94410FAB01BC0181E0EC
:100F50000E942A1800D000D0ADB7BEB712963C92BE
:100F60002E921197EBE1F2E01496FC93EE93139717
:100F70000E9422270894E11CF11C011D111D0F90F5
:100F80000F900F900F90F3E0EF16F104010511059B
:100F900009F077CFEE24FF24870100D000D000D0E5
:100FA000EDB7FEB73196ADB7BEB712963C922E9212
:100FB000119726E132E033832283F582E4820E9496
:100FC00022278DB79EB706960FB6F8949EBF0FBE28
:100FD0008DBF81E0B801A7010E942A188E2D0E94C2
:100FE000320FADB7BEB718970FB6F894BEBF0FBE9D
:100FF000ADBFEDB7FEB7319612963C922E92119787
:1010000023E132E03383228364837583868397836D
:101010000E9422278DB79EB708960FB6F8949EBF00
:101020000FBE8DBF8E2D0E949619AB01BC0181E0D1
:101030000E942A1800D000D0ADB7BEB712963C92DD
:101040002E921197EFE0F2E01496FC93EE93139733
:101050000E9422270F900F900F900F908E2D0E94CC
:10106000D719AB01BC0181E00E942A1800D000D042
:10107000ADB7BEB712963C922E921197ECE0F2E01B
:101080001496FC93EE9313970E9422270894E11C78
:10109000F11C011D111D0F900F900F900F90F6E0A5
:1010A000EF16F1040105110509F077CF19828FEFD2
:1010B0000E948E19882399F18FEF0E948619882348
:1010C00061F18091BF010E94961969587341804077
:1010D000904030F080913A018F5F80933A0102C0D6
:1010E00010923A0180E00E94861920913A01809185
:1010F000C5019091C601A091C701B091C80130E02F
:1011000040E050E0B695A795979587952817390741
:101110004A075B0710F00E941105469A01C04698E5
:10112000199B04C0339B02C00E9411058FEF0E94DF
:10113000500F882309F487C06090430170904401E8
:10114000809045019090460182E00E94320F5B0141
:101150006C0182E00E94410FE090C101F090C20159
:101160000091C3011091C401A61AB70AC80AD90A8E
:10117000C401B301A60195010E9490139B01AC012B
:10118000209343013093440140934501509346011D
:1011900060903B0170903C0180903D0190903E0139
:1011A00080E00E94320F5B016C0180E00E94410FE1
:1011B000E090C101F090C2010091C3011091C401FF
:1011C000A61AB70AC80AD90AC401B301A601950133
:1011D0000E9490139B01AC0120933B0130933C0192
:1011E00040933D0150933E0160903F01709040015B
:1011F000809041019090420181E00E94320F5B019A
:101200006C0181E00E94410FE090C101F090C201A9
:101210000091C3011091C401A61AB70AC80AD90ADD
:10122000C401B301A60195010E9490139B01AC017A
:1012300020933F013093400140934101509342017C
:1012400080E00E94500F0E94960E882309F40DCE74
:1012500040909701509098016090990170909A0188
:1012600080919B0190919C01A0919D01B0919E0164
:101270006E968CAF9DAFAEAFBFAF6E97C0909F0123
:10128000D090A001E090A101F090A2018091BE0158
:101290000E9496194B015C01209143013091440159
:1012A0004091450150914601609183017091840104
:1012B000809185019091860100D000D00E94FD238D
:1012C000ADB7BEB711966D937D938D939C93149794
:1012D000CE018696B301A2016E960CAD1DAD2EAD6A
:1012E0003FAD6E970E9411126A837B838C839D832E
:1012F0004090A3015090A4016090A5017090A601B8
:101300008091A7019091A801A091A901B091AA0193
:101310006A968CAF9DAFAEAFBFAF6A97C090AB017E
:10132000D090AC01E090AD01F090AE018091BD0194
:101330000F900F900F900F900E9496194B015C0137
:1013400020913B0130913C0140913D0150913E0183
:1013500060918701709188018091890190918A0143
:1013600000D000D00E94FD23ADB7BEB711966D939B
:101370007D938D939C931497CE01C296B301A201E5
:101380006A960CAD1DAD2EAD3FAD6A970E9411124D
:101390006E837F83888799870F900F900F900F90AF
:1013A00081E00E94320F7B018C0181E00E94410F9D
:1013B000E61AF70A080B190BEA86FB860C871D87CD
:1013C0008091AF019091B001A091B101B091B201B3
:1013D00066968CAF9DAFAEAFBFAF66978091B301FD
:1013E0009091B401A091B501B091B60162968CAF15
:1013F0009DAFAEAFBFAF6297C090B701D090B801BC
:10140000E090B901F090BA018A859B85AC85BD85D5
:101410002E968CAF9DAFAEAFBFAF2E9780908B0155
:1014200090908C01A0908D01B0908E018091BB01B5
:101430000E9496192B013C0100D000D0C501B401D7
:101440002E962CAD3DAD4EAD5FAD2E970E94FD2387
:101450004B015C01ADB7BEB711964D925D926D9296
:101460007C921497CE01CE9666964CAD5DAD6EAD76
:101470007FAD669762960CAD1DAD2EAD3FAD629708
:101480000E9411126E877F87888B998B8091BC0197
:101490000F900F900F900F900E94C81920918F010C
:1014A00030919001409191015091920160537547A4
:1014B00080409040E8EEEE2EE3E0FE2E012D112D4F
:1014C0000E94BA116A8B7B8B8C8B9D8B2A893B89FE
:1014D0004C895D898091930190919401A09195012F
:1014E000B0919601820F931FA41FB51F8A8B9B8B0F
:1014F000AC8BBD8BA0904701B0904801C0904901D2
:10150000D0904A016A887B888C889D886E857F850B
:1015100088899989EE80FF80088519852091570177
:10152000309158014091590150915A01660D771D33
:10153000881D991D6E197F09800B910BB8EEEB2E5B
:10154000B3E0FB2E012D112D0E94BA11A60EB71E7D
:10155000C81ED91EAE8ABF8AC88ED98EA0904B01F4
:10156000B0904C01C0904D01D0904E016A887B88AC
:101570008C889D886E857F8588899989EE80FF801B
:101580000885198520915B0130915C0140915D01D6
:1015900050915E01660D771D881D991D6E0D7F1D92
:1015A000801F911FA8EEEA2EA3E0FA2E012D112D27
:1015B0000E94BA11A60EB71EC81ED91EAA8EBB8ED7
:1015C000CC8EDD8E60904F01709050018090510163
:1015D000909052016A897B898C899D89EE84FF8471
:1015E00008891989AA80BB80CC80DD8020915F01A9
:1015F0003091600140916101509162016E197F0943
:10160000800B910B6A197B098C099D09F8EEEF2E6E
:10161000F3E0FF2E012D112D0E94BA11660E771EE8
:10162000881E991E6E8E7F8E88A299A2A09053016B
:10163000B0905401C0905501D0905601EA88FB88C3
:101640000C891D896E847F84888899886A817B8152
:101650008C819D81209163013091640140916501ED
:10166000509166016E0D7F1D801F911F66197709CD
:1016700088099909E8EEEE2EE3E0FE2E012D112DEA
:101680000E94BA11A60EB71EC81ED91EAAA2BBA2DE
:10169000CCA2DDA22E893F89488D598D80E0B90109
:1016A0000E949C0E2A8D3B8D4C8D5D8D83E0B9018F
:1016B0000E949C0E2E8D3F8D48A159A182E0B90158
:1016C0000E949C0E2AA13BA14CA15DA181E0B90121
:1016D0000E949C0E8981823009F05EC200D000D049
:1016E000EDB7FEB73282218221E032E034832383DA
:1016F0000E9422278091BE010F900F900F900F90B3
:101700000E949619AB01BC0181E00E942A1800D00A
:1017100000D0ADB7BEB712963C922E921197EDEF66
:10172000F1E01496FC93EE9313970E942227809188
:10173000BE010F900F900F900F900E94D719AB0130
:10174000BC0181E00E942A1800D000D0ADB7BEB71E
:1017500012963C922E921197EAEFF1E01496FC93C8
:10176000EE9313970E942227ADB7BEB712963C9214
:101770002E921197EEEEF1E01496FC93EE931397F0
:101780000E9422278091BD010F900F900F900F9023
:101790000E949619AB01BC0181E00E942A1800D07A
:1017A00000D0ADB7BEB712963C922E921197EAEEDA
:1017B000F1E01496FC93EE9313970E9422278091F8
:1017C000BD010F900F900F900F900E94D719AB01A1
:1017D000BC0181E00E942A1800D000D0ADB7BEB78E
:1017E00012963C922E921197E7EEF1E01496FC933C
:1017F000EE9313970E942227ADB7BEB712963C9284
:101800002E921197EDEDF1E01496FC93EE93139761
:101810000E9422278091BB010F900F900F900F9094
:101820000E949619AB01BC0181E00E942A1800D0E9
:1018300000D0ADB7BEB712963C922E92119789EDAB
:1018400091E014969C938E9313970E942227809187
:10185000BB010F900F900F900F900E94D719AB0112
:10186000BC0181E00E942A1800D000D0EDB7FEB77D
:101870003282218286ED91E0948383830E94222725
:10188000ADB7BEB712963C922E92119787EC91E0BD
:1018900014969C938E9313970E9422278091BC01EB
:1018A0000F900F900F900F900E949619AB01BC0102
:1018B00081E00E942A1800D000D0EDB7FEB7328236
:1018C000218283EC91E0948383830E94222780917C
:1018D000BC010F900F900F900F900E94D719AB0191
:1018E000BC0181E00E942A1800D000D0ADB7BEB77D
:1018F00012963C922E92119780EC91E014969C9354
:101900008E9313970E942227EDB7FEB73282218271
:1019100085EB91E0948383830E9422274A815B8137
:101920006C817D810F900F900F900F9081E00E944D
:101930002A1800D000D0ADB7BEB712963C922E92B6
:10194000119782EB91E014969C938E9313970E94CB
:101950002227EDB7FEB73282218286EA91E0948396
:1019600083830E9422274E815F81688579850F904D
:101970000F900F900F9081E00E942A1800D000D0A5
:10198000ADB7BEB712963C922E92119783EA91E0C2
:1019900014969C938E9313970E942227EDB7FEB75F
:1019A0003282218284E991E0948383830E942227FA
:1019B0004A855B856C857D850F900F900F900F9009
:1019C00081E00E942A1800D000D0ADB7BEB71296B1
:1019D0003C922E92119780E991E014969C938E93FD
:1019E00013970E9422270F900F900F900F9081E085
:1019F0000E94410FAB01BC0181E00E942A1800D077
:101A000000D0EDB7FEB7328221828DE891E0948359
:101A100083830E942227ADB7BEB712963C922E92C6
:101A2000119783E891E014969C938E9313970E94EC
:101A300022274E855F85688979890F900F900F90D6
:101A40000F9081E00E942A1800D000D0EDB7FEB7B9
:101A50003282218280E891E0948383830E9422274E
:101A6000ADB7BEB712963C922E92119781E791E0E6
:101A700014969C938E9313970E9422274A895B8920
:101A80006C897D890F900F900F900F9081E00E94DC
:101A90002A1800D000D0EDB7FEB7328221828EE640
:101AA00091E0948383830E942227ADB7BEB712963C
:101AB0003C922E9211978DE591E014969C938E9313
:101AC00013970E9422274E895F89688D798D0F9028
:101AD0000F900F900F9081E00E942A1800D000D044
:101AE000EDB7FEB73282218287E591E0948383834C
:101AF0000E9422274A8D5B8D6C8D7D8D0F900F90FB
:101B00000F900F9081E00E942A1800D000D0ADB74E
:101B1000BEB712963C922E92119781E591E01496F1
:101B20009C938E9313970E9422274E8D5F8D68A100
:101B300079A10F900F900F900F9081E00E942A18CA
:101B400000D000D0EDB7FEB7328221828BE491E065
:101B5000948383830E9422274AA15BA16CA17DA16B
:101B60000F900F900F900F9081E00E942A1800D0E4
:101B700000D0ADB7BEB712963C922E92119788E472
:101B800091E014969C938E9313970E9422271982BA
:101B90000F900F900F900F900E947D0E66C91F92BC
:101BA0000F920FB60F9211242F933F934F935F9391
:101BB0008F939F93AF93BF93EF93FF938091820096
:101BC0008068809382002091880030918900E091A4
:101BD000D901F0E0EE0FFF1FE753FE4F80819181A6
:101BE000820F931F90938900809388002091DA01DF
:101BF0003091DB014091DC015091DD01E091D90190
:101C0000F0E0EE0FFF1FE753FE4F80819181A0E0CF
:101C1000B0E0820F931FA41FB51F8093DA01909349
:101C2000DB01A093DC01B093DD018091D9018F5FCE
:101C30008093D9012091D9018091E00130E090E0BA
:101C4000049628173907B1F48091DA019091DB01ED
:101C5000A091DC01B091DD0181549D40A340B040D2
:101C600020F081E08093DE0105C08091D901815090
:101C70008093D901FF91EF91BF91AF919F918F9187
:101C80005F914F913F912F910F900FBE0F901F903A
:101C900018955C98000000000000000000000000A3
:101CA0000000000000000000000000000000000034
:101CB000000000008091DF01882309F45C9A5D98A0
:101CC0005F9A80918200806880938200000000000B
:101CD0000000000000000000000000000000000004
:101CE0000000000000000000000000008091820061
:101CF0008068809382005F9808958091840090911D
:101D0000850080589F4F909389008093880010929F
:101D1000D9011092DE011092DA011092DB011092CB
:101D2000DC011092DD010E94490E08958091DE01D0
:101D300008958093DF0108959EE46032790718F4D6
:101D400060E27EE406C09CE96134790710F060E44B
:101D50007CE9E82FF0E0EE0FFF1FE753FE4F7183A1
:101D60006083089580E090E020E137E2FC01EE0F0F
:101D7000FF1FE753FE4F3183208301968830910582
:101D8000A9F781E08093DF015C985D985F98549A91
:101D9000559A579A0E947D0E0E94DD0E8091800018
:101DA00080648093800080916F00826080936F00D8
:101DB000089585B5856085BD0895809184009091D2
:101DC0008500A0E0B0E08093E1019093E201A09350
:101DD000E301B093E401E1E8F0E080818160808379
:101DE00008951F920F920FB60F9211240F900FBEFD
:101DF0000F901F9018951F920F920FB60F921124FB
:101E00000F900FBE0F901F90189582E080934702AD
:101E10001092480281E080934902109225021092AC
:101E20002602109227021092280210922902109284
:101E30002A0210922B0210922C0210922D02109264
:101E40002E0210922F021092300210924502109230
:101E50004602ECE7F0E08081807E80838FEC809307
:101E60007A000895E82FF0E0EE0FFF1FEE0FFF1F3E
:101E7000EB5FFD4F2081318142815381B901CA015D
:101E80000895E82FF0E0EE0FFF1FEE0FFF1FEB5D50
:101E9000FD4F2081318142815381B901CA010895EA
:101EA00090914602982390934602809146020895AD
:101EB0002F923F924F925F926F927F928F929F925A
:101EC000AF92BF92CF92DF92EF92FF920F931F9348
:101ED000DF93CF93CDB7DEB768970FB6F894DEBF28
:101EE0000FBECDBF182FDE011196E2E2F1E088E1CE
:101EF00001900D928150E1F78091460210924602C6
:101F00008091460270E07AC1809146028093460239
:101F1000809146028823C1F38091050290910602C8
:101F2000A0910702B0910802E980FA81AB809C8001
:101F30007D806E805F8048849C01AD01550F220B2F
:101F4000322FA901682F892F9A2FAB2F322F422FC2
:101F5000522FE60EE1E0E61608F0E0E0682F6F0F82
:101F6000F1E0681708F0F0E08E2E860EE1E08616AC
:101F700008F0E0E0FE2B692F6A0D81E0691708F098
:101F800080E0AF2EA60EE1E0A61608F0E0E08E2B72
:101F90006A2F690DE1E06A1708F0E0E0B82FB60F8C
:101FA00081E0B61708F080E0E82B832F870D61E011
:101FB000831708F060E0AE2FA80F91E0A81708F093
:101FC00090E0692B842F860DE1E0841708F0E0E0B3
:101FD000F62FF80F91E0F81708F090E0E92B852F25
:101FE000850D91E0851708F090E0E80F61E0E817B3
:101FF00008F060E0962B240D920FE9828A82AB8272
:10200000BC83AD83FE83EF83988780910902909112
:102010000A02A0910B02B0910C02E984FA85AB840C
:102020009C847D846E845F8448889C01AD01550F3B
:10203000220B322FA901682F892F9A2FAB2F322F15
:10204000422F522FE60EE1E0E61608F0E0E0682F9E
:102050006F0FF1E0681708F0F0E08E2E860EE1E0D9
:10206000861608F0E0E0FE2B692F6A0D81E0691703
:1020700008F080E0AF2EA60EE1E0A61608F0E0E042
:102080008E2B6A2F690DE1E06A1708F0E0E0B82FA7
:10209000B60F81E0B61708F080E0E82B832F870D9C
:1020A00061E0831708F060E0AE2FA80F91E0A81759
:1020B00008F090E0692B842F860DE1E0841708F08A
:1020C000E0E0F62FF80F91E0F81708F090E0E92B28
:1020D000852F850D91E0851708F090E0E80F61E00D
:1020E000E81708F060E0962B240D920FE9868A86A7
:1020F000AB86BC87AD87FE87EF87988B80910D02FA
:1021000090910E02A0910F02B0911002E988FA8915
:10211000AB889C887D886E885F88488C9C01AD0167
:10212000550F220B322FA901682F892F9A2FAB2F21
:10213000322F422F522FE60EE1E0E61608F0E0E0E3
:10214000682F6F0FF1E0681708F0F0E08E2E860E12
:10215000E1E0861608F0E0E0FE2B692F6A0D81E0D1
:10216000691708F080E0AF2EA60EE1E0A61608F091
:10217000E0E08E2B6A2F690DE1E06A1708F0E0E0DD
:10218000B82FB60F81E0B61708F080E0E82B832F58
:10219000870D61E0831708F060E0AE2FA80F91E093
:1021A000A81708F090E0692B842F860DE1E08417D2
:1021B00008F0E0E0F62FF80F91E0F81708F090E053
:1021C000E92B852F850D91E0851708F090E0E80F49
:1021D00061E0E81708F060E0962B240D920FE98A81
:1021E0008A8AAB8ABC8BAD8BFE8BEF8B988F8091EC
:1021F000460210924602809146027F5F711708F4F2
:1022000083CE882499241E010894211C311C412E60
:10221000552466247724F40173E0EE0FFF1F7A95AE
:10222000E1F7E20DF31DA080B180C280D380E4808D
:10223000F580068117819501A601B701C8010E94AA
:1022400011217B018C01C301B2010E94D4209B01AA
:10225000AC01C801B7010E943B200E94A0219B0154
:10226000AC01F401EE0FFF1FEE0FFF1FEB5DFD4F02
:1022700020833183428353830894811C911C83E023
:102280008816910441F668960FB6F894DEBF0FBE2B
:10229000CDBFCF91DF911F910F91FF90EF90DF9015
:1022A000CF90BF90AF909F908F907F906F905F90F6
:1022B0004F903F902F9008951F920F920FB60F925C
:1022C00011246F937F938F939F93AF93BF93EF935B
:1022D000FF93E0914502F0E0E95BFD4FE081F0E023
:1022E0008091780090917900A0E0B0E0EE0FFF1FA0
:1022F000EE0FFF1FEB51FE4F80839183A283B383C8
:10230000809145028F5F809345028091450263E092
:102310000E941C249093450290917C00E09145021C
:10232000F0E0E95BFD4F907E8081982B90937C00DC
:102330008FEC80937A0080914502882371F4A5E0A8
:10234000B2E0E5EEF1E08CE001900D928150E1F712
:10235000809146028F5F80934602FF91EF91BF917B
:10236000AF919F918F917F916F910F900FBE0F90C2
:102370001F901895EF92FF920F931F93DF93CF93C7
:10238000CDB7DEB760970FB6F894DEBF0FBECDBFF6
:102390006D837E838F83988729873A874B875C87F5
:1023A000ED86FE860F87188B2D813E814F815885E3
:1023B00069857A858B859C850E94FD2369837A8354
:1023C0008B839C83E980FA800B811C816D857E85DF
:1023D0008F85988922E030E040E050E00E944F2451
:1023E000E20EF31E041F151FE982FA820B831C8381
:1023F00069817A818B819C812D853E854F855889A5
:102400000E944F24CA01B90160960FB6F894DEBF4E
:102410000FBECDBFCF91DF911F910F91FF90EF9035
:1024200008952F923F924F925F926F927F928F9278
:102430009F92AF92BF92CF92DF92EF92FF920F9353
:102440001F93DF93CF93CDB7DEB760970FB6F894A5
:10245000DEBF0FBECDBF1C012A013B0109871A87D1
:102460002B873C87CD86DE86EF86F88A88EE93E060
:10247000A0E0B0E089839A83AB83BC832DA13EA109
:102480004FA158A5281939094A095B092DA33EA374
:102490004FA358A7CA01B901A30192010E94FD23CD
:1024A0006D837E838F83988789859A85AB85BC856C
:1024B0000097A105B10509F4BEC08DA19EA1AFA1F1
:1024C000B8A5BB0F880B982FDC012DA15EA17FA1C1
:1024D000E8A5982FA82E982EF82FD1016C9111966F
:1024E0004C91119712968C91129713961C911397F9
:1024F0001496EC9014971596DC9015971696CC9040
:1025000016971796BC90620F31E0621708F030E022
:10251000252F240F41E0251708F040E0F32EF20E9E
:1025200031E0F21608F030E0432B272F280F51E05E
:10253000271708F050E0042F020F31E0021708F0CF
:1025400030E0532B2E2F210F41E02E1708F040E0F2
:10255000152F120F31E0121708F030E0432B292F0E
:102560002E0D51E0291708F050E0842F820F31E042
:10257000821708F030E0532B2A2D2D0D41E02A154B
:1025800008F040E0752F720F31E0721708F030E06C
:10259000432B292D2C0D51E0291508F050E0E42F94
:1025A000E20F31E0E21708F030E0952F932BFB0D9E
:1025B000262F3F2DA801682F8E2F9F0F903444F0B7
:1025C0002FEF3FEF4FEF5FEF6FEF7FEF8FEF9FE367
:1025D000903C44F420E030E040E050E060E070E007
:1025E00080E090ECF1012083318342835383648344
:1025F00075838683978369847A848B849C84990C01
:102600006608762C4301A984BA84CB84DC84E62C4A
:10261000F62C062D162D0E94010459016A012D8108
:102620003E814F8158852A0D3B1D4C1D5D1D2D831C
:102630003E834F8358878D859E85AF85B8890097E7
:10264000A105B10551F1F10180859185A285B38580
:102650002DA13EA14FA158A5281B390B4A0B5B0B9E
:10266000CA01B9012D853E854F8558890E94FD23F9
:102670002D813E814F815885260F371F481F591FD6
:102680002D833E834F8358878DA19EA1AFA1B8A50E
:10269000F10180879187A287B38769817A818B81D5
:1026A0009C8122E030E040E050E00E944F248D8188
:1026B0009E81AF81B885820F931FA41FB51F29810A
:1026C0003A814B815C81BC01CD010E944F24CA013B
:1026D000B90160960FB6F894DEBF0FBECDBFCF91A3
:1026E000DF911F910F91FF90EF90DF90CF90BF90FF
:1026F000AF909F908F907F906F905F904F903F90A2
:102700002F900895FC011086118612861386108280
:102710001182128213821482158216821782089502
:102720002F923F924F925F926F927F928F929F92E1
:10273000AF92BF92CF92DF92EF92FF920F931F93CF
:10274000DF93CF93CDB7DEB728970FB6F894DEBFEF
:102750000FBECDBF5B016C0119012A0188EE93E029
:10276000A0E0B0E089839A83AB83BC8369817A81DE
:102770008B819C816E197F09800B910BA6019501BD
:102780000E94FD236D837E838F8398876D807E807A
:102790008F809884C801B701A20191010E94FD2396
:1027A0005B016C01C801B70122E030E040E050E07D
:1027B0000E944F24A20EB31EC41ED51E6A0C7B1CA1
:1027C0008C1C9D1C6D827E828F8298866D817E819D
:1027D0008F81988529813A814B815C810E944F24A9
:1027E000C901DA018D839E83AF83B8872D813E8135
:1027F0004F815885B901CA0128960FB6F894DEBFFB
:102800000FBECDBFCF91DF911F910F91FF90EF9041
:10281000DF90CF90BF90AF909F908F907F906F9000
:102820005F904F903F902F900895FC0188EB9BE0C4
:10283000A0E0B0E080839183A283B38384839583F7
:10284000A683B78380879187A287B387848795877C
:10285000A687B78728EE33E040E050E0208B318B2D
:10286000428B538B248B358B468B578B208F318F2C
:10287000428F538F248F358F468F578F85E691E097
:10288000A0E0B0E080A391A3A2A3B3A382E791E06C
:10289000A0E0B0E084A395A3A6A3B7A380E291E053
:1028A000A0E0B0E080A791A7A2A7B3A780E395E737
:1028B000A0E0B0E084A795A7A6A7B7A780AB91AB8F
:1028C000A2ABB3AB84AB95ABA6ABB7AB80AF91AFCC
:1028D000A2AFB3AF84EF91E0A0E0B0E084AF95AFDA
:1028E000A6AFB7AFE05CFF4F81939193A193B193F3
:1028F00081939193A193B1932193319341935193F8
:1029000088EA91E6A0E0B0E081939193A193B1931E
:1029100089E190E0A0E0B0E081939193A193B1931D
:10292000119211921192119211921192119211928F
:1029300081939193A193B19311921192119211925B
:10294000119211921192119288E592E0A0E0B0E00C
:1029500081939193A193B19311921192119211923B
:102960001192119211921192119281E0819382E061
:10297000819383E0819385E0819382E3819388EC66
:1029800090E0A0E0B0E081939193A193B1938DE7A3
:1029900090E0A0E0B0E080839183A283B3830895A8
:1029A0000F931F93DC01CA014532510508F019C18C
:1029B000825C9F4FFC01EE0FFF1F0590F491E02D0C
:1029C00009940C9311961C93119712962C931297BD
:1029D00013963C9306C114960C93149715961C936A
:1029E000159716962C93169717963C93FAC018963F
:1029F0000C93189719961C9319971A962C931A975B
:102A00001B963C93EEC01C960C931C971D961C9332
:102A10001D971E962C931E971F963C93E2C05096CE
:102A20000C93509751961C93519752962C93529712
:102A300053963C93D6C054960C93549755961C933A
:102A4000559756962C93569757963C93CAC05896CE
:102A50000C93589759961C9359975A962C935A97BA
:102A60005B963C93BEC05C960C935C975D961C9302
:102A70005D975E962C935E975F963C93B2C090965E
:102A80000C93909791961C93919792962C93929772
:102A900093963C93A6C094960C93949795961C930A
:102AA000959796962C93969797963C939AC098965E
:102AB0000C93989799961C9399979A962C939A971A
:102AC0009B963C938EC09C960C939C979D961C93D2
:102AD0009D979E962C939E979F963C9382C0D096EE
:102AE0000C93D097D1961C93D197D2962C93D297D2
:102AF000D3963C9376C0D4960C93D497D5961C93DA
:102B0000D597D6962C93D697D7963C936AC0D896ED
:102B10000C93D897D9961C93D997DA962C93DA9779
:102B2000DB963C935EC0DC960C93DC97DD961C93A1
:102B3000DD97DE962C93DE97DF963C9352C0FD0125
:102B4000E05CFF4F4AC0FD01EC5BFF4F46C0FD015A
:102B5000E85BFF4F42C0FD01E45BFF4F3EC0FD015B
:102B6000E05BFF4F3AC0FD01EC5AFF4F36C0FD015C
:102B7000E85AFF4F32C0FD01E45AFF4F2EC0FD015D
:102B8000E05AFF4F2AC0FD01EC59FF4F26C0FD015E
:102B9000E859FF4F22C0FD01E459FF4F1EC0FD015F
:102BA000E059FF4F1AC0AC58BF4F0EC0AB58BF4FD3
:102BB0000BC0AA58BF4F08C0A958BF4F05C0A8589E
:102BC000BF4F02C0A758BF4F0C930BC0FD01E65882
:102BD000FF4F03C0FD01E258FF4F008311832283A2
:102BE00033831F910F910895DF92EF92FF920F931D
:102BF0001F937B018C01D42ECB010E941C298D15C3
:102C000021F0C7016D2D0E9424291F910F91FF9083
:102C1000EF90DF900895EF92FF920F931F93CF9361
:102C2000DF93182F092F60E070E080E090E042E42D
:102C30000E94F41561E070E080E090E04FE40E94B3
:102C4000F41562E070E080E090E04FE40E94F4153B
:102C500063E070E080E090E042E40E94F41564E0FC
:102C600070E080E090E049E40E94F41565E070E0D7
:102C700080E090E045E40E94F41566E070E080E0BA
:102C800090E043E50E94F415212F302FC901EC019B
:102C900087E0E82EF12C012D112DC801B7014991D3
:102CA0000E94F4150894E11CF11C011D111D89E816
:102CB000E816F1040105110581F7DF91CF911F910D
:102CC0000F91FF90EF9008950F931F93CF93DF9391
:102CD000182F092F80E090E00E941C298234B1F562
:102CE00081E090E00E941C298F3481F582E090E021
:102CF0000E941C298F3451F583E090E00E941C292A
:102D0000823421F584E090E00E941C298934F1F49A
:102D100085E090E00E941C298534C1F486E090E0B3
:102D20000E941C29833591F4812F902F9C018901E9
:102D3000C7E0D0E0CE010E941C29F80181938F01E9
:102D40002196C938D105B1F781E009C0812F902FB4
:102D50000E941514812F902F0E940B1680E0DF91A6
:102D6000CF911F910F910895813039F48091C8005F
:102D700085FFFCCF6093CE0008958091C00085FF51
:102D8000FCCF6093C6000895682F81E00E94B416BE
:102D90000895CF93DF93FB01813019F4C5E6D2E0AB
:102DA00002C0CCE5D2E08A819B812C813D818217D3
:102DB000930719F41082E0E017C06E817F81860FBF
:102DC000971F821B930B0E94282480838C819D81F6
:102DD000E881F981E80FF91FE0816E817F8101961A
:102DE0000E9428249D838C838E2FDF91CF9108959C
:102DF0001F920F920FB60F9211242F933F935F9360
:102E00006F937F938F939F93AF93BF93EF93FF93B2
:102E100020914C0230914D0280914E0290914F02D0
:102E200028173907E9F0E0914A02F0914B028091AE
:102E30004C0290914D02E80FF91F80818093C600EB
:102E400080914C0290914D0260915002709151021C
:102E500001960E94282490934D0280934C020AC050
:102E600010924D0210924C0210924F0210924E029C
:102E700010925202FF91EF91BF91AF919F918F916C
:102E80007F916F915F913F912F910F900FBE0F90A7
:102E90001F9018951F920F920FB60F9211242F9327
:102EA0003F934F935F936F937F938F939F93AF93D2
:102EB000BF93EF93FF934091C60080915E02909183
:102EC0005F02609162027091630201960E94282461
:102ED000282F30E080916002909161022817390715
:102EE00079F0E0915C02F0915D0280915E02909138
:102EF0005F02E80FF91F408330935F0220935E0268
:102F0000FF91EF91BF91AF919F918F917F916F91C1
:102F10005F914F913F912F910F900FBE0F901F9097
:102F200018951F920F920FB60F9211242F933F9373
:102F30005F936F937F938F939F93AF93BF93EF9321
:102F4000FF93209155023091560280915702909143
:102F5000580228173907E9F0E0915302F091540222
:102F60008091550290915602E80FF91F808180935D
:102F7000CE00809155029091560260915902709155
:102F80005A0201960E94282490935602809355027B
:102F90000AC01092560210925502109258021092D6
:102FA000570210925B02FF91EF91BF91AF919F91F9
:102FB0008F917F916F915F913F912F910F900FBEF5
:102FC0000F901F9018951F920F920FB60F92112419
:102FD0002F933F934F935F936F937F938F939F9321
:102FE000AF93BF93EF93FF934091CE008091670220
:102FF0009091680260916B0270916C0201960E9440
:103000002824282F30E08091690290916A022817C5
:10301000390779F0E0916502F091660280916702CC
:1030200090916802E80FF91F408330936802209363
:103030006702FF91EF91BF91AF919F918F917F9127
:103040006F915F914F913F912F910F900FBE0F9015
:103050001F9018957F928F929F92AF92BF92CF92BE
:10306000DF92EF92FF920F931F93CF93DF93782E0F
:103070005A016B0177FF0CC06DE20E94B416D09428
:10308000C094B094A094A11CB11CC11CD11C09C057
:10309000411551056105710521F460E30E94B416E4
:1030A0003CC088249924CFE0D0E0BE01882777FD7A
:1030B0008095982F0E94D6209B01AC0160E070E0C3
:1030C00080E291E40E9433227B018C01C601B501AC
:1030D0000E94D620A80197010E943B200E94A320B5
:1030E0002AE030E040E050E00E944F249B01AC0118
:1030F00012161306140615061CF08114910441F0F3
:10310000622F605D872D0E94B41681E0882E912C7D
:1031100021978FEFCF3FD80741F6DF91CF911F91D5
:103120000F91FF90EF90DF90CF90BF90AF909F9066
:103130008F907F900895FF920F931F938C01F62E2E
:10314000FC01138212821582148210866683178214
:10315000808191810E948C2581E090E06F2D70E04C
:103160000E94C324F801808391831F910F91FF90E7
:1031700008959093CD008093CC0085E692E00E9464
:103180009B1888E98093C90008951F920F920FB68B
:103190000F921124EF92FF920F931F932F933F935F
:1031A0004F935F936F938F939F93AF93BF93CF93FF
:1031B000DF93EF93FF936091B2021092B202C0913D
:1031C0008600D09187009E0140E050E0E091B0027F
:1031D000F091B1028091B0029091B102A0E0B0E014
:1031E000281739074A075B0708F461504160CF018F
:1031F000A0E0B0E0281B390B4A0B5B0B407050700D
:10320000862F90E0A0E0B0E08C01FF24EE24E20ED7
:10321000F31E041F151FD093B102C093B00281E6C4
:10322000E8168AEEF80680E0080780E0180770F0DC
:103230008091AE028093AF021092AE028091B402F0
:103240008823A1F581E08093B40230C02091AE02C2
:103250008091B50230E090E001972817390769F0B6
:10326000E091AE02F0E0EE0FFF1FEE0FFF1FE259FC
:10327000FD4FE082F182028313838091AE028F5F63
:103280008093AE028091AE02843080F08091B402CF
:10329000882361F082E08093B4029091AE02809125
:1032A000AF02981719F481E08093B302FF91EF9178
:1032B000DF91CF91BF91AF919F918F916F915F916E
:1032C0004F913F912F911F910F91FF90EF900F9091
:1032D0000FBE0F901F9018951F920F920FB60F926E
:1032E00011248F938091B2028F5F8093B2028091FC
:1032F000B2028B3028F08AE08093B2021092B402BE
:103300008F910F900FBE0F901F9018959091B30260
:1033100098239093B3028091B30208959091B402E0
:1033200098239093B4028091B4020895E82F80917D
:10333000B402882331F1EF5FE093B502E150F0E091
:10334000EE0FFF1FEE0FFF1FDF01A259BD4F2D91A2
:103350003D914D915C91E257FD4F80819181A28119
:10336000B381F901E81BF90B1092B502CF01C196A8
:103370008336910530F09F01442737FD4095542F47
:1033800004C020E030E040E050E0B901CA010895F7
:10339000E82FF0E0EE0FFF1FEE0FFF1FE259FD4F89
:1033A0002081318142815381B901CA010895E82FFA
:1033B000F0E0EE0FFF1FEE0FFF1FE257FD4F2081E1
:1033C000318142815381B901CA0108952F923F9200
:1033D0004F925F926F927F928F929F92AF92BF9225
:1033E000CF92DF92EF92FF920F931F93DF93CF93D1
:1033F000CDB7DEB7C054D0400FB6F894DEBF0FBED5
:10340000CDBF482E80E090E0FC01EE0FFF1FEE0FD5
:10341000FF1FE257FD4F1082118212821382019624
:103420008830910589F7FE01319680E4DF011D9215
:103430008A95E9F7BB241F0192C01092B3028091D4
:10344000B3028823E1F3610100E0F6011081E1801D
:10345000A280938074806580F6805780802F0E94C0
:1034600096199B01AC01550F220B322FA901E62FB3
:10347000672F322F422F522F8E2E810EF1E08E16A3
:1034800008F0F0E0E62FEE0DA1E0E61708F0A0E06E
:10349000EF2EEE0EF1E0EE1608F0F0E0AF2BE82F85
:1034A000EA0DB1E0E81708F0B0E01A2F1E0FF1E0C6
:1034B0001E1708F0F0E0BF2BE92FE90DF1E0E91746
:1034C00008F0F0E0AB2EAE0E81E0AE1608F080E022
:1034D000F82B832F870D61E0831708F060E0F80F69
:1034E00091E0F81708F090E0692B842F860D71E0C9
:1034F000841708F070E0E62FE80F91E0E81708F075
:1035000090E0792B852F8F0D91E0851708F090E0E2
:10351000780F61E0781708F060E0962B250D920F88
:10352000D6018C921196EC92119712961C931297D9
:103530001396AC9213971496FC9314971596EC93EC
:10354000159716967C93169717969C930F5FE8E055
:10355000F0E0CE0EDF1E083009F077CFB394B4143C
:1035600008F46BCF6E010894C11CD11CAA24BB24A3
:10357000642C772488249924D6012C9111963C91AF
:10358000119712964C91129713965C91139714967B
:103590006C91149715967C91159716968C911697A9
:1035A00017969C910E9411217B018C01C401B301EB
:1035B0000E94D4209B01AC01C801B7010E943B20AE
:1035C0000E94A0219B01AC01F501EE0FFF1FEE0F41
:1035D000FF1FE257FD4F20833183428353830894BA
:1035E000A11CB11CE8E0F0E0CE0EDF1EF8E0AF1643
:1035F000B10411F681E08093B602C05CDF4F0FB6D4
:10360000F894DEBF0FBECDBFCF91DF911F910F9118
:10361000FF90EF90DF90CF90BF90AF909F908F90F2
:103620007F906F905F904F903F902F90089580E033
:1036300090E020E335E740E050E0FC01EE0FFF1F93
:10364000EE0FFF1FDF01A259BD4F2D933D934D9308
:103650005C931397E257FD4F20833183428353835A
:1036600001968830910549F71092B4021092B30286
:103670001092AE021092B2021092B1021092B002F9
:1036800086E08093AF021092B6025E9856980E9430
:10369000DD0E80918100806C8093810080916F00AD
:1036A000816280936F000895AF92BF92CF92DF92B4
:1036B000EF92FF920F931F93CF93DF938C018DB7FF
:1036C0009EB70A970FB6F8949EBF0FBE8DBFEDB799
:1036D000FEB7319624E1E22E21E0F22EADB7BEB75F
:1036E0001296FC92EE92119784E897E0938382837E
:1036F00094E0C92ED12CD582C482E80188819981B9
:10370000AA81BB8186839783A087B1870E942227E5
:10371000EDB7FEB73196ADB7BEB71296FC92EE92FA
:10372000119783E697E093838283D582C4828C814C
:103730009D81AE81BF8186839783A087B1870E94D8
:103740002227EDB7FEB73196CDB7DEB7FA82E98210
:1037500082E497E093838283D582C482E8018885DE
:103760009985AA85BB8586839783A087B1870E94A8
:103770002227EDB7FEB73196ADB7BEB71296FC92D1
:10378000EE92119781E297E093838283D582C4827F
:103790008C859D85AE85BF8586839783A087B187FD
:1037A0000E942227EDB7FEB73196CDB7DEB7FA8279
:1037B000E9828EEF96E093838283D582C482E8010A
:1037C00088899989AA89BB8986839783A087B187CD
:1037D0000E942227EDB7FEB73196ADB7BEB712965D
:1037E000FC92EE9211978BED96E093838283D582C3
:1037F000C4828C899D89AE89BF8986839783A0877F
:10380000B1870E942227EDB7FEB73196CDB7DEB75C
:10381000FA82E98288EB96E093838283D582C48220
:10382000E801888D998DAA8DBB8D86839783A087AB
:10383000B1870E942227EDB7FEB73196ADB7BEB76C
:103840001296FC92EE92119785E996E0938382831B
:10385000D582C4828C8D9D8DAE8DBF8D86839783DE
:10386000A087B1870E942227EDB7FEB73196CDB76A
:10387000DEB7FA82E9828DE696E093838283D58271
:10388000C482E80188A199A1AAA1BBA186839783DC
:10389000A087B1870E942227EDB7FEB73196ADB75A
:1038A000BEB71296FC92EE92119784E496E0938351
:1038B0008283D582C4828CA19DA1AEA1BFA1868343
:1038C0009783A087B1870E942227EDB7FEB7319674
:1038D000CDB7DEB7FA82E9828CE196E093838283EA
:1038E000D582C482E80188A599A5AAA5BBA586832F
:1038F0009783A087B1870E942227EDB7FEB7319644
:10390000ADB7BEB71296FC92EE92119784EF95E098
:1039100093838283D582C4828CA59DA5AEA5BFA5C5
:1039200086839783A087B1870E942227EDB7FEB7D1
:103930003196CDB7DEB7FA82E9828BEC95E09383BE
:103940008283D582C482E80188A999A9AAA9BBA9C2
:1039500086839783A087B1870E942227EDB7FEB7A1
:103960003196ADB7BEB71296FC92EE92119784EAEB
:1039700095E093838283D582C4828CA99DA9AEA948
:10398000BFA986839783A087B1870E942227EDB7BE
:10399000FEB73196CDB7DEB7FA82E98288E795E0C7
:1039A00093838283D582C482E80188AD99ADAAADA4
:1039B000BBAD86839783A087B1870E942227EDB78E
:1039C000FEB73196ADB7BEB71296FC92EE92119744
:1039D00080E595E093838283D582C4828CAD9DADD2
:1039E000AEADBFAD86839783A087B1870E942227A3
:1039F000EDB7FEB73196CDB7DEB7FA82E98287E23E
:103A000095E093838283D582C482005C1F4FE801D6
:103A100089919991A991B99186839783A087B1875C
:103A20000E942227EDB7FEB73196ADB7BEB712960A
:103A3000FC92EE92119780E095E093838283D58289
:103A4000C48289919991A991B99186839783A0871E
:103A5000B1870E942227EDB7FEB73196ADB7BEB74A
:103A60001296FC92EE92119785ED94E093838283F7
:103A7000D582C48289919991A991B99186839783BE
:103A8000A087B1870E942227EDB7FEB73196ADB768
:103A9000BEB71296FC92EE9211978EEA94E0938351
:103AA0008283D582C48289919991A991B9918683A3
:103AB0009783A087B1870E942227EDB7FEB7319682
:103AC000ADB7BEB71296FC92EE92119789E894E0DA
:103AD00093838283D582C48289919991A991B99166
:103AE00086839783A087B1870E942227EDB7FEB710
:103AF0003196ADB7BEB71296FC92EE92119784E65E
:103B000094E093838283D582C48289919991A9910B
:103B1000B99186839783A087B1870E942227EDB74A
:103B2000FEB73196ADB7BEB71296FC92EE921197E2
:103B30008FE394E093838283D582C48289919991A3
:103B4000A991B99186839783A087B1870E94222784
:103B5000EDB7FEB73196ADB7BEB71296FC92EE92B6
:103B6000119789E194E093838283D582C4828991FD
:103B70009991A991B99186839783A087B1870E9473
:103B80002227EDB7FEB73196ADB7BEB71296FC92BD
:103B9000EE92119783EF93E093838283D582C48260
:103BA00089919991A991B99186839783A087B187CB
:103BB0000E942227EDB7FEB73196ADB7BEB7129679
:103BC000FC92EE9211978DEC93E093838283D582E1
:103BD000C48289919991A991B99186839783A0878D
:103BE000B1870E942227EDB7FEB73196ADB7BEB7B9
:103BF0001296FC92EE9211978EEA93E09383828361
:103C0000D582C48289919991A991B991868397832C
:103C1000A087B1870E942227EDB7FEB73196ADB7D6
:103C2000BEB71296FC92EE9211978FE893E09383C1
:103C30008283D582C48289919991A991B991868311
:103C40009783A087B1870E942227EDB7FEB73196F0
:103C5000ADB7BEB71296FC92EE92119780E793E053
:103C600093838283D582C48289919991A991B991D4
:103C700086839783A087B1870E9422270F900F9099
:103C8000EDB7FEB73196ADB7BEB71296FC92EE9285
:103C900011978BE493E09383828381E0A82EB12C6B
:103CA000B582A4828991868317820E942227EDB76C
:103CB000FEB73196ADB7BEB71296FC92EE92119751
:103CC00081E293E093838283B582A4828991868383
:103CD00017820E942227EDB7FEB73196ADB7BEB767
:103CE0001296FC92EE9211978AEF92E09383828370
:103CF000B582A4828991868317820E942227EDB71C
:103D0000FEB73196ADB7BEB71296FC92EE92119700
:103D100084ED92E093838283B582A4828991868325
:103D200017820E942227EDB7FEB73196ADB7BEB716
:103D30001296FC92EE9211978CEA92E09383828322
:103D4000B582A4828991868317820E942227EDB7CB
:103D5000FEB73196ADB7BEB71296FC92EE921197B0
:103D600088E792E093838283B582A48289918683D7
:103D700017820E94222700D0EDB7FEB73196ADB76B
:103D8000BEB71296FC92EE92119787E592E093836C
:103D90008283D582C48289919991A991B9918683B0
:103DA0009783A087B1870E942227EDB7FEB731968F
:103DB000ADB7BEB71296FC92EE9211978DE292E0EB
:103DC00093838283D582C48288819981AA81BB81B1
:103DD00086839783A087B1870E9422278DB79EB7DD
:103DE0000A960FB6F8949EBF0FBE8DBFDF91CF919C
:103DF0001F910F91FF90EF90DF90CF90BF90AF9009
:103E000008952F923F924F925F926F927F928F927E
:103E10009F92AF92BF92CF92DF92EF92FF920F9359
:103E20001F93DF93CF93CDB7DEB765970FB6F894A6
:103E3000DEBF0FBECDBF3C01198281E0BE016F5FC6
:103E40007F4F0E94C9168A838A81882309F4F2C0B1
:103E50008A818034B1F08A81833799F08A818436EF
:103E600081F08A818C3669F08A81833651F08A81AB
:103E7000823739F08A81823521F08A81873609F0CC
:103E8000D9C08A81833721F4C3010E940B16D2C0A6
:103E90008A81843621F4C3010E941514CBC08A8123
:103EA0008C3621F4C3010E946416C4C08A81833613
:103EB00021F4C3010E94541BBDC08A81823711F4D2
:103EC00081E0B9C08A81823511F483E0B4C08A816F
:103ED0008A81803409F0ACC000D000D004E111E048
:103EE000EDB7FEB71283018389EB97E09483838358
:103EF0000E9422272224332488249924540190E00C
:103F00000F900F900F900F900B8B1C8B02EB17E014
:103F1000198281E0BE016F5F7F4F9D8B0E94C916A1
:103F20008A8389819D898823A1F38A81803318F04F
:103F30008A818A3318F08A818D3249F48A81E3E0DC
:103F4000F0E0EC0FFD1FE90FF11D80836FC0E3E08F
:103F5000F0E0EC0FFD1FE90FF11D1082CE0103967A
:103F600060E070E04AE050E00E94E425F62EE72E83
:103F7000D82EC92E44E1442E41E0542E232821F5A9
:103F800000D000D08B89EDB7FEB781838C89828306
:103F9000148303830E9422270F900F900F900F909D
:103FA00081E04F2D5E2D6D2D7C2D0E942A182F2D26
:103FB0003E2D4D2D5C2DC901DA014C015D0131E032
:103FC000232E312C9FEF32C0C301B501A4010F2D68
:103FD0001E2D2D2D3C2D0E94D01400D000D0EDB709
:103FE000FEB7528241828EEA97E0948383830E94D7
:103FF00022270F900F900F900F9081E04F2D5E2D94
:104000006D2D7C2D0E942A1800D000D0EDB7FEB790
:104010005282418285EA97E0948383830E9422271B
:1040200080E00F900F900F900F9005C09F5F70CFB2
:104030008A8101C080E065960FB6F894DEBF0FBE9E
:10404000CDBFCF91DF911F910F91FF90EF90DF9047
:10405000CF90BF90AF909F908F907F906F905F9028
:104060004F903F902F90089581E890E060E840E8FD
:104070000E94B91808950CD029C121D140F018D15F
:1040800030F021F45F3F19F00AC1511153C10DC145
:104090002ED198F39923C9F35523B1F3951B550BF2
:1040A000BB27AA2762177307840738F09F5F5F4F0B
:1040B000220F331F441FAA1FA9F333D00E2E3AF04C
:1040C000E0E830D091505040E695001CCAF729D066
:1040D000FE2F27D0660F771F881FBB1F26173707B5
:1040E0004807AB07B0E809F0BB0B802DBF01FF27E5
:1040F00093585F4F2AF09E3F510568F0D0C01AC117
:104100005F3FECF3983EDCF3869577956795B7951E
:10411000F7959F5FC9F7880F911D9695879597F939
:104120000895E1E0660F771F881FBB1F62177307B2
:104130008407BA0720F0621B730B840BBA0BEE1FC7
:1041400088F7E095089504D06894B111F3C00895FC
:10415000D6D088F09F5790F0B92F9927B751A0F08B
:10416000D1F0660F771F881F991F1AF0BA95C9F70B
:1041700012C0B13081F0DDD0B1E00895DAC0672F10
:10418000782F8827B85F39F0B93FCCF386957795BB
:104190006795B395D9F73EF49095809570956195A4
:1041A0007F4F8F4F9F4F0895E89409C097FB3EF4CF
:1041B00090958095709561957F4F8F4F9F4F992374
:1041C000A9F0F92F96E9BB279395F69587957795F2
:1041D0006795B795F111F8CFFAF4BB0F11F460FFB2
:1041E0001BC06F5F7F4F8F4F9F4F16C0882311F00A
:1041F00096E911C0772321F09EE8872F762F05C01E
:10420000662371F096E8862F70E060E02AF09A95B8
:10421000660F771F881FDAF7880F9695879597F9AD
:104220000895E894F92F96EBFF2381F012161306F8
:104230001406440B9395F695879577956795579552
:104240004040FF23B9F71BC099270895882351F4F4
:104250009850D2F7872B762F652F542F432F322F6C
:1042600020E0B1F3121613061406440B88233AF02B
:104270009A95440F551F661F771F881FCAF755234D
:104280004AF4440F551F11F460FF04C06F5F7F4F65
:104290008F4F9F4F880F9695879597F9089597F9B7
:1042A0009F6780E870E060E008959FEF80EC0895DC
:1042B00000240A9416161706180609060895002405
:1042C0000A9412161306140605060895092E03947F
:1042D000000C11F4882352F0BB0F40F4BF2B11F4F3
:1042E00060FF04C06F5F7F4F8F4F9F4F089557FD52
:1042F0009058440F551F59F05F3F71F04795880F54
:1043000097FB991F61F09F3F79F0879508951216EA
:1043100013061406551FF2CF4695F1DF08C0161696
:1043200017061806991FF1CF869571056105089447
:104330000895E894BB2766277727CB0197F908955E
:10434000DEDF58F19E5758F19851A0F0E9F098300F
:1043500020F5092E9927660F771F881F991F0A9449
:10436000D1F712C0062E672F782F8827985F11F497
:10437000000C07C0993FB4F38695779567959395A0
:10438000D9F7611D711D811D3EF490958095709542
:1043900061957F4F8F4F9F4F08956894CBCFC9CFC2
:1043A0000BD094CF85DF28F08ADF18F0952309F031
:1043B00076CF7BCF1124BECF9ADFA0F3959FD1F3A8
:1043C000950F50E0551F629FF001729FBB27F00DC3
:1043D000B11D639FAA27F00DB11DAA1F649F662718
:1043E000B00DA11D661F829F2227B00DA11D621F67
:1043F000739FB00DA11D621F839FA00D611D221F21
:10440000749F3327A00D611D231F849F600D211D04
:10441000822F762F6A2F11249F5750408AF0E1F0A7
:1044200088234AF0EE0FFF1FBB1F661F771F881FF0
:1044300091505040A9F79E3F510570F030CF7ACF90
:104440005F3FECF3983EDCF3869577956795B795DB
:10445000F795E7959F5FC1F7FE2B880F911D969505
:10446000879597F90895FA01EE0FFF1F3096210501
:10447000310599F16115710561F48038BFE39B073F
:1044800049F168949038810561F08038BFEF9B074F
:1044900041F0992342F5FF3FE1053105210511F176
:1044A000E8940894E795D901AA2329F4AB2FBE2FED
:1044B000F85FD0F310C0FF5F70F4A695E0F7F7390E
:1044C00050F019F0FF3A38F49F779F930CD00F907B
:1044D00007FC905808953EF0E8CE60E070E080E878
:1044E0009FE308954FE79F775F934F933F932F93F9
:1044F0009ED02F913F914F915F9152DF05C019F4EB
:104500000EF0CDCE16CFD1CEFADEC8F39638C0F776
:1045100007F80F92E8942BE33AEA48EB5FE74EDFA7
:104520000F920F920F924DB75EB70F92C0D0E6EC8C
:10453000F0E016D04F915F91EF91FF91E595EE1F5E
:10454000FF1F49F0FE57E0684427EE0F441FFA951D
:10455000E1F74195550B32D00F9007FE26C0089524
:10456000DF93CF931F930F93FF92EF92DF927B0124
:104570008C01689405C0DA2EEF011EDFFE01E8947D
:10458000A5912591359145915591AEF3EF01D4D088
:10459000FE019701A801DA9479F7DF90EF90FF9080
:1045A0000F911F91CF91DF9108959B01AC0160E0C5
:1045B00070E080E89FE35FCD72CE11C1A0DEE8F32A
:1045C0009923D9F3940F511DBBF39150504094F0AF
:1045D00059F0882332F0660F771F881F91505040A2
:1045E000C1F79E3F510544F7880F911D9695879519
:1045F00097F908955F3FACF0983E9CF0BB278695F5
:1046000077956795B79508F4B1609395C1F7BB0F9F
:1046100058F711F460FFE8CF6F5F7F4F8F4F9F4FC8
:10462000E3CF88CE0EF0DBC040CE689438CE67DE94
:10463000C8F39923D1F3C6F3DF93CF931F930F935E
:10464000FF92C92FDD2788232AF02197660F771F55
:10465000881FDAF720E030E040E85FEB9FE388391D
:1046600020F0803E30F021968F7755D0EEEEF0E0CE
:1046700003C051D0EBE1F1E073DF8B01BE01EC012F
:10468000FB2E6F5771097595771F880B990B8EDD7F
:1046900028E132E741E35FE38FDEAF2D9801AE0101
:1046A000FF900F911F91CF91DF9146D00FCEFA016D
:1046B000DC01AA0FBB1F9B01AC01BF5728F42227C6
:1046C0003327442750781FC0B75188F4AB2F0024FC
:1046D000469537952795011CA395D2F3002069F0E4
:1046E000220F331F441FB395DAF30DD013C061308E
:1046F0007105A0E88A07B94630F49B01AC01662732
:10470000772788279078309621F020833183428361
:10471000538308955058BB27AA270ED0D7CDC8DDA4
:1047200030F0CDDD20F031F49F3F11F41EF4BDCD0B
:104730000EF4E095E7FBB3CDE92FD9DD80F3BA178E
:10474000620773078407950718F071F49EF5F1CDA1
:104750000EF4E0950B2EBA2FA02D0B01B90190019C
:104760000C01CA01A0011124FF27591B99F0593FE0
:1047700050F4503E68F11A16F040A22F232F342F28
:104780004427585FF3CF469537952795A795F04076
:104790005395C9F77EF41F16BA0B620B730B840B8B
:1047A000BAF09150A1F0FF0FBB1F661F771F881F43
:1047B000C2F70EC0BA0F621F731F841F48F487959B
:1047C00077956795B795F7959E3F08F0B3CF93958A
:1047D000880F08F09927EE0F9795879508959F3FCA
:1047E00031F0915020F4879577956795B795880FAC
:1047F000911D9695879597F90895629FD001739FB3
:10480000F001829FE00DF11D649FE00DF11D929F6C
:10481000F00D839FF00D749FF00D659FF00D9927AB
:10482000729FB00DE11DF91F639FB00DE11DF91FCF
:10483000BD01CF0111240895991B79E004C0991F8F
:10484000961708F0961B881F7A95C9F780950895EA
:10485000AA1BBB1B51E107C0AA1FBB1FA617B707A6
:1048600010F0A61BB70B881F991F5A95A9F78095C2
:104870009095BC01CD01089597FB092E07260AD01B
:1048800077FD04D0E5DF06D000201AF4709561951D
:104890007F4F0895F6F7909581959F4F089597FB68
:1048A000092E05260ED057FD04D014D00AD0001CC6
:1048B00038F450954095309521953F4F4F4F5F4FBD
:1048C0000895F6F790958095709561957F4F8F4F7D
:1048D0009F4F0895A1E21A2EAA1BBB1BFD010DC01C
:1048E000AA1FBB1FEE1FFF1FA217B307E407F507A0
:1048F00020F0A21BB30BE40BF50B661F771F881F7C
:10490000991F1A9469F760957095809590959B0111
:10491000AC01BD01CF0108952F923F924F925F925B
:104920006F927F928F929F92AF92BF92CF92DF92BF
:10493000EF92FF920F931F93CF93DF93CDB7DEB724
:10494000CA1BDB0B0FB6F894DEBF0FBECDBF0994B8
:104950002A88398848885F846E847D848C849B840F
:10496000AA84B984C884DF80EE80FD800C811B811D
:10497000AA81B981CE0FD11D0FB6F894DEBF0FBE4C
:10498000CDBFED0108950F931F93CF93DF93689FE1
:104990008001699F100D789F100D1124C8010E949D
:1049A000DF24EC01009729F060E070E0A8010E948C
:1049B0001B27CE01DF91CF911F910F910895CF93C7
:1049C000DF93BC018230910510F462E070E0A091A9
:1049D000B902B091BA02ED01E0E0F0E040E050E051
:1049E00021C0888199818617970769F48A819B8104
:1049F000309719F09383828304C09093BA02809316
:104A0000B902FE0134C06817790738F44115510521
:104A100019F08417950708F4AC01FE018A819B8187
:104A20009C01E9012097E9F641155105A9F1CA0158
:104A3000861B970B049708F4BA01E0E0F0E02AC067
:104A40008D919C91119784179507F9F46417750758
:104A500081F412968D919C911397309719F093835E
:104A6000828304C09093BA028093B902FD0132960A
:104A70004FC0CA01861B970BFD01E80FF91F619318
:104A8000719302978D939C9343C0FD018281938122
:104A90009C01D9011097A1F68091B7029091B802BC
:104AA000892B41F480910201909103019093B80207
:104AB0008093B702409104015091050141155105C1
:104AC00041F44DB75EB78091000190910101481B00
:104AD000590B2091B7023091B80224173507B0F472
:104AE000CA01821B930B8617970780F0AB014E5FBC
:104AF0005F4F8417950750F0420F531F5093B80231
:104B00004093B702F9016193719302C0E0E0F0E0D5
:104B1000CF01DF91CF910895CF93DF93009709F4F0
:104B200050C0EC0122971B821A82A091B902B09169
:104B3000BA02109709F140E050E0AC17BD0708F148
:104B4000BB83AA83FE0121913191E20FF31FAE17BF
:104B5000BF0779F48D919C911197280F391F2E5F13
:104B60003F4F3983288312968D919C9113979B8395
:104B70008A834115510571F4D093BA02C093B902EA
:104B800020C012968D919C911397AD01009711F062
:104B9000DC01D3CFFA01D383C28321913191E20F9B
:104BA000F31FCE17DF0769F488819981280F391F19
:104BB0002E5F3F4FFA01318320838A819B8193834B
:104BC0008283DF91CF9108952F923F925F926F92EF
:104BD0007F928F929F92AF92BF92CF92DF92EF928D
:104BE000FF920F931F93CF93DF938C011B01EA0178
:104BF0006115710519F0FB0191838083209749F0BD
:104C0000CE010297839728F020E030E040E050E0AA
:104C1000F6C0F801A1908F018A2D90E00E94132721
:104C2000892BB9F7FDE2AF1631F4F801A1908F019D
:104C30005524539407C0FBE2AF1619F4F801A19074
:104C40008F015524209719F0C031D105C1F4F0E34C
:104C5000AF1679F4F8018081883711F0883549F46E
:104C6000F801A1800E5F1F4FF2E05F2AC0E1D0E0A3
:104C700006C0209721F480E3A816E9F427C0C830C5
:104C8000D10531F1C930D10524F4C230D10531F557
:104C90000CC0CA30D10589F0C031D105F9F4C12C5E
:104CA000D12CE12CB8E0FB2E28C0C12CD12CE12C5A
:104CB000A0E4FA2E22C0CAE0D0E0FCECCF2EFCEC3F
:104CC000DF2EFCECEF2EFCE0FF2E17C0C8E0D0E09A
:104CD000C12CD12CE12CE0E1FE2E0FC09E01442717
:104CE00037FD4095542F60E070E080E090E80E942E
:104CF0006A24C901DA016C017D0120E030E040E066
:104D000050E060E03E01882477FC8094982C70EDA0
:104D1000B72EBA0CE9E0EB1570F48A2D81548A3174
:104D200018F499ECB92E06C08A2D81568A3150F5B7
:104D300089EAB82EBA0C8B2D90E08C179D0714F5DC
:104D40006F3FE1F0C216D306E406F506B0F0CA01E3
:104D5000B901A40193010E94FD239B01AC012B0D1D
:104D6000311D411D511D2130F0E03F07F0E04F079C
:104D7000F0E85F0710F461E001C06FEFF801A19067
:104D80008F01C5CF2114310481F0662331F0015029
:104D90001040F1011183008308C051FE1AC0025077
:104DA0001040F1011183008314C067FF12C050FC52
:104DB00005C02FEF3FEF4FEF5FE704C020E030E08A
:104DC00040E050E882E290E09093BC028093BB0206
:104DD00016C050FE08C050954095309521953F4F24
:104DE0004F4F5F4F0CC057FF0AC082E290E0909394
:104DF000BC028093BB022FEF3FEF4FEF5FE7B9019B
:104E0000CA01DF91CF911F910F91FF90EF90DF903A
:104E1000CF90BF90AF909F908F907F906F905F905A
:104E20003F902F90089591111DC2803219F0895042
:104E30008550D0F70895DC0101C06D93415050407A
:104E4000E0F70895A0E0B0E0E8E2F7E20C949A24DD
:104E50000F8118859E01255F3F4FF801838188608F
:104E60008383C80169857A85A9010E943F27F801DB
:104E70002381277F23832096E4E00C94B624ABE0C3
:104E8000B0E0E5E4F7E20C948C243C012B015A01DC
:104E9000FC0117821682838181FD03C06FEF7FEFD3
:104EA000C6C19AE0892E1E010894211C311CF30111
:104EB0002381F20123FD859123FF81912F01882316
:104EC00009F4B2C1853239F423FD859123FF819124
:104ED0002F01853229F490E0B3010E944B29E7CFDE
:104EE000982FFF24EE249924FFE1FF15D0F09B3288
:104EF00069F09C3228F4903259F0933291F40EC04C
:104F00009D3249F0903369F441E024C052E0F52A23
:104F100084E0F82A28C098E0F92A25C0E0E1FE2ABA
:104F200022C0F7FC29C0892F80538A3070F4F6FE26
:104F300005C0989C902C1124980E15C0E89CE02C7C
:104F40001124E80EF0E2FF2A0EC09E3229F4F6FC8E
:104F50006BC140E4F42A07C09C3619F450E8F52AE6
:104F600002C0983649F4F20123FD959123FF9191F7
:104F70002F01992309F0B8CF892F8554833018F079
:104F80008052833038F444E050E0A40EB51E5FE355
:104F900059830FC0933631F0933779F0933509F088
:104FA00056C020C0F5018081898342E050E0A40E04
:104FB000B51E610101E010E012C0F501C080D18092
:104FC000F6FC03C06FEF7FEF02C0692D70E042E096
:104FD00050E0A40EB51EC6010E9440298C015FE777
:104FE000F52214C0F501C080D180F6FC03C06FEF3C
:104FF0007FEF02C0692D70E042E050E0A40EB51EC4
:10500000C6010E9435298C0150E8F52AF3FE07C03D
:105010001AC080E290E0B3010E944B29EA948E2DE1
:1050200090E008171907A8F30EC0F601F7FC859168
:10503000F7FE81916F0190E0B3010E944B29E110CE
:10504000EA94015010400115110579F7EAC0943631
:1050500011F0993669F5F7FE08C0F501208131811C
:105060004281538184E090E00AC0F5018081918102
:105070009C01442737FD4095542F82E090E0A80E14
:10508000B91E9FE6F92257FF09C05095409530950B
:1050900021953F4F4F4F5F4FE0E8FE2ACA01B9010B
:1050A000A1012AE030E00E947729D82ED21840C012
:1050B000953729F41F2D1F7E2AE030E01DC01F2DDB
:1050C000197F9F3661F0903720F4983509F0ACC015
:1050D0000FC0903739F0983709F0A6C004C028E017
:1050E00030E00AC0106114FD146020E130E004C01B
:1050F00014FD166020E132E017FF08C0F501608161
:1051000071818281938144E050E008C0F501808183
:105110009181BC0180E090E042E050E0A40EB51E19
:10512000A1010E947729D82ED2188FE7F82EF122FC
:10513000F6FE0BC05EEFF522D91438F4F4FE07C07A
:10514000F2FC05C08FEEF82202C01D2D01C0192D02
:10515000F4FE0DC0FE01ED0DF11D8081803319F4C8
:1051600099EEF92208C01F5FF2FE05C003C08F2D23
:10517000867809F01F5F0F2DF3FC14C0F0FE0FC0FE
:105180001E1510F09D2C0BC09D2C9E0C911A1E2DEF
:1051900006C080E290E0B3010E944B291F5F1E15FC
:1051A000C0F304C01E1510F4E11A01C0EE2404FF80
:1051B0000FC080E390E0B3010E944B2902FF1DC0A5
:1051C00001FD03C088E790E00EC088E590E00BC0C9
:1051D000802F867891F001FF02C08BE201C080E24F
:1051E000F7FC8DE290E0B3010E944B2906C080E3FA
:1051F00090E0B3010E944B299A94D914C0F3DA9439
:10520000F101ED0DF11D808190E0B3010E944B2969
:10521000DD20A9F706C080E290E0B3010E944B298F
:10522000EA94EE20C1F743CEF30166817781CB018A
:105230002B96E2E10C94A824F999FECF92BD81BD92
:10524000F89A992780B50895262FF999FECF1FBAAD
:1052500092BD81BD20BD0FB6F894FA9AF99A0FBE9F
:1052600001960895992788270895FC0105906150BB
:1052700070400110D8F7809590958E0F9F1F08956C
:10528000FC016150704001900110D8F78095909515
:105290008E0F9F1F08950F931F93CF93DF938C0161
:1052A000EB018B8181FF1BC082FF0DC02E813F81EE
:1052B0008C819D812817390764F4E881F981019375
:1052C000F983E88306C0E885F985802F0995892B45
:1052D00031F48E819F8101969F838E8302C00FEFF0
:1052E0001FEFC801DF91CF911F910F910895FA012F
:1052F000AA27283051F1203181F1E8946F936E7F15
:105300006E5F7F4F8F4F9F4FAF4FB1E03ED0B4E005
:105310003CD0670F781F891F9A1FA11D680F791F46
:105320008A1F911DA11D6A0F711D811D911DA11D57
:1053300020D009F468943F912AE0269F1124301967
:10534000305D3193DEF6CF010895462F4770405D02
:105350004193B3E00FD0C9F7F6CF462F4F70405DB1
:105360004A3318F0495D31FD4052419302D0A9F70C
:10537000EACFB4E0A6959795879577956795BA9506
:10538000C9F700976105710508959B01AC010A2ECC
:1053900006945795479537952795BA95C9F7620FA3
:0E53A000731F841F951FA01D0895F894FFCF62
:1053AE002000BD0200000000000200000000C41634
:1053BE00000000000000000200000000C416000003
:1053CE0000000000000000000000000000000000CF
:0A53DE0000000000000000000000C5
:00000001FF
