:100000000C94ED0B0C940A0C0C940A0C0C940A0C36
:100010000C940A0C0C940A0C0C940A0C0C940A0C08
:100020000C940A0C0C940A0C0C940A0C0C940A0CF8
:100030000C943F270C94B51B0C940A0C0C94E627E7
:100040000C94001D0C94F61C0C940A0C0C940A0CD5
:100050000C94C4250C940A0C0C9472250C940A0C74
:100060000C948F1E0C940A0C0C940A0C0C940A0C21
:100070000C945D260C940A0C0C940B260923132374
:100080001F232B23372343234F235B2367236A2319
:10009000762382238E239A23A623B223BE23C12351
:1000A000C523C923CD23D123D523D923DD23E123A0
:1000B000E523E923ED23F123F523F923FD2301248F
:1000C000052409240D241124152419241D24212478
:1000D000252429242D243124352439243D24412468
:1000E000452448244B244E245124542458245C2471
:1000F0006024642407634236B79BD8A71A39685630
:1001000018AEBAAB558C1D3CB7CC5763BD6DEDFD39
:10011000753EF6177231BF000000803F08000000F6
:10012000BE922449123EABAAAA2ABECDCCCC4C3EEC
:1001300000000080BEABAAAAAA3E00000000BF00DB
:100140000000803F0000000000084178D3BB4387D7
:10015000D1133D190E3CC3BD4282AD2B3E68EC82EB
:1001600076BED98FE1A93E4C80EFFFBE01C4FF7F70
:100170003F00000000000D0A002C20723D20002CE2
:10018000206C3D20002C20623D20006D6F746F724A
:100190002073706565643A20663D20000D0A007486
:1001A00068726F74746C655F636D643A20000D0A49
:1001B000007961775F6D6F743A20000D0A00202B83
:1001C00020007961775F6779726F5F76616C3A20A2
:1001D000000D0A0070697463685F6D6F743A2000E7
:1001E0000D0A0070697463685F7467745F7261748C
:1001F000653A20000D0A00726F6C6C5F6D6F743A87
:1002000020000D0A00726F6C6C5F7467745F72611E
:1002100074653A20000D0A00202D20007468726F6A
:1002200074746C655F70706D3A20000D0A00202DAB
:1002300020007961775F70706D3A20000D0A002010
:100240002D200070697463685F70706D3A20000D36
:100250000A00202D2000726F6C6C5F70706D3A2068
:10026000000D0A002C2070697463683A2000616EEA
:1002700067202F206B3A20726F6C6C3A20000D0AB9
:10028000002C2070697463683A2000616E673A2020
:10029000726F6C6C3A20000D0A002C207069746338
:1002A000683A2000747269673A20726F6C6C3A2069
:1002B000000D0A0064656C74615F74696D653A20B5
:1002C000000D0A002C2070697463683A2000677979
:1002D000726F5F63616C3A20726F6C6C3A20000D34
:1002E0000A002C2070697463683A20006779726F85
:1002F0005F76616C3A20726F6C6C3A20000D0A00D8
:100300002C20766572743A20002C20706974636822
:100310003A2000616363656C5F76616C3A20726FAE
:100320006C6C3A20000D0A002C206F6E655F475FF1
:1003300076616C3A20007A65726F5F475F76616C18
:100340003A20000D0A00202B20003A200070706D2A
:1003500020000D0A00202D20003A200073656E73E6
:100360006F72200000000000500000009F0000009D
:10037000EF0000003E0100008E010000DD010000E2
:100380002D0200007D020000CC0200001C030000D2
:100390006B030000BB0300000B0400005A040000C4
:1003A000AA040000F90400004905000099050000B6
:1003B000E80500003806000087060000D7060000A8
:1003C0002707000076070000C60700001508000098
:1003D00065080000B5080000040900005409000089
:1003E000A4090000F3090000430A0000930A00007A
:1003F000E20A0000320B0000820B0000D10B00006B
:10040000210C0000710C0000C00C0000100D000059
:10041000600D0000B00D0000FF0D00004F0E000049
:100420009F0E0000EF0E00003E0F00008E0F000038
:10043000DE0F00002E1000007D100000CD10000027
:100440001D1100006D110000BD1100000C12000014
:100450005C120000AC120000FC1200004C13000003
:100460009C130000EC1300003C1400008B140000EF
:10047000DB1400002B1500007B150000CB150000DD
:100480001B1600006B160000BB1600000B170000C7
:100490005B170000AB170000FB1700004B180000B3
:1004A0009B180000EB1800003B1900008C1900009D
:1004B000DC1900002C1A00007C1A0000CC1A000085
:1004C0001C1B00006C1B0000BD1B00000D1C00006D
:1004D0005D1C0000AD1C0000FD1C00004E1D000056
:1004E0009E1D0000EE1D00003F1E00008F1E00003C
:1004F000DF1E0000301F0000801F0000D01F000022
:100500002120000071200000C22000001221000004
:1005100062210000B32100000322000054220000E9
:10052000A4220000F52200004623000096230000CC
:10053000E72300003724000088240000D9240000AD
:10054000292500007A250000CB2500001C2600008C
:100550006C260000BD2600000E2700005F2700006B
:10056000AF2700000028000051280000A22800004A
:10057000F32800004429000095290000E629000026
:10058000372A0000882A0000D92A00002A2B000000
:100590007B2B0000CC2B00001D2C00006F2C0000DA
:1005A000C02C0000112D0000622D0000B32D0000B2
:1005B000052E0000562E0000A72E0000F92E000088
:1005C0004A2F00009B2F0000ED2F00003E3000005E
:1005D00090300000E1300000333100008431000031
:1005E000D63100002832000079320000CB32000002
:1005F0001D3300006E330000C033000012340000D1
:1006000064340000B534000007350000593500009F
:10061000AB350000FD3500004F360000A13600006C
:10062000F33600004537000097370000E937000037
:100630003B3800008E380000E038000032390000FE
:1006400084390000D7390000293A00007B3A0000C5
:10065000CE3A0000203B0000723B0000C53B00008A
:10066000173C00006A3C0000BD3C00000F3D00004C
:10067000623D0000B53D0000073E00005A3E00000C
:10068000AD3E0000003F0000523F0000A53F0000CB
:10069000F83F00004B4000009E400000F140000089
:1006A0004441000097410000EB4100003E42000041
:1006B00091420000E4420000384300008B430000F8
:1006C000DE4300003244000085440000D9440000AD
:1006D0002C45000080450000D3450000274600005F
:1006E0007A460000CE460000224700007647000010
:1006F000CA4700001D48000071480000C5480000BE
:10070000194900006D490000C1490000164A000067
:100710006A4A0000BE4A0000124B0000664B00000F
:10072000BB4B00000F4C0000644C0000B84C0000B4
:100730000D4D0000614D0000B64D00000A4E000056
:100740005F4E0000B44E0000094F00005E4F0000F5
:10075000B24F0000075000005C500000B150000094
:10076000065100005B510000B1510000065200002C
:100770005B520000B0520000065300005B530000C3
:10078000B1530000065400005C540000B154000056
:10079000075500005D550000B255000008560000E6
:1007A0005E560000B45600000A5700006057000073
:1007B000B65700000C58000062580000B9580000FD
:1007C0000F59000065590000BC590000125A000082
:1007D000695A0000BF5A0000165B00006D5B000004
:1007E000C35B00001A5C0000715C0000C85C000084
:1007F0001F5D0000765D0000CD5D0000245E0000FE
:100800007B5E0000D35E00002A5F0000815F000075
:10081000D95F00003060000088600000E0600000E8
:10082000376100008F610000E76100003F62000057
:1008300097620000EF620000476300009F630000C2
:10084000F76300004F640000A8640000006500002A
:1008500058650000B16500000A660000626600008D
:10086000BB660000146700006D670000C6670000EB
:100870001F68000078680000D16800002A69000045
:1008800083690000DD690000366A0000906A00009C
:10089000E96A0000436B00009D6B0000F66B0000EE
:1008A000506C0000AA6C0000046D00005E6D00003A
:1008B000B86D0000136E00006D6E0000C76E000082
:1008C000226F00007C6F0000D76F000032700000C4
:1008D0008C700000E7700000427100009D71000004
:1008E000F871000054720000AF7200000A7300003B
:1008F00066730000C17300001D740000787400006E
:10090000D4740000307500008C750000E87500009C
:1009100044760000A0760000FD76000059770000C4
:10092000B5770000127800006E780000CB780000E8
:100930002879000085790000E27900003F7A000004
:100940009C7A0000F97A0000577B0000B47B00001D
:10095000127C00006F7C0000CD7C00002B7D00002D
:10096000897D0000E77D0000457E0000A37E000039
:10097000027F0000607F0000BF7F00001D8000003C
:100980007C800000DB8000003A810000998100003B
:10099000F881000057820000B68200001683000034
:1009A00075830000D5830000358400009584000025
:1009B000F584000055850000B5850000158600000F
:1009C00076860000D68600003787000097870000F3
:1009D000F887000059880000BA8800001C890000D0
:1009E0007D890000DE890000408A0000A28A0000A4
:1009F000038B0000658B0000C78B00002A8C000071
:100A00008C8C0000EE8C0000518D0000B38D000036
:100A1000168E0000798E0000DC8E00003F8F0000F3
:100A2000A28F00000690000069900000CD900000A9
:100A30003191000095910000F99100005D92000055
:100A4000C1920000269300008A930000EF930000FB
:100A500054940000B99400001E9500008495000095
:100A6000E99500004F960000B49600001A97000028
:100A700080970000E69700004D980000B3980000B2
:100A80001A99000080990000E79900004E9A000032
:100A9000B69A00001D9B0000859B0000EC9B0000A7
:100AA000549C0000BC9C0000249D00008C9D000014
:100AB000F59D00005E9E0000C69E00002F9F000076
:100AC000989F000002A000006BA00000D5A00000CD
:100AD0003FA10000A9A1000013A200007DA2000018
:100AE000E8A2000052A30000BDA3000028A400005B
:100AF00093A40000FFA400006AA50000D6A5000092
:100B000042A60000AEA600001BA7000087A70000B9
:100B1000F4A7000061A80000CEA800003BA90000D7
:100B2000A9A9000016AA000084AA0000F2AA0000E9
:100B300060AB0000CFAB00003EAC0000ADAC0000ED
:100B40001CAD00008BAD0000FBAD00006AAE0000E4
:100B5000DAAE00004AAF0000BBAF00002BB00000CF
:100B60009CB000000DB100007FB10000F0B10000AA
:100B700062B20000D4B2000046B30000B9B3000076
:100B80002BB400009EB4000011B5000085B5000034
:100B9000F9B500006CB60000E1B6000055B70000E2
:100BA000CAB700003FB80000B4B8000029B900007F
:100BB0009FB9000015BA00008BBA000002BB00000C
:100BC00078BB0000EFBB000067BC0000DEBC00008B
:100BD00056BD0000CEBD000047BE0000C0BE0000F4
:100BE00039BF0000B2BF00002CC00000A5C000004B
:100BF00020C100009AC1000015C2000090C2000090
:100C00000CC3000087C3000004C4000080C40000BF
:100C1000FDC400007AC50000F7C5000075C60000DD
:100C2000F3C6000072C70000F0C700006FC80000E4
:100C3000EFC800006FC90000EFC9000070CA0000D3
:100C4000F0CA000072CB0000F3CB000076CC0000AD
:100C5000F8CC00007BCD0000FECD000082CE00006D
:100C600006CF00008ACF00000FD0000094D0000013
:100C70001AD10000A0D1000026D20000ADD20000A1
:100C800035D30000BDD3000045D40000CED4000011
:100C900057D50000E0D500006BD60000F5D6000067
:100CA00080D700000CD8000098D8000024D900009C
:100CB000B2D900003FDA0000CDDA00005CDB0000B2
:100CC000EBDB00007BDC00000BDD00009CDD0000A6
:100CD0002DDE0000BFDE000051DF0000E5DF000078
:100CE00078E000000CE10000A1E1000037E2000024
:100CF000CDE2000064E30000FBE3000093E40000A9
:100D00002CE50000C5E500005FE60000FAE6000003
:100D100095E7000032E80000CEE800006CE9000032
:100D20000AEA0000AAEA000049EB0000EAEB000032
:100D30008CEC00002EED0000D1ED000075EE0000FF
:100D40001AEF0000BFEF000066F000000DF1000098
:100D5000B6F100005FF2000009F30000B5F30000F7
:100D600061F400000EF50000BCF500006BF6000019
:100D70001CF70000CDF7000080F8000033F90000F8
:100D8000E8F900009EFA000055FB00000EFC000090
:100D9000C7FC000082FD00003EFE0000FCFE0000DB
:100DA000BBFF00007B0001003D01010000020100CB
:100DB000C50201008C030100530401001D05010060
:100DC000E8050100B5060100840701005408010090
:100DD00027090100FB090100D10A0100AA0B01004B
:100DE000840C0100610D01003F0E0100200F010085
:100DF00004100100EA100100D2110100BD1201002F
:100E0000AB1301009C1401008F1501008616010030
:100E1000801701007D1801007E190100821A01006F
:100E20008A1B0100961C0100A61D0100BA1E0100CC
:100E3000D31F0100F1200100132201003C23010017
:100E4000692401009D250100D72601001828010012
:100E500060290100B02A0100082C0100692D010061
:100E6000D52E01004B300100CC3101005B33010075
:100E7000F8340100A536010064380100383A010059
:100E8000233C01002B3E010054400100A64201001A
:100E90002C450100F6470100204B0100E04E010007
:100EA000C4530100905F010035392C2075696E74C0
:100EB00033325F7420282564292C20627574746F86
:100EC0006E5F686F6C645F646F776E3A2025640DA7
:100ED0000A0035382C20696E7433325F742028255F
:100EE00064292C20636F6D705F66696C7465725F36
:100EF000773A2025640D0A0035372C20696E74334B
:100F0000325F7420282564292C20747269675F6D14
:100F1000756C74695F636F6E73743A2025640D0A93
:100F20000035362C20696E7433325F7420282564B6
:100F3000292C2064656C74615F74696D655F636FF3
:100F40006E73743A2025640D0A0035352C207569BE
:100F50006E74385F7420282564292C206779726F9D
:100F60005F6D697363616C6962726174655F7468F7
:100F7000726573686F6C643A2025640D0A0035341D
:100F80002C2075696E74385F7420282564292C2004
:100F9000756E6C6F636B5F70706D5F6368616E3AE6
:100FA0002025640D0A0035332C2075696E74385F76
:100FB0007420282564292C20726F6C6C5F70706D12
:100FC0005F6368616E3A2025640D0A0035322C207B
:100FD00075696E74385F7420282564292C20706927
:100FE0007463685F70706D5F6368616E3A2025643A
:100FF0000D0A0035312C2075696E74385F74202815
:101000002564292C207468726F74746C655F70702D
:101010006D5F6368616E3A2025640D0A0035302CDF
:101020002075696E74385F7420282564292C207916
:1010300061775F70706D5F6368616E3A2025640D43
:101040000A0034392C20696E7433325F74202825ED
:1010500064292C207961775F6B643A2025640D0A3E
:101060000034382C20696E7433325F742028256474
:10107000292C207961775F6B693A2025640D0A007D
:1010800034372C20696E7433325F7420282564292C
:101090002C207961775F6B703A2025640D0A00344B
:1010A000362C20696E7433325F7420282564292C15
:1010B0002070697463685F726174655F6B643A2065
:1010C00025640D0A0034352C20696E7433325F7448
:1010D00020282564292C2070697463685F7261740C
:1010E000655F6B693A2025640D0A0034342C206951
:1010F0006E7433325F7420282564292C2070697443
:1011000063685F726174655F6B703A2025640D0AD5
:101110000034332C20696E7433325F7420282564C8
:10112000292C20726F6C6C5F726174655F6B643A1E
:101130002025640D0A0034322C20696E7433325F2E
:101140007420282564292C20726F6C6C5F72617486
:10115000655F6B693A2025640D0A0034312C2069E3
:101160006E7433325F7420282564292C20726F6CD2
:101170006C5F726174655F6B703A2025640D0A00C4
:1011800034302C20696E7433325F74202825642932
:101190002C2070697463685F6C6576656C5F6B6446
:1011A0003A2025640D0A0033392C20696E743332DD
:1011B0005F7420282564292C2070697463685F6C33
:1011C0006576656C5F6B693A2025640D0A003338DB
:1011D0002C20696E7433325F7420282564292C20FA
:1011E00070697463685F6C6576656C5F6B703A20DC
:1011F00025640D0A0033372C20696E7433325F7416
:1012000020282564292C20726F6C6C5F6C657665D4
:101210006C5F6B643A2025640D0A0033362C20691C
:101220006E7433325F7420282564292C20726F6C11
:101230006C5F6C6576656C5F6B693A2025640D0A9E
:101240000033352C20696E7433325F742028256496
:10125000292C20726F6C6C5F6C6576656C5F6B70AF
:101260003A2025640D0A0033342C20696E74333221
:101270005F7420282564292C207468726F74746C44
:10128000655F686F7665723A2025640D0A00333316
:101290002C20696E7433325F7420282564292C2039
:1012A0007468726F74746C655F70706D5F73636186
:1012B0006C653A2025640D0A0033322C20696E7467
:1012C00033325F7420282564292C207961775F6789
:1012D00079726F5F7363616C653A2025640D0A0053
:1012E00033312C20696E7433325F742028256429D1
:1012F0002C2070697463685F6779726F5F736361D4
:101300006C653A2025640D0A0033302C20696E7418
:1013100033325F7420282564292C20726F6C6C5F37
:101320006779726F5F7363616C653A2025640D0A9B
:101330000032392C20696E7433325F7420282564A2
:10134000292C2070697463685F70706D5F736361CE
:101350006C653A2025640D0A0032382C20696E74C1
:1013600033325F7420282564292C20726F6C6C5FE7
:1013700070706D5F7363616C653A2025640D0A00BF
:1013800032372C20696E7433325F7420282564292B
:101390002C207468726F74746C655F70706D5F631D
:1013A000656E7465723A2025640D0A0032362C2071
:1013B000696E7433325F7420282564292C2079618A
:1013C000775F70706D5F63656E7465723A20256437
:1013D0000D0A0032352C20696E7433325F74202878
:1013E0002564292C2070697463685F70706D5F6379
:1013F000656E7465723A2025640D0A0032342C2023
:10140000696E7433325F7420282564292C20726F32
:101410006C6C5F70706D5F63656E7465723A2025E9
:10142000640D0A0032332C20696E7433325F7420ED
:10143000282564292C20726F6C6C5F6779726F5F4E
:10144000746F5F726174653A2025640D0A00323250
:101450002C20696E7433325F7420282564292C2077
:1014600070697463685F6779726F5F746F5F7261D0
:1014700074653A2025640D0A0032312C20696E749F
:1014800033325F7420282564292C20726F6C6C5FC6
:10149000616E676C655F6F66667365743A2025647C
:1014A0000D0A0032302C20696E7433325F742028AC
:1014B0002564292C2070697463685F616E676C65B0
:1014C0005F6F66667365743A2025640D0A003139D2
:1014D0002C20696E7433325F7420282564292C20F7
:1014E0007961775F6779726F5F63656E7465723A71
:1014F0002025640D0A0031382C20696E7433325F68
:101500007420282564292C2070697463685F6779CA
:10151000726F5F63656E7465723A2025640D0A0010
:1015200031372C20696E7433325F7420282564298A
:101530002C20726F6C6C5F6779726F5F63656E747D
:1015400065723A2025640D0A0031362C20696E74CC
:1015500033325F7420282564292C20766572745FED
:10156000616363656C5F746F703A2025640D0A00D7
:1015700031352C20696E7433325F7420282564293C
:101580002C20766572745F616363656C5F626F7453
:101590003A2025640D0A0031342C20696E743332F0
:1015A0005F7420282564292C2070697463685F614A
:1015B0006363656C5F746F703A2025640D0A0031B7
:1015C000332C20696E7433325F7420282564292CF3
:1015D0002070697463685F616363656C5F63656EE7
:1015E0007465723A2025640D0A0031322C20696E30
:1015F0007433325F7420282564292C207069746349
:10160000685F616363656C5F626F743A2025640D87
:101610000A0031312C20696E7433325F7420282522
:1016200064292C20726F6C6C5F616363656C5F74FE
:101630006F703A2025640D0A0031302C20696E74D9
:1016400033325F7420282564292C20726F6C6C5F04
:10165000616363656C5F63656E7465723A202564CF
:101660000D0A00392C20696E7433325F74202825EE
:1016700064292C20726F6C6C5F616363656C5F62C0
:101680006F743A2025640D0A00382C2075696E7439
:10169000385F7420282564292C206D6F746F725F69
:1016A0006D6F64653A2025640D0A00372C20696E41
:1016B0007433325F7420282564292C20725F6D6F8B
:1016C000745F7363616C653A2025640D0A00362CE3
:1016D00020696E7433325F7420282564292C206CB5
:1016E0005F6D6F745F7363616C653A2025640D0AEA
:1016F00000352C20696E7433325F742028256429EC
:101700002C20625F6D6F745F7363616C653A202596
:10171000640D0A00342C20696E7433325F74202803
:101720002564292C20665F6D6F745F7363616C653F
:101730003A2025640D0A00332C20696E7433325F21
:101740007420282564292C20725F6D6F745F626F8E
:10175000743A2025640D0A00322C20696E743332ED
:101760005F7420282564292C206C5F6D6F745F6284
:101770006F743A2025640D0A00312C20696E743391
:10178000325F7420282564292C20625F6D6F745F9E
:10179000626F743A2025640D0A00302C20696E7443
:1017A00033325F7420282564292C20665F6D6F74A6
:1017B0005F626F743A2025640D0A000D0A646F6E33
:1017C000650D0A00203D2000616464723A200073B8
:1017D000657474696E670D0A000011241FBECFEF97
:1017E000D0E1DEBFCDBF11E0A0E0B1E0E0E2F5E77F
:1017F00002C005900D92A232B107D9F713E0A2E220
:10180000B1E001C01D92A133B107E1F70E947B0F47
:101810000C948E3A0C940000A0E3B0E0E2E1FCE00E
:101820000C944535A8E04E010894811C911CF401EC
:10183000BA2F1192BA95E9F729833A834B835C83D7
:101840006D837E838F839887CE010996FC01119268
:10185000AA95E9F7A986BA86CB86DC86ED86FE8650
:101860000F87188B29813A814B815C812DA73EA778
:101870004FA758AB79018A018FEF9FEFA0E0B0E04E
:10188000E822F9220A231B231A014424552429851E
:101890003A854B855C8529A73AA74BA75CA75901D8
:1018A0006A01A822B922CA22DB223A01882499249B
:1018B000C601B501A80197010E94B6346DA37EA3AD
:1018C0008FA398A7C401B3010E94B63469A37AA379
:1018D0008BA39CA3C601B501A20191010E94B6345D
:1018E0007B018C01C401B3010E94B6345B016C0121
:1018F00089A19AA1ABA1BCA18E0D9F1DA01FB11FF4
:1019000089A39AA3ABA3BCA32DA13EA14FA158A527
:10191000CA01AA27BB2729A13AA14BA15CA1280F84
:10192000391F4A1F5B1F29A33AA34BA35CA32E15A3
:101930003F054007510740F480E090E0A1E0B0E0AF
:10194000A80EB91ECA1EDB1E89A19AA1ABA1BCA11B
:101950009D01442755272A0D3B1D4C1D5D1D2D8FD4
:101960003E8F4F8F58A36C01BB24AA248DA19EA14A
:10197000AFA1B8A5A070B070A80EB91ECA1EDB1E1C
:10198000A98EBA8ECB8EDC8E9A8C8B8C7C8C9E8DA5
:101990006F8D78A1FE01719688E0DF011D928A9516
:1019A000E9F72D8B9E8B6F8B788F2D853E854F852C
:1019B00058896DA57EA58FA598A90E94B6347B0194
:1019C0008C012D813E814F81588569A57AA58BA513
:1019D0009CA50E94B634E60EF71E081F191F6D89DC
:1019E0007E898F89988D6E0D7F1D801F911F6D8B55
:1019F0007E8B8F8B988FEE892A2D392D482D572D70
:101A00007E2F8F89988DE096E2E10C946135469A9D
:101A1000479A3E9A3F9A2C9A24982B9A2A9A299A66
:101A2000289A2398229821982098439A3B98429884
:101A30003A9A45983D9A08954698479A80E060E220
:101A40007EE40E94821C81E060E27EE40E94821CAF
:101A500082E060E27EE40E94821C83E060E27EE439
:101A60000E94821C84E060E27EE40E94821C85E089
:101A700060E27EE40E94821C8BE591E00E94BA2F16
:101A80000E947C1C8823C1F30E94631CF5CFAF9297
:101A9000BF92CF92DF92EF92FF920F931F9383E05A
:101AA0000E94481D5B016C01E0907C01F0907D017B
:101AB00000917E0110917F016091840170918501F8
:101AC0008091860190918701209180013091810160
:101AD0004091820150918301621B730B840B950B23
:101AE00022E030E040E050E00E940835E20EF31EB4
:101AF000041F151FEA14FB040C051D050CF493C00C
:101B000083E00E94481D5B016C01E0907C01F09035
:101B10007D0100917E0110917F01609180017091A3
:101B20008101809182019091830120917C0130910B
:101B30007D0140917E0150917F01621B730B840BEC
:101B4000950B22E030E040E050E00E940835E20EC4
:101B5000F31E041F151FAE14BF04C006D1060CF4FB
:101B600062C084E00E94481D5B016C01E090880126
:101B7000F090890100918A0110918B016091900190
:101B800070919101809192019091930120918C012B
:101B900030918D0140918E0150918F01621B730B2A
:101BA000840B950B22E030E040E050E00E940835C5
:101BB000E20EF31E041F151FEA14FB040C051D059D
:101BC00094F184E00E94481D5B016C01E090880163
:101BD000F090890100918A0110918B0160918C0134
:101BE00070918D0180918E0190918F0120918801DB
:101BF0003091890140918A0150918B01621B730BD6
:101C0000840B950B22E030E040E050E00E94083564
:101C1000E20EF31E041F151FAE14BF04C006D1064A
:101C200014F011E001C010E081E00E94481D2091F5
:101C3000A4013091A5014091A6015091A701E09126
:101C400025022E0F311D411D511D2617370748074C
:101C500059070CF472C081E00E94481D2091A40134
:101C60003091A5014091A6015091A701E091250274
:101C70002E1B310941095109621773078407950723
:101C80000CF45BC082E00E94481D20919C013091C1
:101C90009D0140919E0150919F01E09125022E0FE0
:101CA000311D411D511D26173707480759070CF4F0
:101CB00044C082E00E94481D20919C0130919D010A
:101CC00040919E0150919F01E09125022E1B310908
:101CD00041095109621773078407950774F180E081
:101CE0000E94481D2091A0013091A1014091A201C4
:101CF0005091A301E09125022E0F311D411D511D70
:101D00002617370748075907C4F080E00E94481D8E
:101D10002091A0013091A1014091A2015091A30115
:101D2000E09125022E1B3109410951096217730701
:101D30008407950714F01123A1F4479A24EF31E0AA
:101D4000469880E197E2F9013197F1F70197D9F7C9
:101D5000469A88E893E1F9013197F1F70197D9F7AD
:101D6000EFCF1F910F91FF90EF90DF90CF90BF903A
:101D7000AF900895CF92DF92EF92FF920F931F934F
:101D8000CF93DF9380E00E947F1C80E060E27EE4DE
:101D90000E94821C81E060E27EE40E94821C82E05C
:101DA00060E27EE40E94821C83E060E27EE40E94A6
:101DB000821C84E060E27EE40E94821C85E060E296
:101DC0007EE40E94821C80E00E9400288FEF0E9427
:101DD00000288823D9F3CC24DD24C0E0D0E08BE5B3
:101DE00091E00E94BA2F89E1C816D1041CF44798EB
:101DF000469802C0479A469A8FEF0E940828882387
:101E0000C1F18FEF0E940028882301F18091240204
:101E10000E9410287B018C01809124020E9451288D
:101E2000E60EF71E081F191F88EAE81681E6F80675
:101E300080E0080780E0180728F01C9B03C0C0E082
:101E4000D0E001C0219680E00E940028209132025B
:101E5000309133024091340250913502CE01AA27CD
:101E600097FDA095BA2F82179307A407B50720F016
:101E700012C04698C0E0D0E00E947C1C882309F480
:101E8000AECFC601019662E370E00E94F5346C01AA
:101E90000E94631CA4CFDF91CF911F910F91FF90FF
:101EA000EF90DF90CF9008951F9310E0812F0E9454
:101EB000422860567D4680409040615A7F40804075
:101EC0009040A0F0479A24EF31E0469880E197E2F5
:101ED000F9013197F1F70197D9F7469A88E893E12C
:101EE000F9013197F1F70197D9F7EFCF1F5F16305E
:101EF000E9F61F9108952F923F924F925F926F9251
:101F00007F928F929F92AF92BF92CF92DF92EF9289
:101F1000FF920F931F93DF93CF93CDB7DEB7C558D2
:101F2000D0400FB6F894DEBF0FBECDBF0E94070DA4
:101F30008BE591E00E94B1211A9904C08BE591E0F4
:101F40000E94DE2478940E94ED300E940A1D0E94B7
:101F500091290E94981C0E94BF1C4698479880E0D7
:101F60000E9408288FEF0E9408288823D9F380E177
:101F700097E224EF31E0F9013197F1F70197D9F7B2
:101F800082E30E9460280E94540F1B9B03C00E94A2
:101F9000BA0E2FC080E00E947F1C80E060E27EE4E9
:101FA0000E94821C81E060E27EE40E94821C82E04A
:101FB00060E27EE40E94821C83E060E27EE40E9494
:101FC000821C84E060E27EE40E94821C85E060E284
:101FD0007EE40E94821C00E010E00E947C1C8823AA
:101FE00011F00E94631C0F5F1F4F21E0043F120796
:101FF000A1F780E00E9400288FEF0E94002888232C
:10200000D9F388E20E945F1D0E94470DCE018E9693
:102010000E94E720CE01CA960E94E720CE018A5B8B
:102020009F4F0E94E720CE018E5A9F4F0E94E720CB
:10203000CE01825A9F4F0E94E720469A06E0202E4A
:1020400001E0302E8BE591E00E94BA2F89838981CF
:10205000833009F019C1EE24FF24870100D000D09D
:1020600000D0EDB7FEB73196ADB7BEB712963C9231
:102070002E9211972CE533E033832283F582E4829C
:102080000E94DB378DB79EB706960FB6F8949EBFB9
:102090000FBE8DBF81E0B801A7010E94A4268E2D3E
:1020A0000E94391DADB7BEB718970FB6F894BEBFE2
:1020B0000FBEADBFEDB7FEB7319612963C922E9291
:1020C000119729E533E03383228364837583868304
:1020D00097830E94DB378DB79EB708960FB6F894AA
:1020E0009EBF0FBE8DBF8E2D0E94391DAB01BC015E
:1020F00081E00E94A42600D000D0ADB7BEB71296F2
:102100003C922E921197E5E5F3E01496FC93EE9342
:1021100013970E94DB370F900F900F900F908E2D2A
:102120000E94481DAB01BC0181E00E94A42600D0A2
:1021300000D0ADB7BEB712963C922E921197E2E551
:10214000F3E01496FC93EE9313970E94DB37089408
:10215000E11CF11C011D111D0F900F900F900F90AD
:10216000F8E0EF16F1040105110509F077CFEE2430
:10217000FF24870100D000D000D0EDB7FEB7319624
:10218000ADB7BEB712963C922E9211972DE433E074
:1021900033832283F582E4820E94DB378DB79EB7BA
:1021A00006960FB6F8949EBF0FBE8DBF81E0B801B2
:1021B000A7010E94A4268E2D0E94391DADB7BEB77F
:1021C00018970FB6F894BEBF0FBEADBFEDB7FEB700
:1021D000319612963C922E9211972AE433E0338383
:1021E000228364837583868397830E94DB378DB750
:1021F0009EB708960FB6F8949EBF0FBE8DBF8E2D6A
:102200000E941028AB01BC0181E00E94A42600D0EE
:1022100000D0ADB7BEB712963C922E921197E6E46D
:10222000F3E01496FC93EE9313970E94DB370F9024
:102230000F900F900F908E2D0E945128AB01BC0182
:1022400081E00E94A42600D000D0ADB7BEB71296A0
:102250003C922E921197E3E4F3E01496FC93EE93F4
:1022600013970E94DB370894E11CF11C011D111D1E
:102270000F900F900F900F90F6E0EF16F10401050C
:10228000110509F077CF19828FEF0E940828882363
:1022900099F18FEF0E940028882361F18091240238
:1022A0000E941028695873418040904030F080911E
:1022B0004A018F5F80934A0102C010924A0180E078
:1022C0000E94002820914A018091320290913302AD
:1022D000A0913402B091350230E040E050E0B69574
:1022E000A79597958795281739074A075B0710F038
:1022F0000E941C0D469A01C04698199B04C0339B4E
:1023000002C00E941C0D8FEF0E94571D882309F404
:10231000A2C488B1805888B96091980170919901E0
:1023200080919A0190919B012091940130919501A7
:102330004091960150919701620F731F841F951F62
:102340006F5F7F4F8F4F9F4F22E030E040E050E0C3
:102350000E940835C901DA01809357019093580112
:10236000A0935901B0935A018091980190919901DD
:10237000A0919A01B0919B01209157013091580191
:102380004091590150915A01821B930BA40BB50B3C
:102390008093530190935401A0935501B09356013B
:1023A00083E00E94391D7B018C0160917C0170915A
:1023B0007D0180917E0190917F0120918401309177
:1023C00085014091860150918701620F731F841F20
:1023D000951F6F5F7F4F8F4F9F4F22E030E040E0AF
:1023E00050E00E940835E21AF30A040B150BE09244
:1023F0003601F0923701009338011093390184E0DF
:102400000E94391D7B018C016091880170918901C6
:1024100080918A0190918B012091900130919101DE
:102420004091920150919301620F731F841F951F79
:102430006F5F7F4F8F4F9F4F22E030E040E050E0D2
:102440000E940835E21AF30A040B150BE0923201E0
:10245000F0923301009334011093350185E00E941E
:10246000391D7B018C0160919401709195018091DF
:102470009601909197012091980130919901409196
:102480009A0150919B01620F731F841F951F6F5F0C
:102490007F4F8F4F9F4F22E030E040E050E00E949E
:1024A0000835E21AF30A040B150BE0922E01F092A4
:1024B0002F01009330011093310182E00E94391DF9
:1024C0007B018C0182E00E94481DE61AF70A080B86
:1024D000190BE0924601F0924701009348011093D6
:1024E000490180E00E94391D7B018C0180E00E943F
:1024F000481DE61AF70A080B190BE0924201F09208
:10250000430100934401109345018091260290916C
:102510002702A0912802B09129020097A105B105D8
:1025200089F08091260290912702A0912802B09113
:10253000290280932A0190932B01A0932C01B09340
:102540002D010AC00E94D71C60932A0170932B01B1
:1025500080932C0190932D01609136017091370189
:1025600080913801909139012091530130915401AB
:1025700040915501509156010E94441F60932601DD
:102580007093270180932801909329016091320173
:102590007091330180913401909135012091530164
:1025A0003091540140915501509156010E94441FB1
:1025B000609322017093230180932401909325015D
:1025C0002091260130912701409128015091290145
:1025D0008091AC019091AD01A091AE01B091AF019D
:1025E000820F931FA41FB51F80932601909327018C
:1025F000A0932801B0932901209122013091230159
:1026000040912401509125018091A8019091A90148
:10261000A091AA01B091AB01820F931FA41FB51F17
:102620008093220190932301A0932401B09325016C
:102630004090260150902701609028017090290158
:102640006091460170914701809148019091490144
:1026500020913E0130913F01409140015091410154
:10266000C0902E02D0902F02E0903002F090310204
:1026700080902A0190902B01A0902C01B0902D0108
:10268000A2E0440C551C661C771CAA95D1F7620F7A
:10269000731F841F951F6F5F7F4F8F4F9F4F22E0E7
:1026A00030E040E050E00E94083589019A018FE453
:1026B00091E0B301A2010E94F52060934F01709355
:1026C000500180935101909352014090220150900B
:1026D0002301609024017090250160914201709166
:1026E0004301809144019091450120913A0130913C
:1026F0003B0140913C0150913D01C0902E02D09091
:102700002F02E0903002F090310280902A019090E8
:102710002B01A0902C01B0902D01F2E0440C551C2F
:10272000661C771CFA95D1F7620F731F841F951FE3
:102730006F5F7F4F8F4F9F4F22E030E040E050E0CF
:102740000E94083589019A018BE491E0B301A2014E
:102750000E94F52060934B0170934C0180934D01D2
:1027600090934E018091420190914301A0914401C8
:10277000B091450180933A0190933B01A0933C01B5
:10278000B0933D018091460190914701A09148018D
:10279000B091490180933E0190933F01A093400185
:1027A000B09341018981813009F052C200D000D03C
:1027B000ADB7BEB712963C922E921197E6E3F3E0C6
:1027C0001496FC93EE9313970E94DB3740915701C8
:1027D000509158016091590170915A010F900F90DA
:1027E0000F900F9081E00E94A42600D000D0ADB7DA
:1027F000BEB712963C922E921197E8E2F3E014963F
:10280000FC93EE9313970E94DB3740915301509154
:10281000540160915501709156010F900F900F90E7
:102820000F9081E00E94A42600D000D0ADB7BEB7C3
:1028300012963C922E921197E5E2F3E01496FC93E7
:10284000EE9313970E94DB37ADB7BEB712963C925A
:102850002E921197E3E1F3E01496FC93EE93139715
:102860000E94DB3740913601509137016091380169
:10287000709139010F900F900F900F9081E00E949E
:10288000A42600D000D0ADB7BEB712963C922E92CF
:102890001197E9E0F3E01496FC93EE9313970E94EE
:1028A000DB374091320150913301609134017091D6
:1028B00035010F900F900F900F9081E00E94A42699
:1028C00000D000D0ADB7BEB712963C922E921197B1
:1028D000E0E0F3E01496FC93EE9313970E94DB374D
:1028E00040912E0150912F01609130017091310182
:1028F0000F900F900F900F9081E00E94A42600D0BF
:1029000000D0ADB7BEB712963C922E921197EDEF64
:10291000F2E01496FC93EE9313970E94DB37ADB769
:10292000BEB712963C922E9211978CEE92E01496BE
:102930009C938E9313970E94DB37409146015091F0
:10294000470160914801709149010F900F900F90DD
:102950000F9081E00E94A42600D000D0EDB7FEB712
:102960003282218282EE92E0948383830E94DB375D
:1029700040914201509143016091440170914501A1
:102980000F900F900F900F9081E00E94A42600D02E
:1029900000D0ADB7BEB712963C922E9211978FED34
:1029A00092E014969C938E9313970E94DB37EDB7B9
:1029B000FEB7328221828EEC92E0948383830E9460
:1029C000DB370F900F900F900F9082E00E94481D10
:1029D000AB01BC0181E00E94A42600D000D0ADB7BD
:1029E000BEB712963C922E92119784EC92E0149608
:1029F0009C938E9313970E94DB370F900F900F904C
:102A00000F9080E00E94481DAB01BC0181E00E9454
:102A1000A42600D000D0EDB7FEB73282218281EC2F
:102A200092E0948383830E94DB37ADB7BEB71296E2
:102A30003C922E92119784EB92E014969C938E9385
:102A400013970E94DB3740912A0150912B0160912E
:102A50002C0170912D010F900F900F900F9081E03D
:102A60000E94A42600D000D0EDB7FEB732822182AA
:102A700081EB92E0948383830E94DB37ADB7BEB7CE
:102A800012963C922E92119784EA92E014969C93AF
:102A90008E9313970E94DB374091260150912701B6
:102AA00060912801709129010F900F900F900F9065
:102AB00081E00E94A42600D000D0EDB7FEB732829C
:102AC00021828AE992E0948383830E94DB374091DC
:102AD00022015091230160912401709125010F90F2
:102AE0000F900F900F9081E00E94A42600D000D09C
:102AF000ADB7BEB712963C922E92119787E992E03D
:102B000014969C938E9313970E94DB37EDB7FEB714
:102B1000328221828BE892E0948383830E94DB37A8
:102B200040914F01509150016091510170915201BB
:102B30000F900F900F900F9081E00E94A42600D07C
:102B400000D0ADB7BEB712963C922E92119781E895
:102B500092E014969C938E9313970E94DB374091DA
:102B60004B0150914C0160914D0170914E010F90BD
:102B70000F900F900F9081E00E94A42600D000D00B
:102B8000EDB7FEB7328221828EE792E09483838391
:102B90000E94DB37ADB7BEB712963C922E921197CA
:102BA0008EE692E014969C938E9313970E94DB37E7
:102BB00060914F01709150018091510190915201AB
:102BC0000F900F900F900F9024E030E040E050E025
:102BD0000E94083581E0BA01A9010E94A42600D014
:102BE00000D0EDB7FEB73282218284E692E0948372
:102BF00083830E94DB3760914B0170914C0180917F
:102C00004D0190914E010F900F900F900F9024E086
:102C100030E040E050E00E94083581E0BA01A901AF
:102C20000E94A42600D000D0ADB7BEB712963C9249
:102C30002E92119781E692E014969C938E931397AF
:102C40000E94DB3782E089830F900F900F900F90E6
:102C500080E00E94571D0E947C1C882309F4F2C961
:102C60004090E4015090E5016090E6017090E7012A
:102C70008091E8019091E901A091EA01B091EB0106
:102C8000CE57DF4F88839983AA83BB83C258D04035
:102C9000C090EC01D090ED01E090EE01F090EF01DA
:102CA00080904F0190905001A0905101B09052013E
:102CB000809123020E9410282091C8013091C901FF
:102CC0004091CA015091CB0100D000D00E94B6348F
:102CD000ADB7BEB711966D937D938D939C9314976A
:102CE000CE018E96B301A201CE57DF4F0881198124
:102CF0002A813B81C258D0400E94761F6A837B8321
:102D00008C839D834090F0015090F1016090F2011E
:102D10007090F3018091F4019091F501A091F6017A
:102D2000B091F701C258DF4F88839983AA83BB8390
:102D3000CE57D040C090F801D090F901E090FA0150
:102D4000F090FB0180904B0190904C01A0904D01C0
:102D5000B0904E01809122020F900F900F900F9033
:102D60000E9410282091CC013091CD014091CE01DC
:102D70005091CF0100D000D00E94B634ADB7BEB79D
:102D800011966D937D938D939C931497CE01CA9663
:102D9000B301A201C258DF4F088119812A813B810A
:102DA000CE57D0400E94761F6E837F838887998795
:102DB0004090FC015090FD016090FE017090FF0179
:102DC0008091000290910102A0910202B091030251
:102DD000EE968CAF9DAFAEAFBFAFEE97C090040242
:102DE000D0900502E0900602F09007028A809B8056
:102DF000AC80BD802091460130914701409148014F
:102E0000509149016091D0017091D1018091D2011E
:102E10009091D3010E94B634ADB7BEB711966D93B1
:102E20007D938D939C931497CE018A5B9F4FB30142
:102E3000A201EE960CAD1DAD2EAD3FADEE970E94FA
:102E4000761F6A877B878C879D8740900802509009
:102E5000090260900A0270900B0280910C0290911E
:102E60000D02A0910E02B0910F02EA968CAF9DAFB9
:102E7000AEAFBFAFEA97C0901002D0901102E090C1
:102E80001202F09013028E809F80A884B984209152
:102E900042013091430140914401509145016091BC
:102EA000D4017091D5018091D6019091D7010E94F3
:102EB000B634ADB7BEB711966D937D938D939C9349
:102EC0001497CE018E5A9F4FB301A201EA960CAD22
:102ED0001DAD2EAD3FADEA970E94761F6E877F87AE
:102EE000888B998B0F900F900F900F9081E00E942C
:102EF000391D7B018C0181E00E94481DE61AF70A0A
:102F0000080B190BEA8AFB8A0C8B1D8B809114022B
:102F100090911502A0911602B0911702E6968CAF1F
:102F20009DAFAEAFBFAFE6978091180290911902A6
:102F3000A0911A02B0911B02E2968CAF9DAFAEAF8A
:102F4000BFAFE297C0901C02D0901D02E0901E021D
:102F5000F0901F028A899B89AC89BD89AE968CAF9F
:102F60009DAFAEAFBFAFAE978090D8019090D90122
:102F7000A090DA01B090DB01809120020E9410281D
:102F80002B013C0100D000D0C501B401AE962CADA0
:102F90003DAD4EAD5FADAE970E94B6344B015C01C6
:102FA000ADB7BEB711964D925D926D927C9214971B
:102FB000CE01825A9F4FE6964CAD5DAD6EAD7FADB2
:102FC000E697E2960CAD1DAD2EAD3FADE2970E94A7
:102FD000761F6E8B7F8B888F998F809121020F9047
:102FE0000F900F900F900E9442282091DC013091A9
:102FF000DD014091DE015091DF0160537547804053
:103000009040E8EEEE2EE3E0FE2E012D112D0E9401
:10301000ED1E6A8F7B8F8C8F9D8F2A8D3B8D4C8D03
:103020005D8D8091E0019091E101A091E201B0916C
:10303000E301820F931FA41FB51F8A8F9B8FAC8F54
:10304000BD8FA0905B01B0905C01C0905D01D090FD
:103050005E016A8C7B8C8C8C9D8C6E897F89888DBF
:10306000998DEE84FF840889198920916B01309134
:103070006C0140916D0150916E01660D771D881DA8
:10308000991D6E197F09800B910BB8EEEB2EB3E002
:10309000FB2E012D112D0E94ED1EA60EB71EC81E7F
:1030A000D91EAE8EBF8EC8A2D9A2A0905F01B090EB
:1030B0006001C0906101D09062016A8C7B8C8C8C25
:1030C0009D8C6E897F89888D998DEE84FF84088917
:1030D000198920916F0130917001409171015091D7
:1030E0007201660D771D881D991D6E0D7F1D801F55
:1030F000911FA8EEEA2EA3E0FA2E012D112D0E94B9
:10310000ED1EA60EB71EC81ED91EAAA2BBA2CCA237
:10311000DDA26090630170906401809065019090E1
:1031200066016A8D7B8D8C8D9D8DEE88FF88088D64
:10313000198DAA84BB84CC84DD84209173013091E5
:10314000740140917501509176016E197F09800BD1
:10315000910B6A197B098C099D09F8EEEF2EF3E0BB
:10316000FF2E012D112D0E94ED1E660E771E881E6A
:10317000991E6EA27FA288A699A6A0906701B09022
:103180006801C0906901D0906A01EA8CFB8C0C8DBB
:103190001D8D6E887F88888C998C6A857B858C854F
:1031A0009D8520917701309178014091790150916E
:1031B0007A016E0D7F1D801F911F6619770988099E
:1031C0009909E8EEEE2EE3E0FE2E012D112D0E946E
:1031D000ED1EA60EB71EC81ED91EAAA6BBA6CCA65B
:1031E000DDA62E8D3F8D48A159A180E0B9010E9436
:1031F000821C2AA13BA14CA15DA183E0B9010E94E0
:10320000821C2EA13FA148A559A582E0B9010E94C8
:10321000821C2AA53BA54CA55DA581E0B9010E94B1
:10322000821C8981823009F09CC200D000D0EDB7A9
:10323000FEB73282218286E592E0948383830E94E6
:10324000DB37809123020F900F900F900F900E9418
:103250001028AB01BC0181E00E94A42600D000D060
:10326000ADB7BEB712963C922E92119782E592E0CE
:1032700014969C938E9313970E94DB3780912302C0
:103280000F900F900F900F900E945128AB01BC013E
:1032900081E00E94A42600D000D0EDB7FEB73282B4
:1032A00021828FE492E0948383830E94DB37ADB761
:1032B000BEB712963C922E92119783E492E0149638
:1032C0009C938E9313970E94DB37809122020F907C
:1032D0000F900F900F900E941028AB01BC0181E06D
:1032E0000E94A42600D000D0EDB7FEB73282218222
:1032F0008FE392E0948383830E94DB3780912202E4
:103300000F900F900F900F900E945128AB01BC01BD
:1033100081E00E94A42600D000D0ADB7BEB71296BF
:103320003C922E9211978CE392E014969C938E938C
:1033300013970E94DB37EDB7FEB73282218282E31A
:1033400092E0948383830E94DB37809120020F9068
:103350000F900F900F900E941028AB01BC0181E0EC
:103360000E94A42600D000D0ADB7BEB712963C9202
:103370002E9211978EE292E014969C938E9313975F
:103380000E94DB37809120020F900F900F900F90DA
:103390000E945128AB01BC0181E00E94A42600D00C
:1033A00000D0EDB7FEB7328221828BE292E09483A7
:1033B00083830E94DB37ADB7BEB712963C922E9244
:1033C00011978CE192E014969C938E9313970E9430
:1033D000DB37809121020F900F900F900F900E9489
:1033E0001028AB01BC0181E00E94A42600D000D0CF
:1033F000EDB7FEB73282218288E192E09483838325
:103400000E94DB37809121020F900F900F900F9058
:103410000E945128AB01BC0181E00E94A42600D08B
:1034200000D0ADB7BEB712963C922E92119785E1AF
:1034300092E014969C938E9313970E94DB37EDB71E
:10344000FEB73282218285E092E0948383830E94DA
:10345000DB374A815B816C817D810F900F900F90EB
:103460000F9081E00E94A42600D000D0ADB7BEB777
:1034700012963C922E92119782E092E014969C93C1
:103480008E9313970E94DB37EDB7FEB7328221820D
:1034900087EF91E0948383830E94DB374A855B85C5
:1034A0006C857D850F900F900F900F9081E00E94AA
:1034B000A42600D000D0ADB7BEB712963C922E9293
:1034C000119784EF91E014969C938E9313970E942A
:1034D000DB37EDB7FEB73282218283EE91E0948331
:1034E00083830E94DB374E815F81688579850F90E9
:1034F0000F900F900F9081E00E94A42600D000D082
:10350000ADB7BEB712963C922E92119780EE91E025
:1035100014969C938E9313970E94DB37EDB7FEB7FA
:103520003282218284ED91E0948383830E94DB3791
:103530004E855F85688979890F900F900F900F9065
:1035400081E00E94A42600D000D0ADB7BEB712968D
:103550003C922E92119781ED91E014969C938E935C
:1035600013970E94DB37EDB7FEB73282218282ECDF
:1035700091E0948383830E94DB374A895B896C895D
:103580007D890F900F900F900F9081E00E94A426EC
:1035900000D000D0ADB7BEB712963C922E921197D4
:1035A0008EEB91E014969C938E9313970E94DB37D9
:1035B0000F900F900F900F9081E00E94481DAB017B
:1035C000BC0181E00E94A42600D000D0EDB7FEB778
:1035D000328221828BEB91E0948383830E94DB37DC
:1035E000ADB7BEB712963C922E92119781EB91E047
:1035F00014969C938E9313970E94DB374E895F89B4
:10360000688D798D0F900F900F900F9081E00E9440
:10361000A42600D000D0EDB7FEB7328221828EEA18
:1036200091E0948383830E94DB37ADB7BEB71296D7
:103630003C922E9211978FE991E014969C938E9371
:1036400013970E94DB374A8D5B8D6C8D7D8D0F90BB
:103650000F900F900F9081E00E94A42600D000D020
:10366000EDB7FEB7328221828CE991E094838383A7
:103670000E94DB37ADB7BEB712963C922E921197DF
:103680008BE891E014969C938E9313970E94DB37FE
:103690004E8D5F8D68A179A10F900F900F900F90C4
:1036A00081E00E94A42600D000D0EDB7FEB73282A0
:1036B000218285E891E0948383830E94DB374AA1CD
:1036C0005BA16CA17DA10F900F900F900F9081E0F6
:1036D0000E94A42600D000D0ADB7BEB712963C928F
:1036E0002E9211978FE791E014969C938E931397E7
:1036F0000E94DB374EA15FA168A579A50F900F90BE
:103700000F900F9081E00E94A42600D000D0EDB76A
:10371000FEB73282218289E791E0948383830E94FD
:10372000DB374AA55BA56CA57DA50F900F900F9088
:103730000F9081E00E94A42600D000D0ADB7BEB7A4
:1037400012963C922E92119786E791E014969C93E4
:103750008E9313970E94DB3719820F900F900F9072
:103760000F900E94631C0C9422101F920F920FB6B0
:103770000F9211242F933F934F935F938F939F93B7
:10378000AF93BF93EF93FF93809182008068809303
:1037900082002091880030918900E0914602F0E09B
:1037A000EE0FFF1FEA5CFD4F80819181820F931F16
:1037B00090938900809388002091470230914802BD
:1037C0004091490250914A02E0914602F0E0EE0F2A
:1037D000FF1FEA5CFD4F80819181A0E0B0E0820F85
:1037E000931FA41FB51F8093470290934802A09394
:1037F0004902B0934A02809146028F5F809346024D
:103800002091460280914D0230E090E00496281706
:103810003907B1F48091470290914802A091490282
:10382000B0914A0281549D40A340B04020F081E015
:1038300080934B0205C080914602815080934602DE
:10384000FF91EF91BF91AF919F918F915F914F91B8
:103850003F912F910F900FBE0F901F9018955C987D
:103860000000000000000000000000000000000058
:103870000000000000000000000000000000000048
:1038800080914C02882309F45C9A5D985F9A80913C
:103890008200806880938200000000000000000029
:1038A0000000000000000000000000000000000018
:1038B000000000000000000080918200806880937A
:1038C00082005F98089580918400909185008058CF
:1038D0009F4F909389008093880010924602109227
:1038E0004B02109247021092480210924902109225
:1038F0004A020E942F1C089580914B0208958093E4
:103900004C0208959EE46032790718F460E27EE488
:1039100006C09CE96134790710F060E47CE9E82F87
:10392000F0E0EE0FFF1FEA5CFD4F718360830895A6
:1039300080E090E020E137E2FC01EE0FFF1FEA5C3F
:10394000FD4F31832083019688309105A9F781E0EE
:1039500080934C025C985D985F98549A559A579A58
:103960000E94631C0E94C31C80918000806480932D
:10397000800080916F00826080936F00089585B50C
:10398000856085BD08958091840090918500A0E0B8
:10399000B0E080934E0290934F02A0935002B093F8
:1039A0005102E1E8F0E0808181608083089526B5CE
:1039B00030E040E050E08091520290915302A0919B
:1039C0005402B09155022093520230935302409317
:1039D0005402509355023160281B390B4A0B5B0B84
:1039E000307040705070B901CA0108951F920F9253
:1039F0000FB60F9211240F900FBE0F901F901895C5
:103A00001F920F920FB60F9211240F900FBE0F90BE
:103A10001F90189583E08093B80282E08093B902EA
:103A200084E08093BA021092BB0285E08093BC02CE
:103A300081E08093BD0280E090E0FC01EE0FFF1F6B
:103A4000EE0FFF1FEA56FD4F108211821282138281
:103A500001968830910589F71092B6021092B7024C
:103A600080917C00807E80937C008FEC80937A0034
:103A70000895E82FF0E0EE0FFF1FEE0FFF1FEA584A
:103A8000FD4F2081318142815381B901CA010895DE
:103A9000E82FF0E0EE0FFF1FEE0FFF1FEA56FD4F7D
:103AA0002081318142815381B901CA0108959091E9
:103AB000B70298239093B7028091B70208952F928E
:103AC0003F924F925F926F927F928F929F92AF92AE
:103AD000BF92CF92DF92EF92FF920F931F93DF93EB
:103AE000CF93CDB7DEB7C054D0400FB6F894DEBF49
:103AF0000FBECDBFF82E8E010F5F1F4FC80160E0D3
:103B000070E040E450E00E94D4378091B7021092F8
:103B1000B7028091B70299246801A2C08091B702D0
:103B20008093B7028091B7028823C1F300E010E0D0
:103B3000F801EE0FFF1FEE0FFF1FEA58FD4F208127
:103B4000318142815381F80173E0EE0FFF1F7A95B6
:103B5000E1F7EC0DFD1DE080A18082807380548030
:103B6000458036802780DA01C901BB0F880B982F6A
:103B7000DC01622F232F342F452F982FA82FB82F29
:103B8000E60E71E0E61608F070E0622F6A0DE1E0E3
:103B9000621708F0E0E0672E660E71E0661608F026
:103BA00070E0E72B632F680DF1E0631708F0F0E099
:103BB0008E2E860E71E0861608F070E0F72B642FCB
:103BC000670D71E0641708F070E0AF2EA60E21E0DB
:103BD000A61608F020E0722B292F250D41E02917A9
:103BE00008F040E0720F31E0721708F030E0432B2C
:103BF0002A2F240D51E02A1708F050E0642F620F9D
:103C000031E0621708F030E0532B2B2F230D41E0F9
:103C10002B1708F040E0520F31E0521708F030E067
:103C2000432B820D480FF801A3E0EE0FFF1FAA956A
:103C3000E1F7EC0DFD1DE08261828282A382748334
:103C40006583568347830F5F1F4F0830110509F0C6
:103C50006FCF8091B7021092B7028091B702939410
:103C60009F1408F45BCF882499241E010894211C1A
:103C7000311C4F2C552466247724F40173E0EE0F99
:103C8000FF1F7A95E1F7E20DF31DA080B180C2809D
:103C9000D380E480F580068117819501A601B701E4
:103CA000C8010E94CA317B018C01C301B2010E948C
:103CB0008D319B01AC01C801B7010E94F4300E9414
:103CC00059329B01AC01F401EE0FFF1FEE0FFF1FF5
:103CD000EA56FD4F20833183428353830894811C2D
:103CE000911C88E08816910441F6C05CDF4F0FB646
:103CF000F894DEBF0FBECDBFCF91DF911F910F9122
:103D0000FF90EF90DF90CF90BF90AF909F908F90FB
:103D10007F906F905F904F903F902F9008951F92EB
:103D20000F920FB60F9211246F937F938F939F93EF
:103D3000AF93BF93EF93FF93E091B602F0E0E854A6
:103D4000FD4FE081F0E08091780090917900A0E053
:103D5000B0E0EE0FFF1FEE0FFF1FEA5AFD4F80830A
:103D60009183A283B3838091B6028F5F8093B60262
:103D70008091B60266E00E94D5349093B60290918D
:103D80007C00E091B602F0E0E854FD4F907E808127
:103D9000982B90937C008FEC80937A008091B602F0
:103DA000882371F4A6E7B2E0E6E5F2E080E2019054
:103DB0000D928150E1F78091B7028F5F8093B70237
:103DC000FF91EF91BF91AF919F918F917F916F91F3
:103DD0000F900FBE0F901F901895EF92FF920F93C8
:103DE0001F93DF93CF93CDB7DEB760970FB6F894EC
:103DF000DEBF0FBECDBF6D837E838F8398872987FB
:103E00003A874B875C87ED86FE860F87188B2D815E
:103E10003E814F81588569857A858B859C850E9476
:103E2000B63469837A838B839C83E980FA800B8123
:103E30001C816D857E858F85988922E030E040E089
:103E400050E00E940835E20EF31E041F151FE982A0
:103E5000FA820B831C8369817A818B819C812D85F9
:103E60003E854F8558890E940835CA01B901609680
:103E70000FB6F894DEBF0FBECDBFCF91DF911F917B
:103E80000F91FF90EF900895EF92FF920F931F9381
:103E900079018A0120ED32E040E050E00E94ED1E01
:103EA0009B01AC0197FF07C022273327A901261BDE
:103EB000370B480B590BF901EE0FFF1FEE0FFF1FD9
:103EC000EC59FC4F259135914591549197FF07C0CE
:103ED00050954095309521953F4F4F4F5F4FB90119
:103EE000CA011F910F91FF90EF9008952F923F927A
:103EF0004F925F926F927F928F929F92AF92BF92FA
:103F0000CF92DF92EF92FF920F931F93DF93CF93A5
:103F1000CDB7DEB760970FB6F894DEBF0FBECDBF4A
:103F20001C012A013B0109871A872B873C87CD8614
:103F3000DE86EF86F88A88EE93E0A0E0B0E0898321
:103F40009A83AB83BC832DA13EA14FA158A528190C
:103F500039094A095B092DA33EA34FA358A7CA01FB
:103F6000B901A30192010E94B6346D837E838F83D1
:103F7000988789859A85AB85BC850097A105B10591
:103F800009F4BEC08DA19EA1AFA1B8A5BB0F880B3F
:103F9000982FDC012DA15EA17FA1E8A5982FA82E66
:103FA000982EF82FD1016C9111964C911197129681
:103FB0008C91129713961C9113971496EC9014976A
:103FC0001596DC9015971696CC9016971796BC9080
:103FD000620F31E0621708F030E0252F240F41E036
:103FE000251708F040E0F32EF20E31E0F21608F04B
:103FF00030E0432B272F280F51E0271708F050E01F
:10400000042F020F31E0021708F030E0532B2E2F5F
:10401000210F41E02E1708F040E0152F120F31E07C
:10402000121708F030E0432B292F2E0D51E02917ED
:1040300008F050E0842F820F31E0821708F030E062
:10404000532B2A2D2D0D41E02A1508F040E0752F45
:10405000720F31E0721708F030E0432B292D2C0D40
:1040600051E0291508F050E0E42FE20F31E0E217AB
:1040700008F030E0952F932BFB0D262F3F2DA80144
:10408000682F8E2F9F0F903444F02FEF3FEF4FEFAC
:104090005FEF6FEF7FEF8FEF9FE3903C44F420E002
:1040A00030E040E050E060E070E080E090ECF10152
:1040B000208331834283538364837583868397830C
:1040C00069847A848B849C84990C6608762C4301DD
:1040D000A984BA84CB84DC84E62CF62C062D162D1C
:1040E0000E940C0C59016A012D813E814F81588537
:1040F0002A0D3B1D4C1D5D1D2D833E834F8358872C
:104100008D859E85AF85B8890097A105B10551F1D0
:10411000F10180859185A285B3852DA13EA14FA196
:1041200058A5281B390B4A0B5B0BCA01B9012D8519
:104130003E854F8558890E94B6342D813E814F813E
:104140005885260F371F481F591F2D833E834F83E5
:1041500058878DA19EA1AFA1B8A5F1018087918755
:10416000A287B38769817A818B819C8122E030E0CC
:1041700040E050E00E9408358D819E81AF81B88576
:10418000820F931FA41FB51F29813A814B815C8147
:10419000BC01CD010E940835CA01B90160960FB675
:1041A000F894DEBF0FBECDBFCF91DF911F910F916D
:1041B000FF90EF90DF90CF90BF90AF909F908F9047
:1041C0007F906F905F904F903F902F900895FC01EB
:1041D0001086118612861386108211821282138233
:1041E000148215821682178208952F923F924F9261
:1041F0005F926F927F928F929F92AF92BF92CF9277
:10420000DF92EF92FF920F931F93DF93CF93CDB77F
:10421000DEB764970FB6F894DEBF0FBECDBF1C01AA
:10422000498B5A8B6B8B7C8BA9019801C501B4011A
:10423000A8EE8A2EA3E09A2EA12CB12C89829A8214
:10424000AB82BC820E94B6346D837E838F83988755
:1042500069817A818B819C812D813E814F81588536
:1042600049805A806B807C806C197D098E099F097A
:10427000F10180809180A280B380280D391D4A1DF4
:104280005B1D0E94B6344B015C01C301B20122E008
:1042900030E040E050E00E940835820E931EA41EDC
:1042A000B51E89869A86AB86BC8689809A80AB804B
:1042B000BC80C701B60129893A894B895C890E9473
:1042C000B6347B018C01C501B40122E030E040E04E
:1042D00050E00E940835E20EF31E041F151FED8604
:1042E000FE860F87188BA984BA84CB84DC8469800E
:1042F0007A808B809C806D857E858F8598892981C9
:104300003A814B815C810E94083579018A01C6019E
:10431000B501A40193010E940835E20EF31E041FAB
:10432000151FF101E082F18202831383B701C801F6
:1043300064960FB6F894DEBF0FBECDBFCF91DF916C
:104340001F910F91FF90EF90DF90CF90BF90AF90B3
:104350009F908F907F906F905F904F903F902F90A5
:104360000895FC0188EB9BE0A0E0B0E0808391839E
:10437000A283B38384839583A683B7838087918741
:10438000A287B38784879587A687B78728EE33E00F
:1043900040E050E0208B318B428B538B248B358B4C
:1043A000468B578B208F318F428F538F248F358FC1
:1043B000468F578F10A286E291E0A0E0B0E081A383
:1043C00092A3A3A3B4A380E292E0A0E0B0E085A30F
:1043D00096A3A7A3B0A78CE193E0A0E0B0E081A7EB
:1043E00092A7A3A7B4A78FE291E0A0E0B0E085A7D1
:1043F00096A7A7A7B0AB87E292E0A0E0B0E081ABC0
:1044000092ABA3ABB4AB8CE293E0A0E0B0E085ABA1
:1044100096ABA7ABB0AF8FEF90E0A0E0B0E081AF7C
:1044200092AFA3AFB4AFFD9684EF92E0A0E0B0E00E
:1044300081939193A193B19385E691E0A0E0B0E0E0
:1044400081939193A193B19382E791E0A0E0B0E0D2
:1044500081939193A193B19380E291E0A0E0B0E0C9
:1044600081939193A193B193119211921192119210
:10447000119211921192119286E090E0A0E0B0E0CA
:1044800081939193A193B19381939193A193B193CC
:1044900080E395E7A0E0B0E081939193A193B1937D
:1044A00081939193A193B19381939193A193B193AC
:1044B00081939193A193B19387E090E0A0E0B0E065
:1044C00081939193A193B19381939193A193B1938C
:1044D00080E899E0A0E0B0E081939193A193B1933B
:1044E00081939193A193B19384EF91E0A0E0B0E028
:1044F00081939193A193B1932193319341935193DC
:1045000088EA91E6A0E0B0E081939193A193B19302
:1045100021933193419351931192119211921192DF
:1045200011921192119211922193319341935193CF
:104530001192119211921192119211921192119263
:1045400089E190E0A0E0B0E081939193A193B193D1
:104550001192119211921192119211921192119243
:1045600081939193A193B19311921192119211920F
:10457000119211921192119288E592E0A0E0B0E0C0
:1045800081939193A193B1931192119211921192EF
:104590001192119211921192119281E0819382E015
:1045A000819383E0819385E0819382E3819387E126
:1045B00090E0A0E0B0E081939193A193B19384E067
:1045C00090E0A0E0B0E081939193A193B19388E74C
:1045D00090E0A0E0B0E081939193A193B1938DE737
:1045E00090E0A0E0B0E080839183A283B38308953C
:1045F0000F931F93DC01CA014C33510508F06BC1C6
:10460000825C9F4FFC01EE0FFF1F0590F491E02D9F
:1046100009940C9311961C93119712962C93129750
:1046200013963C9358C114960C93149715961C93AB
:10463000159716962C93169717963C934CC118967F
:104640000C93189719961C9319971A962C931A97EE
:104650001B963C9340C11C960C931C971D961C9373
:104660001D971E962C931E971F963C9334C150960F
:104670000C93509751961C93519752962C935297A6
:1046800053963C9328C154960C93549755961C937B
:10469000559756962C93569757963C931CC158960F
:1046A0000C93589759961C9359975A962C935A974E
:1046B0005B963C9310C15C960C935C975D961C9343
:1046C0005D975E962C935E975F963C9304C190969F
:1046D0000C9301C191960C93919792961C9392978B
:1046E00093962C93939794963C93F5C095960C9340
:1046F000959796961C93969797962C93979798963E
:104700003C93E9C099960C9399979A961C939A9723
:104710009B962C939B979C963C93DDC09D960C9307
:104720009D979E961C939E979F962C939F97D096AD
:104730003C93D1C0D1960C93D197D2961C93D2972B
:10474000D3962C93D397D4963C93C5C0D5960C930F
:10475000D597D6961C93D697D7962C93D797D8965D
:104760003C93B9C0D9960C93D997DA961C93DA97F3
:10477000DB962C93DB97DC963C93ADC0FD01FD9658
:10478000A6C0FD01EF5BFF4FA2C0FD01EB5BFF4F39
:104790009EC0FD01E75BFF4F9AC0FD01E35BFF4F49
:1047A00096C0FD01EF5AFF4F92C0FD01EB5AFF4F3B
:1047B0008EC0FD01E75AFF4F8AC0FD01E35AFF4F4B
:1047C00086C0FD01EF59FF4F82C0FD01EB59FF4F3D
:1047D0007EC0FD01E759FF4F7AC0FD01E359FF4F4D
:1047E00076C0FD01EF58FF4F72C0FD01EB58FF4F3F
:1047F0006EC0FD01E758FF4F6AC0FD01E358FF4F4F
:1048000066C0FD01EF57FF4F62C0FD01EB57FF4F40
:104810005EC0FD01E757FF4F5AC0FD01E357FF4F50
:1048200056C0FD01EF56FF4F52C0FD01EB56FF4F42
:104830004EC0FD01E756FF4F4AC0FD01E356FF4F52
:1048400046C0FD01EF55FF4F42C0FD01EB55FF4F44
:104850003EC0FD01E755FF4F3AC0FD01E355FF4F54
:1048600036C0FD01EF54FF4F32C0FD01EB54FF4F46
:104870002EC0FD01E754FF4F2AC0FD01E354FF4F56
:1048800026C0FD01EF53FF4F22C0AB53BF4F0EC0F8
:10489000AA53BF4F0BC0A953BF4F08C0A853BF4F67
:1048A00005C0A753BF4F02C0A653BF4F0C9313C000
:1048B000FD01E553FF4F0BC0FD01E153FF4F07C062
:1048C000FD01ED52FF4F03C0FD01E952FF4F008390
:1048D0001183228333831F910F910895DF92EF920A
:1048E000FF920F931F937B018C01D42ECB010E946A
:1048F000D5398D1521F0C7016D2D0E94DD391F912D
:104900000F91FF90EF90DF900895EF92FF920F9339
:104910001F93CF93DF93182F092F60E070E080E0A2
:1049200090E042E40E946E2461E070E080E090E05C
:104930004FE40E946E2462E070E080E090E04FE47B
:104940000E946E2463E070E080E090E042E40E9408
:104950006E2464E070E080E090E049E40E946E2400
:1049600065E070E080E090E045E40E946E2466E03F
:1049700070E080E090E043E50E946E24212F302F0C
:10498000C901EC0187E0E82EF12C012D112DC801A1
:10499000B70149910E946E240894E11CF11C011D8D
:1049A000111D82EEE816F1040105110581F7DF9172
:1049B000CF911F910F91FF90EF9008950F931F9348
:1049C000CF93DF93182F092F80E090E00E94D53914
:1049D0008234B1F581E090E00E94D5398F3481F5C1
:1049E00082E090E00E94D5398F3451F583E090E069
:1049F0000E94D539823421F584E090E00E94D539B7
:104A00008934F1F485E090E00E94D5398534C1F411
:104A100086E090E00E94D539833591F4812F902F64
:104A20009C018901C7E0D0E0CE010E94D539F80190
:104A300081938F012196C23ED105B1F781E009C073
:104A4000812F902F0E94B121812F902F0E948524C9
:104A500080E0DF91CF911F910F910895813039F45B
:104A60008091C80085FFFCCF6093CE0008958091AF
:104A7000C00085FFFCCF6093C6000895682F81E0D9
:104A80000E942E250895CF93DF93FB01813019F406
:104A9000C9EDD2E002C0C0EDD2E08A819B812C81B9
:104AA0003D818217930719F41082E0E017C06E81F0
:104AB0007F81860F971F821B930B0E94E1348083B6
:104AC0008C819D81E881F981E80FF91FE0816E8179
:104AD0007F8101960E94E1349D838C838E2FDF912C
:104AE000CF9108951F920F920FB60F9211242F931A
:104AF0003F935F936F937F938F939F93AF93BF93F6
:104B0000EF93FF932091C0023091C1028091C202C5
:104B10009091C30228173907E9F0E091BE02F091A5
:104B2000BF028091C0029091C102E80FF91F8081FD
:104B30008093C6008091C0029091C1026091C4022E
:104B40007091C50201960E94E1349093C102809356
:104B5000C0020AC01092C1021092C0021092C30299
:104B60001092C2021092C602FF91EF91BF91AF91D5
:104B70009F918F917F916F915F913F912F910F90B6
:104B80000FBE0F901F9018951F920F920FB60F92A5
:104B900011242F933F934F935F936F937F938F9342
:104BA0009F93AF93BF93EF93FF934091C600809183
:104BB000D2029091D3026091D6027091D7020196F1
:104BC0000E94E134282F30E08091D4029091D502E8
:104BD0002817390779F0E091D002F091D102809145
:104BE000D2029091D302E80FF91F40833093D30291
:104BF0002093D202FF91EF91BF91AF919F918F913E
:104C00007F916F915F914F913F912F910F900FBEC8
:104C10000F901F9018951F920F920FB60F921124AC
:104C20002F933F935F936F937F938F939F93AF9354
:104C3000BF93EF93FF932091C9023091CA028091F4
:104C4000CB029091CC0228173907E9F0E091C70216
:104C5000F091C8028091C9029091CA02E80FF91F31
:104C600080818093CE008091C9029091CA026091A8
:104C7000CD027091CE0201960E94E1349093CA0257
:104C80008093C9020AC01092CA021092C9021092FF
:104C9000CC021092CB021092CF02FF91EF91BF9104
:104CA000AF919F918F917F916F915F913F912F91E4
:104CB0000F900FBE0F901F9018951F920F920FB676
:104CC0000F9211242F933F934F935F936F937F9392
:104CD0008F939F93AF93BF93EF93FF934091CE0039
:104CE0008091DB029091DC026091DF027091E00222
:104CF00001960E94E134282F30E08091DD029091EE
:104D0000DE022817390779F0E091D902F091DA0232
:104D10008091DB029091DC02E80FF91F4083309311
:104D2000DC022093DB02FF91EF91BF91AF919F9145
:104D30008F917F916F915F914F913F912F910F9044
:104D40000FBE0F901F9018957F928F929F92AF92F7
:104D5000BF92CF92DF92EF92FF920F931F93CF9368
:104D6000DF93782E5A016B0177FF0CC06DE20E9431
:104D70002E25D094C094B094A094A11CB11CC11C49
:104D8000D11C09C0411551056105710521F460E38D
:104D90000E942E253CC088249924CFE0D0E0BE019B
:104DA000882777FD8095982F0E948F319B01AC0159
:104DB00060E070E080E291E40E94EC327B018C01C3
:104DC000C601B5010E948F31A80197010E94F430FD
:104DD0000E945C312AE030E040E050E00E9408355B
:104DE0009B01AC0112161306140615061CF0811463
:104DF000910441F0622F605D872D0E942E2581E095
:104E0000882E912C21978FEFCF3FD80741F6DF9165
:104E1000CF911F910F91FF90EF90DF90CF90BF90B7
:104E2000AF909F908F907F900895FF920F931F9364
:104E30008C01F62EFC0113821282158214821086D8
:104E400066831782808191810E94453681E090E0DF
:104E50006F2D70E00E947C35F801808391831F9153
:104E60000F91FF9008959093CD008093CC0089ED31
:104E700092E00E94152788E98093C90008951F9247
:104E80000F920FB60F921124EF92FF920F931F9380
:104E90002F933F934F935F936F938F939F93AF9312
:104EA000BF93CF93DF93EF93FF936091260310920C
:104EB0002603C0918600D09187009E0140E050E01B
:104EC000E0912403F0912503809124039091250320
:104ED000A0E0B0E0281739074A075B0708F46150E3
:104EE0004160CF01A0E0B0E0281B390B4A0B5B0BFF
:104EF00040705070862F90E0A0E0B0E08C01FF245D
:104F0000EE24E20EF31E041F151FD0932503C09359
:104F1000240381E6E8168AEEF80680E0080780E0C0
:104F2000180770F0809122038093230310922203CC
:104F3000809128038823A1F581E08093280330C065
:104F4000209122038091290330E090E001972817F7
:104F5000390769F0E0912203F0E0EE0FFF1FEE0F3A
:104F6000FF1FEE51FD4FE082F18202831383809197
:104F700022038F5F8093220380912203843080F08C
:104F800080912803882361F082E080932803909128
:104F9000220380912303981719F481E0809327035B
:104FA000FF91EF91DF91CF91BF91AF919F918F9141
:104FB0006F915F914F913F912F911F910F91FF90B2
:104FC000EF900F900FBE0F901F9018951F920F92A9
:104FD0000FB60F9211248F93809126038F5F8093D9
:104FE0002603809126038B3028F08AE080932603E5
:104FF000109228038F910F900FBE0F901F9018955D
:105000009091270398239093270380912703089575
:105010009091280398239093280380912803089562
:10502000E82F80912803882331F1EF5FE093290373
:10503000E150F0E0EE0FFF1FEE0FFF1FDF01AE515A
:10504000BD4F2D913D914D915C91EE5FFC4F808164
:105050009181A281B381F901E81BF90B1092290318
:10506000CF01C1968336910530F09F01442737FD6B
:105070004095542F04C020E030E040E050E0B901FA
:10508000CA010895E82FF0E0EE0FFF1FEE0FFF1F9B
:10509000EE51FD4F2081318142815381B901CA0116
:1050A0000895E82FF0E0EE0FFF1FEE0FFF1FEE5FF9
:1050B000FC4F2081318142815381B901CA01089599
:1050C0002F923F924F925F926F927F928F929F9218
:1050D000AF92BF92CF92DF92EF92FF920F931F9306
:1050E000DF93CF93CDB7DEB7C054D0400FB6F8945E
:1050F000DEBF0FBECDBF482E80E090E0FC01EE0F7A
:10510000FF1FEE0FFF1FEE5FFC4F10821182128215
:10511000138201968830910589F7FE01319680E46B
:10512000DF011D928A95E9F7BB241F0192C01092FE
:105130002703809127038823E1F3610100E0F60152
:105140001081E180A280938074806580F680578012
:10515000802F0E9410289B01AC01550F220B322F8B
:10516000A901E62F672F322F422F522F8E2E810E4C
:10517000F1E08E1608F0F0E0E62FEE0DA1E0E61764
:1051800008F0A0E0EF2EEE0EF1E0EE1608F0F0E0F1
:10519000AF2BE82FEA0DB1E0E81708F0B0E01A2FC6
:1051A0001E0FF1E01E1708F0F0E0BF2BE92FE90D0C
:1051B000F1E0E91708F0F0E0AB2EAE0E81E0AE169C
:1051C00008F080E0F82B832F870D61E0831708F04B
:1051D00060E0F80F91E0F81708F090E0692B842F59
:1051E000860D71E0841708F070E0E62FE80F91E07B
:1051F000E81708F090E0792B852F8F0D91E0851747
:1052000008F090E0780F61E0781708F060E0962BE6
:10521000250D920FD6018C921196EC921197129651
:105220001C9312971396AC9213971496FC931497B1
:105230001596EC93159716967C93169717969C9354
:105240000F5FE8E0F0E0CE0EDF1E083009F077CF08
:10525000B394B41408F46BCF6E010894C11CD11C34
:10526000AA24BB24642C772488249924D6012C9169
:1052700011963C91119712964C91129713965C914E
:10528000139714966C91149715967C911597169612
:105290008C91169717969C910E94CA317B018C01C4
:1052A000C401B3010E948D319B01AC01C801B7015B
:1052B0000E94F4300E9459329B01AC01F501EE0FBF
:1052C000FF1FEE0FFF1FEE5FFC4F208331834283F1
:1052D00053830894A11CB11CE8E0F0E0CE0EDF1E61
:1052E000F8E0AF16B10411F681E080932A03C05CA8
:1052F000DF4F0FB6F894DEBF0FBECDBFCF91DF9169
:105300001F910F91FF90EF90DF90CF90BF90AF90E3
:105310009F908F907F906F905F904F903F902F90D5
:10532000089580E090E020E335E740E050E0FC01A4
:10533000EE0FFF1FEE0FFF1FDF01AE51BD4F2D938C
:105340003D934D935C931397EE5FFC4F2083318325
:105350004283538301968830910549F710922803C0
:105360001092270310922203109226031092250315
:105370001092240386E08093230310922A035E9800
:1053800056980E94C31C80918100806C809381009C
:1053900080916F00816280936F000895AF92BF92F9
:1053A000CF92DF92EF92FF920F931F93CF93DF93F1
:1053B0008C018DB79EB70A970FB6F8949EBF0FBEAB
:1053C0008DBFEDB7FEB7319624E1E22E21E0F22E3B
:1053D000ADB7BEB71296FC92EE9211978AE997E1AB
:1053E0009383828394E0C92ED12CD582C482E801B4
:1053F00088819981AA81BB8186839783A087B187A1
:105400000E94DB37EDB7FEB73196ADB7BEB7129647
:10541000FC92EE92119789E797E193838283D5827C
:10542000C4828C819D81AE81BF8186839783A08752
:10543000B1870E94DB37EDB7FEB73196CDB7DEB747
:10544000FA82E98288E597E193838283D582C482D8
:10545000E80188859985AA85BB8586839783A0877F
:10546000B1870E94DB37EDB7FEB73196ADB7BEB757
:105470001296FC92EE92119787E397E193838283D1
:10548000D582C4828C859D85AE85BF8586839783B2
:10549000A087B1870E94DB37EDB7FEB73196CDB755
:1054A000DEB7FA82E98284E197E193838283D58231
:1054B000C482E80188899989AA89BB8986839783F0
:1054C000A087B1870E94DB37EDB7FEB73196ADB745
:1054D000BEB71296FC92EE92119781EF96E19383FC
:1054E0008283D582C4828C899D89AE89BF89868357
:1054F0009783A087B1870E94DB37EDB7FEB731965F
:10550000CDB7DEB7FA82E9828EEC96E1938382838F
:10551000D582C482E801888D998DAA8DBB8D868342
:105520009783A087B1870E94DB37EDB7FEB731962E
:10553000ADB7BEB71296FC92EE9211978BEA96E148
:1055400093838283D582C4828C8D9D8DAE8DBF8DD9
:1055500086839783A087B1870E94DB370F900F90D7
:10556000EDB7FEB73196CDB7DEB7FA82E98289E8AA
:1055700096E19383828381E0A82EB12CB582A48228
:10558000D80190968C91868317820E94DB3700D0D9
:10559000EDB7FEB73196CDB7DEB7FA82E98283E682
:1055A00096E193838283D582C482E80189A19AA17E
:1055B000ABA1BCA186839783A087B1870E94DB370C
:1055C000EDB7FEB73196ADB7BEB71296FC92EE922C
:1055D000119789E396E193838283D582C4828DA15A
:1055E0009EA1AFA1B8A586839783A087B1870E94AB
:1055F000DB37EDB7FEB73196CDB7DEB7FA82E98279
:1056000082E196E193838283D582C482E80189A5F1
:105610009AA5ABA5BCA586839783A087B1870E9476
:10562000DB37EDB7FEB73196ADB7BEB71296FC9239
:10563000EE9211978AEE95E193838283D582C4829C
:105640008DA59EA5AFA5B8A986839783A087B187AE
:105650000E94DB37EDB7FEB73196CDB7DEB7FA82E1
:10566000E9828FEB95E193838283D582C482E8013E
:1056700089A99AA9ABA9BCA986839783A087B1877A
:105680000E94DB37EDB7FEB73196ADB7BEB71296C5
:10569000FC92EE92119787E995E193838283D582FC
:1056A000C4828DA99EA9AFA9B8AD86839783A08730
:1056B000B1870E94DB37EDB7FEB73196CDB7DEB7C5
:1056C000FA82E98280E795E193838283D582C4825E
:1056D000E80189AD9AADABADBCAD86839783A08759
:1056E000B1870E94DB37EDB7FEB73196ADB7BEB7D5
:1056F0001296FC92EE92119789E495E1938382834E
:10570000D582C482035C1F4FE80189919991A991C8
:10571000B99186839783A087B1870E94DB37EDB765
:10572000FEB73196ADB7BEB71296FC92EE921197C6
:1057300080E295E193838283D582C4828991999195
:10574000A991B99186839783A087B1870E94DB379F
:10575000EDB7FEB73196ADB7BEB71296FC92EE929A
:10576000119786EF94E193838283D582C4828991D5
:105770009991A991B99186839783A087B1870E9457
:10578000DB37EDB7FEB73196ADB7BEB71296FC92D8
:10579000EE9211978EEC94E193838283D582C4823A
:1057A00089919991A991B99186839783A087B187AF
:1057B0000E94DB37EDB7FEB73196ADB7BEB7129694
:1057C000FC92EE92119783EA94E193838283D582CF
:1057D000C48289919991A991B99186839783A08771
:1057E000B1870E94DB37EDB7FEB73196ADB7BEB7D4
:1057F0001296FC92EE92119789E794E1938382834B
:10580000D582C48289919991A991B9918683978310
:10581000A087B1870E94DB37EDB7FEB73196ADB7F1
:10582000BEB71296FC92EE9211978EE494E19383A8
:105830008283D582C48289919991A991B9918683F5
:105840009783A087B1870E94DB37EDB7FEB731960B
:10585000ADB7BEB71296FC92EE92119784E294E136
:1058600093838283D582C48289919991A991B991B8
:1058700086839783A087B1870E94DB37EDB7FEB799
:105880003196ADB7BEB71296FC92EE9211978CEF9F
:1058900093E193838283D582C48289919991A9915E
:1058A000B99186839783A087B1870E94DB37EDB7D4
:1058B000FEB73196ADB7BEB71296FC92EE92119735
:1058C00083ED93E193838283D582C48289919991F8
:1058D000A991B99186839783A087B1870E94DB370E
:1058E000EDB7FEB73196ADB7BEB71296FC92EE9209
:1058F00011978CEA93E193838283D582C482899144
:105900009991A991B99186839783A087B1870E94C5
:10591000DB37EDB7FEB73196ADB7BEB71296FC9246
:10592000EE92119780E893E193838283D582C482BB
:1059300089919991A991B99186839783A087B1871D
:105940000E94DB37EDB7FEB73196ADB7BEB7129602
:10595000FC92EE92119789E593E193838283D5823D
:10596000C48289919991A991B99186839783A087DF
:10597000B1870E94DB37EDB7FEB73196ADB7BEB742
:105980001296FC92EE92119781E393E193838283C6
:10599000D582C48289919991A991B991868397837F
:1059A000A087B1870E94DB37EDB7FEB73196ADB760
:1059B000BEB71296FC92EE92119789E093E1938321
:1059C0008283D582C48289919991A991B991868364
:1059D0009783A087B1870E94DB37EDB7FEB731967A
:1059E000ADB7BEB71296FC92EE92119780EE92E19F
:1059F00093838283D582C48289919991A991B99127
:105A000086839783A087B1870E94DB37EDB7FEB707
:105A10003196ADB7BEB71296FC92EE92119789EB14
:105A200092E193838283D582C48289919991A991CD
:105A3000B99186839783A087B1870E94DB37EDB742
:105A4000FEB73196ADB7BEB71296FC92EE921197A3
:105A50008EE892E193838283D582C4828991999161
:105A6000A991B99186839783A087B1870E94DB377C
:105A7000EDB7FEB73196ADB7BEB71296FC92EE9277
:105A8000119787E692E193838283D582C4828991BC
:105A90009991A991B99186839783A087B1870E9434
:105AA000DB37EDB7FEB73196ADB7BEB71296FC92B5
:105AB000EE92119781E492E193838283D582C4822E
:105AC00089919991A991B99186839783A087B1878C
:105AD0000E94DB37EDB7FEB73196ADB7BEB7129671
